{
	"模块二：Solidity 语言特性/实战 1/code/Bank.sol": {
		"Bank": {
			"abi": [
				{
					"inputs": [],
					"stateMutability": "nonpayable",
					"type": "constructor"
				},
				{
					"anonymous": false,
					"inputs": [
						{
							"indexed": true,
							"internalType": "address",
							"name": "depositor",
							"type": "address"
						},
						{
							"indexed": false,
							"internalType": "uint256",
							"name": "amount",
							"type": "uint256"
						}
					],
					"name": "Deposit",
					"type": "event"
				},
				{
					"anonymous": false,
					"inputs": [],
					"name": "TopDepositorsUpdated",
					"type": "event"
				},
				{
					"anonymous": false,
					"inputs": [
						{
							"indexed": true,
							"internalType": "address",
							"name": "admin",
							"type": "address"
						},
						{
							"indexed": false,
							"internalType": "uint256",
							"name": "amount",
							"type": "uint256"
						}
					],
					"name": "Withdraw",
					"type": "event"
				},
				{
					"stateMutability": "payable",
					"type": "fallback"
				},
				{
					"inputs": [],
					"name": "admin",
					"outputs": [
						{
							"internalType": "address",
							"name": "",
							"type": "address"
						}
					],
					"stateMutability": "view",
					"type": "function"
				},
				{
					"inputs": [
						{
							"internalType": "address",
							"name": "",
							"type": "address"
						}
					],
					"name": "balances",
					"outputs": [
						{
							"internalType": "uint256",
							"name": "",
							"type": "uint256"
						}
					],
					"stateMutability": "view",
					"type": "function"
				},
				{
					"inputs": [
						{
							"internalType": "address",
							"name": "newAdmin",
							"type": "address"
						}
					],
					"name": "changeAdmin",
					"outputs": [],
					"stateMutability": "nonpayable",
					"type": "function"
				},
				{
					"inputs": [],
					"name": "deposit",
					"outputs": [],
					"stateMutability": "payable",
					"type": "function"
				},
				{
					"inputs": [
						{
							"internalType": "address",
							"name": "depositor",
							"type": "address"
						}
					],
					"name": "getBalance",
					"outputs": [
						{
							"internalType": "uint256",
							"name": "",
							"type": "uint256"
						}
					],
					"stateMutability": "view",
					"type": "function"
				},
				{
					"inputs": [],
					"name": "getContractBalance",
					"outputs": [
						{
							"internalType": "uint256",
							"name": "",
							"type": "uint256"
						}
					],
					"stateMutability": "view",
					"type": "function"
				},
				{
					"inputs": [],
					"name": "getTopDepositors",
					"outputs": [
						{
							"components": [
								{
									"internalType": "address",
									"name": "depositor",
									"type": "address"
								},
								{
									"internalType": "uint256",
									"name": "amount",
									"type": "uint256"
								}
							],
							"internalType": "struct Bank.TopDepositor[3]",
							"name": "",
							"type": "tuple[3]"
						}
					],
					"stateMutability": "view",
					"type": "function"
				},
				{
					"inputs": [
						{
							"internalType": "uint256",
							"name": "",
							"type": "uint256"
						}
					],
					"name": "topDepositors",
					"outputs": [
						{
							"internalType": "address",
							"name": "depositor",
							"type": "address"
						},
						{
							"internalType": "uint256",
							"name": "amount",
							"type": "uint256"
						}
					],
					"stateMutability": "view",
					"type": "function"
				},
				{
					"inputs": [
						{
							"internalType": "uint256",
							"name": "amount",
							"type": "uint256"
						}
					],
					"name": "withdraw",
					"outputs": [],
					"stateMutability": "nonpayable",
					"type": "function"
				},
				{
					"inputs": [],
					"name": "withdrawAll",
					"outputs": [],
					"stateMutability": "nonpayable",
					"type": "function"
				},
				{
					"stateMutability": "payable",
					"type": "receive"
				}
			],
			"devdoc": {
				"kind": "dev",
				"methods": {},
				"version": 1
			},
			"evm": {
				"assembly": "    /* \"\\xe6\\xa8\\xa1\\xe5\\x9d\\x97\\xe4\\xba\\x8c\\xef\\xbc\\x9aSolidity \\xe8\\xaf\\xad\\xe8\\xa8\\x80\\xe7\\x89\\xb9\\xe6\\x80\\xa7/\\xe5\\xae\\x9e\\xe6\\x88\\x98 1/code/Bank.sol\":62:4174  contract Bank {... */\n  mstore(0x40, 0x80)\n    /* \"\\xe6\\xa8\\xa1\\xe5\\x9d\\x97\\xe4\\xba\\x8c\\xef\\xbc\\x9aSolidity \\xe8\\xaf\\xad\\xe8\\xa8\\x80\\xe7\\x89\\xb9\\xe6\\x80\\xa7/\\xe5\\xae\\x9e\\xe6\\x88\\x98 1/code/Bank.sol\":845:894  constructor() {... */\n  callvalue\n  dup1\n  iszero\n  tag_1\n  jumpi\n  revert(0x00, 0x00)\ntag_1:\n  pop\n    /* \"\\xe6\\xa8\\xa1\\xe5\\x9d\\x97\\xe4\\xba\\x8c\\xef\\xbc\\x9aSolidity \\xe8\\xaf\\xad\\xe8\\xa8\\x80\\xe7\\x89\\xb9\\xe6\\x80\\xa7/\\xe5\\xae\\x9e\\xe6\\x88\\x98 1/code/Bank.sol\":877:887  msg.sender */\n  caller\n    /* \"\\xe6\\xa8\\xa1\\xe5\\x9d\\x97\\xe4\\xba\\x8c\\xef\\xbc\\x9aSolidity \\xe8\\xaf\\xad\\xe8\\xa8\\x80\\xe7\\x89\\xb9\\xe6\\x80\\xa7/\\xe5\\xae\\x9e\\xe6\\x88\\x98 1/code/Bank.sol\":869:874  admin */\n  0x00\n  0x00\n    /* \"\\xe6\\xa8\\xa1\\xe5\\x9d\\x97\\xe4\\xba\\x8c\\xef\\xbc\\x9aSolidity \\xe8\\xaf\\xad\\xe8\\xa8\\x80\\xe7\\x89\\xb9\\xe6\\x80\\xa7/\\xe5\\xae\\x9e\\xe6\\x88\\x98 1/code/Bank.sol\":869:887  admin = msg.sender */\n  0x0100\n  exp\n  dup2\n  sload\n  dup2\n  0xffffffffffffffffffffffffffffffffffffffff\n  mul\n  not\n  and\n  swap1\n  dup4\n  0xffffffffffffffffffffffffffffffffffffffff\n  and\n  mul\n  or\n  swap1\n  sstore\n  pop\n    /* \"\\xe6\\xa8\\xa1\\xe5\\x9d\\x97\\xe4\\xba\\x8c\\xef\\xbc\\x9aSolidity \\xe8\\xaf\\xad\\xe8\\xa8\\x80\\xe7\\x89\\xb9\\xe6\\x80\\xa7/\\xe5\\xae\\x9e\\xe6\\x88\\x98 1/code/Bank.sol\":62:4174  contract Bank {... */\n  dataSize(sub_0)\n  dup1\n  dataOffset(sub_0)\n  0x00\n  codecopy\n  0x00\n  return\nstop\n\nsub_0: assembly {\n        /* \"\\xe6\\xa8\\xa1\\xe5\\x9d\\x97\\xe4\\xba\\x8c\\xef\\xbc\\x9aSolidity \\xe8\\xaf\\xad\\xe8\\xa8\\x80\\xe7\\x89\\xb9\\xe6\\x80\\xa7/\\xe5\\xae\\x9e\\xe6\\x88\\x98 1/code/Bank.sol\":62:4174  contract Bank {... */\n      mstore(0x40, 0x80)\n      jumpi(tag_1, lt(calldatasize, 0x04))\n      shr(0xe0, calldataload(0x00))\n      dup1\n      0x853828b6\n      gt\n      tag_13\n      jumpi\n      dup1\n      0x853828b6\n      eq\n      tag_8\n      jumpi\n      dup1\n      0x8f283970\n      eq\n      tag_9\n      jumpi\n      dup1\n      0xd0e30db0\n      eq\n      tag_10\n      jumpi\n      dup1\n      0xf851a440\n      eq\n      tag_11\n      jumpi\n      dup1\n      0xf8b2cb4f\n      eq\n      tag_12\n      jumpi\n      jump(tag_2)\n    tag_13:\n      dup1\n      0x27e235e3\n      eq\n      tag_3\n      jumpi\n      dup1\n      0x2e1a7d4d\n      eq\n      tag_4\n      jumpi\n      dup1\n      0x30861078\n      eq\n      tag_5\n      jumpi\n      dup1\n      0x6f9fb98a\n      eq\n      tag_6\n      jumpi\n      dup1\n      0x81454f71\n      eq\n      tag_7\n      jumpi\n      jump(tag_2)\n    tag_1:\n      jumpi(tag_2, calldatasize)\n        /* \"\\xe6\\xa8\\xa1\\xe5\\x9d\\x97\\xe4\\xba\\x8c\\xef\\xbc\\x9aSolidity \\xe8\\xaf\\xad\\xe8\\xa8\\x80\\xe7\\x89\\xb9\\xe6\\x80\\xa7/\\xe5\\xae\\x9e\\xe6\\x88\\x98 1/code/Bank.sol\":1024:1033  deposit() */\n      tag_16\n        /* \"\\xe6\\xa8\\xa1\\xe5\\x9d\\x97\\xe4\\xba\\x8c\\xef\\xbc\\x9aSolidity \\xe8\\xaf\\xad\\xe8\\xa8\\x80\\xe7\\x89\\xb9\\xe6\\x80\\xa7/\\xe5\\xae\\x9e\\xe6\\x88\\x98 1/code/Bank.sol\":1024:1031  deposit */\n      tag_17\n        /* \"\\xe6\\xa8\\xa1\\xe5\\x9d\\x97\\xe4\\xba\\x8c\\xef\\xbc\\x9aSolidity \\xe8\\xaf\\xad\\xe8\\xa8\\x80\\xe7\\x89\\xb9\\xe6\\x80\\xa7/\\xe5\\xae\\x9e\\xe6\\x88\\x98 1/code/Bank.sol\":1024:1033  deposit() */\n      jump\t// in\n    tag_16:\n        /* \"\\xe6\\xa8\\xa1\\xe5\\x9d\\x97\\xe4\\xba\\x8c\\xef\\xbc\\x9aSolidity \\xe8\\xaf\\xad\\xe8\\xa8\\x80\\xe7\\x89\\xb9\\xe6\\x80\\xa7/\\xe5\\xae\\x9e\\xe6\\x88\\x98 1/code/Bank.sol\":62:4174  contract Bank {... */\n      stop\n    tag_2:\n        /* \"\\xe6\\xa8\\xa1\\xe5\\x9d\\x97\\xe4\\xba\\x8c\\xef\\xbc\\x9aSolidity \\xe8\\xaf\\xad\\xe8\\xa8\\x80\\xe7\\x89\\xb9\\xe6\\x80\\xa7/\\xe5\\xae\\x9e\\xe6\\x88\\x98 1/code/Bank.sol\":1108:1117  deposit() */\n      tag_20\n        /* \"\\xe6\\xa8\\xa1\\xe5\\x9d\\x97\\xe4\\xba\\x8c\\xef\\xbc\\x9aSolidity \\xe8\\xaf\\xad\\xe8\\xa8\\x80\\xe7\\x89\\xb9\\xe6\\x80\\xa7/\\xe5\\xae\\x9e\\xe6\\x88\\x98 1/code/Bank.sol\":1108:1115  deposit */\n      tag_17\n        /* \"\\xe6\\xa8\\xa1\\xe5\\x9d\\x97\\xe4\\xba\\x8c\\xef\\xbc\\x9aSolidity \\xe8\\xaf\\xad\\xe8\\xa8\\x80\\xe7\\x89\\xb9\\xe6\\x80\\xa7/\\xe5\\xae\\x9e\\xe6\\x88\\x98 1/code/Bank.sol\":1108:1117  deposit() */\n      jump\t// in\n    tag_20:\n        /* \"\\xe6\\xa8\\xa1\\xe5\\x9d\\x97\\xe4\\xba\\x8c\\xef\\xbc\\x9aSolidity \\xe8\\xaf\\xad\\xe8\\xa8\\x80\\xe7\\x89\\xb9\\xe6\\x80\\xa7/\\xe5\\xae\\x9e\\xe6\\x88\\x98 1/code/Bank.sol\":62:4174  contract Bank {... */\n      stop\n        /* \"\\xe6\\xa8\\xa1\\xe5\\x9d\\x97\\xe4\\xba\\x8c\\xef\\xbc\\x9aSolidity \\xe8\\xaf\\xad\\xe8\\xa8\\x80\\xe7\\x89\\xb9\\xe6\\x80\\xa7/\\xe5\\xae\\x9e\\xe6\\x88\\x98 1/code/Bank.sol\":177:220  mapping(address => uint256) public balances */\n    tag_3:\n      callvalue\n      dup1\n      iszero\n      tag_21\n      jumpi\n      revert(0x00, 0x00)\n    tag_21:\n      pop\n      tag_22\n      0x04\n      dup1\n      calldatasize\n      sub\n      dup2\n      add\n      swap1\n      tag_23\n      swap2\n      swap1\n      tag_24\n      jump\t// in\n    tag_23:\n      tag_25\n      jump\t// in\n    tag_22:\n      mload(0x40)\n      tag_26\n      swap2\n      swap1\n      tag_27\n      jump\t// in\n    tag_26:\n      mload(0x40)\n      dup1\n      swap2\n      sub\n      swap1\n      return\n        /* \"\\xe6\\xa8\\xa1\\xe5\\x9d\\x97\\xe4\\xba\\x8c\\xef\\xbc\\x9aSolidity \\xe8\\xaf\\xad\\xe8\\xa8\\x80\\xe7\\x89\\xb9\\xe6\\x80\\xa7/\\xe5\\xae\\x9e\\xe6\\x88\\x98 1/code/Bank.sol\":2802:3173  function withdraw(uint256 amount) external onlyAdmin {... */\n    tag_4:\n      callvalue\n      dup1\n      iszero\n      tag_28\n      jumpi\n      revert(0x00, 0x00)\n    tag_28:\n      pop\n      tag_29\n      0x04\n      dup1\n      calldatasize\n      sub\n      dup2\n      add\n      swap1\n      tag_30\n      swap2\n      swap1\n      tag_31\n      jump\t// in\n    tag_30:\n      tag_32\n      jump\t// in\n    tag_29:\n      stop\n        /* \"\\xe6\\xa8\\xa1\\xe5\\x9d\\x97\\xe4\\xba\\x8c\\xef\\xbc\\x9aSolidity \\xe8\\xaf\\xad\\xe8\\xa8\\x80\\xe7\\x89\\xb9\\xe6\\x80\\xa7/\\xe5\\xae\\x9e\\xe6\\x88\\x98 1/code/Bank.sol\":403:439  TopDepositor[3] public topDepositors */\n    tag_5:\n      callvalue\n      dup1\n      iszero\n      tag_33\n      jumpi\n      revert(0x00, 0x00)\n    tag_33:\n      pop\n      tag_34\n      0x04\n      dup1\n      calldatasize\n      sub\n      dup2\n      add\n      swap1\n      tag_35\n      swap2\n      swap1\n      tag_31\n      jump\t// in\n    tag_35:\n      tag_36\n      jump\t// in\n    tag_34:\n      mload(0x40)\n      tag_37\n      swap3\n      swap2\n      swap1\n      tag_38\n      jump\t// in\n    tag_37:\n      mload(0x40)\n      dup1\n      swap2\n      sub\n      swap1\n      return\n        /* \"\\xe6\\xa8\\xa1\\xe5\\x9d\\x97\\xe4\\xba\\x8c\\xef\\xbc\\x9aSolidity \\xe8\\xaf\\xad\\xe8\\xa8\\x80\\xe7\\x89\\xb9\\xe6\\x80\\xa7/\\xe5\\xae\\x9e\\xe6\\x88\\x98 1/code/Bank.sol\":3499:3606  function getContractBalance() external view returns (uint256) {... */\n    tag_6:\n      callvalue\n      dup1\n      iszero\n      tag_39\n      jumpi\n      revert(0x00, 0x00)\n    tag_39:\n      pop\n      tag_40\n      tag_41\n      jump\t// in\n    tag_40:\n      mload(0x40)\n      tag_42\n      swap2\n      swap1\n      tag_27\n      jump\t// in\n    tag_42:\n      mload(0x40)\n      dup1\n      swap2\n      sub\n      swap1\n      return\n        /* \"\\xe6\\xa8\\xa1\\xe5\\x9d\\x97\\xe4\\xba\\x8c\\xef\\xbc\\x9aSolidity \\xe8\\xaf\\xad\\xe8\\xa8\\x80\\xe7\\x89\\xb9\\xe6\\x80\\xa7/\\xe5\\xae\\x9e\\xe6\\x88\\x98 1/code/Bank.sol\":3820:3932  function getTopDepositors() external view returns (TopDepositor[3] memory) {... */\n    tag_7:\n      callvalue\n      dup1\n      iszero\n      tag_43\n      jumpi\n      revert(0x00, 0x00)\n    tag_43:\n      pop\n      tag_44\n      tag_45\n      jump\t// in\n    tag_44:\n      mload(0x40)\n      tag_46\n      swap2\n      swap1\n      tag_47\n      jump\t// in\n    tag_46:\n      mload(0x40)\n      dup1\n      swap2\n      sub\n      swap1\n      return\n        /* \"\\xe6\\xa8\\xa1\\xe5\\x9d\\x97\\xe4\\xba\\x8c\\xef\\xbc\\x9aSolidity \\xe8\\xaf\\xad\\xe8\\xa8\\x80\\xe7\\x89\\xb9\\xe6\\x80\\xa7/\\xe5\\xae\\x9e\\xe6\\x88\\x98 1/code/Bank.sol\":3218:3460  function withdrawAll() external onlyAdmin {... */\n    tag_8:\n      callvalue\n      dup1\n      iszero\n      tag_48\n      jumpi\n      revert(0x00, 0x00)\n    tag_48:\n      pop\n      tag_49\n      tag_50\n      jump\t// in\n    tag_49:\n      stop\n        /* \"\\xe6\\xa8\\xa1\\xe5\\x9d\\x97\\xe4\\xba\\x8c\\xef\\xbc\\x9aSolidity \\xe8\\xaf\\xad\\xe8\\xa8\\x80\\xe7\\x89\\xb9\\xe6\\x80\\xa7/\\xe5\\xae\\x9e\\xe6\\x88\\x98 1/code/Bank.sol\":4004:4172  function changeAdmin(address newAdmin) external onlyAdmin {... */\n    tag_9:\n      callvalue\n      dup1\n      iszero\n      tag_51\n      jumpi\n      revert(0x00, 0x00)\n    tag_51:\n      pop\n      tag_52\n      0x04\n      dup1\n      calldatasize\n      sub\n      dup2\n      add\n      swap1\n      tag_53\n      swap2\n      swap1\n      tag_24\n      jump\t// in\n    tag_53:\n      tag_54\n      jump\t// in\n    tag_52:\n      stop\n        /* \"\\xe6\\xa8\\xa1\\xe5\\x9d\\x97\\xe4\\xba\\x8c\\xef\\xbc\\x9aSolidity \\xe8\\xaf\\xad\\xe8\\xa8\\x80\\xe7\\x89\\xb9\\xe6\\x80\\xa7/\\xe5\\xae\\x9e\\xe6\\x88\\x98 1/code/Bank.sol\":1154:1543  function deposit() public payable {... */\n    tag_10:\n      tag_55\n      tag_17\n      jump\t// in\n    tag_55:\n      stop\n        /* \"\\xe6\\xa8\\xa1\\xe5\\x9d\\x97\\xe4\\xba\\x8c\\xef\\xbc\\x9aSolidity \\xe8\\xaf\\xad\\xe8\\xa8\\x80\\xe7\\x89\\xb9\\xe6\\x80\\xa7/\\xe5\\xae\\x9e\\xe6\\x88\\x98 1/code/Bank.sol\":105:125  address public admin */\n    tag_11:\n      callvalue\n      dup1\n      iszero\n      tag_56\n      jumpi\n      revert(0x00, 0x00)\n    tag_56:\n      pop\n      tag_57\n      tag_58\n      jump\t// in\n    tag_57:\n      mload(0x40)\n      tag_59\n      swap2\n      swap1\n      tag_60\n      jump\t// in\n    tag_59:\n      mload(0x40)\n      dup1\n      swap2\n      sub\n      swap1\n      return\n        /* \"\\xe6\\xa8\\xa1\\xe5\\x9d\\x97\\xe4\\xba\\x8c\\xef\\xbc\\x9aSolidity \\xe8\\xaf\\xad\\xe8\\xa8\\x80\\xe7\\x89\\xb9\\xe6\\x80\\xa7/\\xe5\\xae\\x9e\\xe6\\x88\\x98 1/code/Bank.sol\":3657:3771  function getBalance(address depositor) external view returns (uint256) {... */\n    tag_12:\n      callvalue\n      dup1\n      iszero\n      tag_61\n      jumpi\n      revert(0x00, 0x00)\n    tag_61:\n      pop\n      tag_62\n      0x04\n      dup1\n      calldatasize\n      sub\n      dup2\n      add\n      swap1\n      tag_63\n      swap2\n      swap1\n      tag_24\n      jump\t// in\n    tag_63:\n      tag_64\n      jump\t// in\n    tag_62:\n      mload(0x40)\n      tag_65\n      swap2\n      swap1\n      tag_27\n      jump\t// in\n    tag_65:\n      mload(0x40)\n      dup1\n      swap2\n      sub\n      swap1\n      return\n        /* \"\\xe6\\xa8\\xa1\\xe5\\x9d\\x97\\xe4\\xba\\x8c\\xef\\xbc\\x9aSolidity \\xe8\\xaf\\xad\\xe8\\xa8\\x80\\xe7\\x89\\xb9\\xe6\\x80\\xa7/\\xe5\\xae\\x9e\\xe6\\x88\\x98 1/code/Bank.sol\":1154:1543  function deposit() public payable {... */\n    tag_17:\n        /* \"\\xe6\\xa8\\xa1\\xe5\\x9d\\x97\\xe4\\xba\\x8c\\xef\\xbc\\x9aSolidity \\xe8\\xaf\\xad\\xe8\\xa8\\x80\\xe7\\x89\\xb9\\xe6\\x80\\xa7/\\xe5\\xae\\x9e\\xe6\\x88\\x98 1/code/Bank.sol\":1218:1219  0 */\n      0x00\n        /* \"\\xe6\\xa8\\xa1\\xe5\\x9d\\x97\\xe4\\xba\\x8c\\xef\\xbc\\x9aSolidity \\xe8\\xaf\\xad\\xe8\\xa8\\x80\\xe7\\x89\\xb9\\xe6\\x80\\xa7/\\xe5\\xae\\x9e\\xe6\\x88\\x98 1/code/Bank.sol\":1206:1215  msg.value */\n      callvalue\n        /* \"\\xe6\\xa8\\xa1\\xe5\\x9d\\x97\\xe4\\xba\\x8c\\xef\\xbc\\x9aSolidity \\xe8\\xaf\\xad\\xe8\\xa8\\x80\\xe7\\x89\\xb9\\xe6\\x80\\xa7/\\xe5\\xae\\x9e\\xe6\\x88\\x98 1/code/Bank.sol\":1206:1219  msg.value > 0 */\n      gt\n        /* \"\\xe6\\xa8\\xa1\\xe5\\x9d\\x97\\xe4\\xba\\x8c\\xef\\xbc\\x9aSolidity \\xe8\\xaf\\xad\\xe8\\xa8\\x80\\xe7\\x89\\xb9\\xe6\\x80\\xa7/\\xe5\\xae\\x9e\\xe6\\x88\\x98 1/code/Bank.sol\":1198:1261  require(msg.value > 0, \"Deposit amount must be greater than 0\") */\n      tag_67\n      jumpi\n      mload(0x40)\n      0x08c379a000000000000000000000000000000000000000000000000000000000\n      dup2\n      mstore\n      0x04\n      add\n      tag_68\n      swap1\n      tag_69\n      jump\t// in\n    tag_68:\n      mload(0x40)\n      dup1\n      swap2\n      sub\n      swap1\n      revert\n    tag_67:\n        /* \"\\xe6\\xa8\\xa1\\xe5\\x9d\\x97\\xe4\\xba\\x8c\\xef\\xbc\\x9aSolidity \\xe8\\xaf\\xad\\xe8\\xa8\\x80\\xe7\\x89\\xb9\\xe6\\x80\\xa7/\\xe5\\xae\\x9e\\xe6\\x88\\x98 1/code/Bank.sol\":1334:1343  msg.value */\n      callvalue\n        /* \"\\xe6\\xa8\\xa1\\xe5\\x9d\\x97\\xe4\\xba\\x8c\\xef\\xbc\\x9aSolidity \\xe8\\xaf\\xad\\xe8\\xa8\\x80\\xe7\\x89\\xb9\\xe6\\x80\\xa7/\\xe5\\xae\\x9e\\xe6\\x88\\x98 1/code/Bank.sol\":1310:1318  balances */\n      0x01\n        /* \"\\xe6\\xa8\\xa1\\xe5\\x9d\\x97\\xe4\\xba\\x8c\\xef\\xbc\\x9aSolidity \\xe8\\xaf\\xad\\xe8\\xa8\\x80\\xe7\\x89\\xb9\\xe6\\x80\\xa7/\\xe5\\xae\\x9e\\xe6\\x88\\x98 1/code/Bank.sol\":1310:1330  balances[msg.sender] */\n      0x00\n        /* \"\\xe6\\xa8\\xa1\\xe5\\x9d\\x97\\xe4\\xba\\x8c\\xef\\xbc\\x9aSolidity \\xe8\\xaf\\xad\\xe8\\xa8\\x80\\xe7\\x89\\xb9\\xe6\\x80\\xa7/\\xe5\\xae\\x9e\\xe6\\x88\\x98 1/code/Bank.sol\":1319:1329  msg.sender */\n      caller\n        /* \"\\xe6\\xa8\\xa1\\xe5\\x9d\\x97\\xe4\\xba\\x8c\\xef\\xbc\\x9aSolidity \\xe8\\xaf\\xad\\xe8\\xa8\\x80\\xe7\\x89\\xb9\\xe6\\x80\\xa7/\\xe5\\xae\\x9e\\xe6\\x88\\x98 1/code/Bank.sol\":1310:1330  balances[msg.sender] */\n      0xffffffffffffffffffffffffffffffffffffffff\n      and\n      0xffffffffffffffffffffffffffffffffffffffff\n      and\n      dup2\n      mstore\n      0x20\n      add\n      swap1\n      dup2\n      mstore\n      0x20\n      add\n      0x00\n      keccak256\n      0x00\n        /* \"\\xe6\\xa8\\xa1\\xe5\\x9d\\x97\\xe4\\xba\\x8c\\xef\\xbc\\x9aSolidity \\xe8\\xaf\\xad\\xe8\\xa8\\x80\\xe7\\x89\\xb9\\xe6\\x80\\xa7/\\xe5\\xae\\x9e\\xe6\\x88\\x98 1/code/Bank.sol\":1310:1343  balances[msg.sender] += msg.value */\n      dup3\n      dup3\n      sload\n      tag_70\n      swap2\n      swap1\n      tag_71\n      jump\t// in\n    tag_70:\n      swap3\n      pop\n      pop\n      dup2\n      swap1\n      sstore\n      pop\n        /* \"\\xe6\\xa8\\xa1\\xe5\\x9d\\x97\\xe4\\xba\\x8c\\xef\\xbc\\x9aSolidity \\xe8\\xaf\\xad\\xe8\\xa8\\x80\\xe7\\x89\\xb9\\xe6\\x80\\xa7/\\xe5\\xae\\x9e\\xe6\\x88\\x98 1/code/Bank.sol\":1399:1452  updateTopDepositors(msg.sender, balances[msg.sender]) */\n      tag_72\n        /* \"\\xe6\\xa8\\xa1\\xe5\\x9d\\x97\\xe4\\xba\\x8c\\xef\\xbc\\x9aSolidity \\xe8\\xaf\\xad\\xe8\\xa8\\x80\\xe7\\x89\\xb9\\xe6\\x80\\xa7/\\xe5\\xae\\x9e\\xe6\\x88\\x98 1/code/Bank.sol\":1419:1429  msg.sender */\n      caller\n        /* \"\\xe6\\xa8\\xa1\\xe5\\x9d\\x97\\xe4\\xba\\x8c\\xef\\xbc\\x9aSolidity \\xe8\\xaf\\xad\\xe8\\xa8\\x80\\xe7\\x89\\xb9\\xe6\\x80\\xa7/\\xe5\\xae\\x9e\\xe6\\x88\\x98 1/code/Bank.sol\":1431:1439  balances */\n      0x01\n        /* \"\\xe6\\xa8\\xa1\\xe5\\x9d\\x97\\xe4\\xba\\x8c\\xef\\xbc\\x9aSolidity \\xe8\\xaf\\xad\\xe8\\xa8\\x80\\xe7\\x89\\xb9\\xe6\\x80\\xa7/\\xe5\\xae\\x9e\\xe6\\x88\\x98 1/code/Bank.sol\":1431:1451  balances[msg.sender] */\n      0x00\n        /* \"\\xe6\\xa8\\xa1\\xe5\\x9d\\x97\\xe4\\xba\\x8c\\xef\\xbc\\x9aSolidity \\xe8\\xaf\\xad\\xe8\\xa8\\x80\\xe7\\x89\\xb9\\xe6\\x80\\xa7/\\xe5\\xae\\x9e\\xe6\\x88\\x98 1/code/Bank.sol\":1440:1450  msg.sender */\n      caller\n        /* \"\\xe6\\xa8\\xa1\\xe5\\x9d\\x97\\xe4\\xba\\x8c\\xef\\xbc\\x9aSolidity \\xe8\\xaf\\xad\\xe8\\xa8\\x80\\xe7\\x89\\xb9\\xe6\\x80\\xa7/\\xe5\\xae\\x9e\\xe6\\x88\\x98 1/code/Bank.sol\":1431:1451  balances[msg.sender] */\n      0xffffffffffffffffffffffffffffffffffffffff\n      and\n      0xffffffffffffffffffffffffffffffffffffffff\n      and\n      dup2\n      mstore\n      0x20\n      add\n      swap1\n      dup2\n      mstore\n      0x20\n      add\n      0x00\n      keccak256\n      sload\n        /* \"\\xe6\\xa8\\xa1\\xe5\\x9d\\x97\\xe4\\xba\\x8c\\xef\\xbc\\x9aSolidity \\xe8\\xaf\\xad\\xe8\\xa8\\x80\\xe7\\x89\\xb9\\xe6\\x80\\xa7/\\xe5\\xae\\x9e\\xe6\\x88\\x98 1/code/Bank.sol\":1399:1418  updateTopDepositors */\n      tag_73\n        /* \"\\xe6\\xa8\\xa1\\xe5\\x9d\\x97\\xe4\\xba\\x8c\\xef\\xbc\\x9aSolidity \\xe8\\xaf\\xad\\xe8\\xa8\\x80\\xe7\\x89\\xb9\\xe6\\x80\\xa7/\\xe5\\xae\\x9e\\xe6\\x88\\x98 1/code/Bank.sol\":1399:1452  updateTopDepositors(msg.sender, balances[msg.sender]) */\n      jump\t// in\n    tag_72:\n        /* \"\\xe6\\xa8\\xa1\\xe5\\x9d\\x97\\xe4\\xba\\x8c\\xef\\xbc\\x9aSolidity \\xe8\\xaf\\xad\\xe8\\xa8\\x80\\xe7\\x89\\xb9\\xe6\\x80\\xa7/\\xe5\\xae\\x9e\\xe6\\x88\\x98 1/code/Bank.sol\":1514:1524  msg.sender */\n      caller\n        /* \"\\xe6\\xa8\\xa1\\xe5\\x9d\\x97\\xe4\\xba\\x8c\\xef\\xbc\\x9aSolidity \\xe8\\xaf\\xad\\xe8\\xa8\\x80\\xe7\\x89\\xb9\\xe6\\x80\\xa7/\\xe5\\xae\\x9e\\xe6\\x88\\x98 1/code/Bank.sol\":1506:1536  Deposit(msg.sender, msg.value) */\n      0xffffffffffffffffffffffffffffffffffffffff\n      and\n      0xe1fffcc4923d04b559f4d29a8bfc6cda04eb5b0d3c460751c2402c5c5cc9109c\n        /* \"\\xe6\\xa8\\xa1\\xe5\\x9d\\x97\\xe4\\xba\\x8c\\xef\\xbc\\x9aSolidity \\xe8\\xaf\\xad\\xe8\\xa8\\x80\\xe7\\x89\\xb9\\xe6\\x80\\xa7/\\xe5\\xae\\x9e\\xe6\\x88\\x98 1/code/Bank.sol\":1526:1535  msg.value */\n      callvalue\n        /* \"\\xe6\\xa8\\xa1\\xe5\\x9d\\x97\\xe4\\xba\\x8c\\xef\\xbc\\x9aSolidity \\xe8\\xaf\\xad\\xe8\\xa8\\x80\\xe7\\x89\\xb9\\xe6\\x80\\xa7/\\xe5\\xae\\x9e\\xe6\\x88\\x98 1/code/Bank.sol\":1506:1536  Deposit(msg.sender, msg.value) */\n      mload(0x40)\n      tag_74\n      swap2\n      swap1\n      tag_27\n      jump\t// in\n    tag_74:\n      mload(0x40)\n      dup1\n      swap2\n      sub\n      swap1\n      log2\n        /* \"\\xe6\\xa8\\xa1\\xe5\\x9d\\x97\\xe4\\xba\\x8c\\xef\\xbc\\x9aSolidity \\xe8\\xaf\\xad\\xe8\\xa8\\x80\\xe7\\x89\\xb9\\xe6\\x80\\xa7/\\xe5\\xae\\x9e\\xe6\\x88\\x98 1/code/Bank.sol\":1154:1543  function deposit() public payable {... */\n      jump\t// out\n        /* \"\\xe6\\xa8\\xa1\\xe5\\x9d\\x97\\xe4\\xba\\x8c\\xef\\xbc\\x9aSolidity \\xe8\\xaf\\xad\\xe8\\xa8\\x80\\xe7\\x89\\xb9\\xe6\\x80\\xa7/\\xe5\\xae\\x9e\\xe6\\x88\\x98 1/code/Bank.sol\":177:220  mapping(address => uint256) public balances */\n    tag_25:\n      mstore(0x20, 0x01)\n      dup1\n      0x00\n      mstore\n      keccak256(0x00, 0x40)\n      0x00\n      swap2\n      pop\n      swap1\n      pop\n      sload\n      dup2\n      jump\t// out\n        /* \"\\xe6\\xa8\\xa1\\xe5\\x9d\\x97\\xe4\\xba\\x8c\\xef\\xbc\\x9aSolidity \\xe8\\xaf\\xad\\xe8\\xa8\\x80\\xe7\\x89\\xb9\\xe6\\x80\\xa7/\\xe5\\xae\\x9e\\xe6\\x88\\x98 1/code/Bank.sol\":2802:3173  function withdraw(uint256 amount) external onlyAdmin {... */\n    tag_32:\n        /* \"\\xe6\\xa8\\xa1\\xe5\\x9d\\x97\\xe4\\xba\\x8c\\xef\\xbc\\x9aSolidity \\xe8\\xaf\\xad\\xe8\\xa8\\x80\\xe7\\x89\\xb9\\xe6\\x80\\xa7/\\xe5\\xae\\x9e\\xe6\\x88\\x98 1/code/Bank.sol\":724:729  admin */\n      0x00\n      0x00\n      swap1\n      sload\n      swap1\n      0x0100\n      exp\n      swap1\n      div\n      0xffffffffffffffffffffffffffffffffffffffff\n      and\n        /* \"\\xe6\\xa8\\xa1\\xe5\\x9d\\x97\\xe4\\xba\\x8c\\xef\\xbc\\x9aSolidity \\xe8\\xaf\\xad\\xe8\\xa8\\x80\\xe7\\x89\\xb9\\xe6\\x80\\xa7/\\xe5\\xae\\x9e\\xe6\\x88\\x98 1/code/Bank.sol\":710:729  msg.sender == admin */\n      0xffffffffffffffffffffffffffffffffffffffff\n      and\n        /* \"\\xe6\\xa8\\xa1\\xe5\\x9d\\x97\\xe4\\xba\\x8c\\xef\\xbc\\x9aSolidity \\xe8\\xaf\\xad\\xe8\\xa8\\x80\\xe7\\x89\\xb9\\xe6\\x80\\xa7/\\xe5\\xae\\x9e\\xe6\\x88\\x98 1/code/Bank.sol\":710:720  msg.sender */\n      caller\n        /* \"\\xe6\\xa8\\xa1\\xe5\\x9d\\x97\\xe4\\xba\\x8c\\xef\\xbc\\x9aSolidity \\xe8\\xaf\\xad\\xe8\\xa8\\x80\\xe7\\x89\\xb9\\xe6\\x80\\xa7/\\xe5\\xae\\x9e\\xe6\\x88\\x98 1/code/Bank.sol\":710:729  msg.sender == admin */\n      0xffffffffffffffffffffffffffffffffffffffff\n      and\n      eq\n        /* \"\\xe6\\xa8\\xa1\\xe5\\x9d\\x97\\xe4\\xba\\x8c\\xef\\xbc\\x9aSolidity \\xe8\\xaf\\xad\\xe8\\xa8\\x80\\xe7\\x89\\xb9\\xe6\\x80\\xa7/\\xe5\\xae\\x9e\\xe6\\x88\\x98 1/code/Bank.sol\":702:767  require(msg.sender == admin, \"Only admin can call this function\") */\n      tag_76\n      jumpi\n      mload(0x40)\n      0x08c379a000000000000000000000000000000000000000000000000000000000\n      dup2\n      mstore\n      0x04\n      add\n      tag_77\n      swap1\n      tag_78\n      jump\t// in\n    tag_77:\n      mload(0x40)\n      dup1\n      swap2\n      sub\n      swap1\n      revert\n    tag_76:\n        /* \"\\xe6\\xa8\\xa1\\xe5\\x9d\\x97\\xe4\\xba\\x8c\\xef\\xbc\\x9aSolidity \\xe8\\xaf\\xad\\xe8\\xa8\\x80\\xe7\\x89\\xb9\\xe6\\x80\\xa7/\\xe5\\xae\\x9e\\xe6\\x88\\x98 1/code/Bank.sol\":2882:2883  0 */\n      0x00\n        /* \"\\xe6\\xa8\\xa1\\xe5\\x9d\\x97\\xe4\\xba\\x8c\\xef\\xbc\\x9aSolidity \\xe8\\xaf\\xad\\xe8\\xa8\\x80\\xe7\\x89\\xb9\\xe6\\x80\\xa7/\\xe5\\xae\\x9e\\xe6\\x88\\x98 1/code/Bank.sol\":2873:2879  amount */\n      dup2\n        /* \"\\xe6\\xa8\\xa1\\xe5\\x9d\\x97\\xe4\\xba\\x8c\\xef\\xbc\\x9aSolidity \\xe8\\xaf\\xad\\xe8\\xa8\\x80\\xe7\\x89\\xb9\\xe6\\x80\\xa7/\\xe5\\xae\\x9e\\xe6\\x88\\x98 1/code/Bank.sol\":2873:2883  amount > 0 */\n      gt\n        /* \"\\xe6\\xa8\\xa1\\xe5\\x9d\\x97\\xe4\\xba\\x8c\\xef\\xbc\\x9aSolidity \\xe8\\xaf\\xad\\xe8\\xa8\\x80\\xe7\\x89\\xb9\\xe6\\x80\\xa7/\\xe5\\xae\\x9e\\xe6\\x88\\x98 1/code/Bank.sol\":2865:2926  require(amount > 0, \"Withdraw amount must be greater than 0\") */\n      tag_80\n      jumpi\n      mload(0x40)\n      0x08c379a000000000000000000000000000000000000000000000000000000000\n      dup2\n      mstore\n      0x04\n      add\n      tag_81\n      swap1\n      tag_82\n      jump\t// in\n    tag_81:\n      mload(0x40)\n      dup1\n      swap2\n      sub\n      swap1\n      revert\n    tag_80:\n        /* \"\\xe6\\xa8\\xa1\\xe5\\x9d\\x97\\xe4\\xba\\x8c\\xef\\xbc\\x9aSolidity \\xe8\\xaf\\xad\\xe8\\xa8\\x80\\xe7\\x89\\xb9\\xe6\\x80\\xa7/\\xe5\\xae\\x9e\\xe6\\x88\\x98 1/code/Bank.sol\":2969:2975  amount */\n      dup1\n        /* \"\\xe6\\xa8\\xa1\\xe5\\x9d\\x97\\xe4\\xba\\x8c\\xef\\xbc\\x9aSolidity \\xe8\\xaf\\xad\\xe8\\xa8\\x80\\xe7\\x89\\xb9\\xe6\\x80\\xa7/\\xe5\\xae\\x9e\\xe6\\x88\\x98 1/code/Bank.sol\":2944:2965  address(this).balance */\n      selfbalance\n        /* \"\\xe6\\xa8\\xa1\\xe5\\x9d\\x97\\xe4\\xba\\x8c\\xef\\xbc\\x9aSolidity \\xe8\\xaf\\xad\\xe8\\xa8\\x80\\xe7\\x89\\xb9\\xe6\\x80\\xa7/\\xe5\\xae\\x9e\\xe6\\x88\\x98 1/code/Bank.sol\":2944:2975  address(this).balance >= amount */\n      lt\n      iszero\n        /* \"\\xe6\\xa8\\xa1\\xe5\\x9d\\x97\\xe4\\xba\\x8c\\xef\\xbc\\x9aSolidity \\xe8\\xaf\\xad\\xe8\\xa8\\x80\\xe7\\x89\\xb9\\xe6\\x80\\xa7/\\xe5\\xae\\x9e\\xe6\\x88\\x98 1/code/Bank.sol\":2936:3009  require(address(this).balance >= amount, \"Insufficient contract balance\") */\n      tag_83\n      jumpi\n      mload(0x40)\n      0x08c379a000000000000000000000000000000000000000000000000000000000\n      dup2\n      mstore\n      0x04\n      add\n      tag_84\n      swap1\n      tag_85\n      jump\t// in\n    tag_84:\n      mload(0x40)\n      dup1\n      swap2\n      sub\n      swap1\n      revert\n    tag_83:\n        /* \"\\xe6\\xa8\\xa1\\xe5\\x9d\\x97\\xe4\\xba\\x8c\\xef\\xbc\\x9aSolidity \\xe8\\xaf\\xad\\xe8\\xa8\\x80\\xe7\\x89\\xb9\\xe6\\x80\\xa7/\\xe5\\xae\\x9e\\xe6\\x88\\x98 1/code/Bank.sol\":3066:3071  admin */\n      0x00\n      0x00\n      swap1\n      sload\n      swap1\n      0x0100\n      exp\n      swap1\n      div\n      0xffffffffffffffffffffffffffffffffffffffff\n      and\n        /* \"\\xe6\\xa8\\xa1\\xe5\\x9d\\x97\\xe4\\xba\\x8c\\xef\\xbc\\x9aSolidity \\xe8\\xaf\\xad\\xe8\\xa8\\x80\\xe7\\x89\\xb9\\xe6\\x80\\xa7/\\xe5\\xae\\x9e\\xe6\\x88\\x98 1/code/Bank.sol\":3058:3081  payable(admin).transfer */\n      0xffffffffffffffffffffffffffffffffffffffff\n      and\n        /* \"\\xe6\\xa8\\xa1\\xe5\\x9d\\x97\\xe4\\xba\\x8c\\xef\\xbc\\x9aSolidity \\xe8\\xaf\\xad\\xe8\\xa8\\x80\\xe7\\x89\\xb9\\xe6\\x80\\xa7/\\xe5\\xae\\x9e\\xe6\\x88\\x98 1/code/Bank.sol\":3058:3089  payable(admin).transfer(amount) */\n      0x08fc\n        /* \"\\xe6\\xa8\\xa1\\xe5\\x9d\\x97\\xe4\\xba\\x8c\\xef\\xbc\\x9aSolidity \\xe8\\xaf\\xad\\xe8\\xa8\\x80\\xe7\\x89\\xb9\\xe6\\x80\\xa7/\\xe5\\xae\\x9e\\xe6\\x88\\x98 1/code/Bank.sol\":3082:3088  amount */\n      dup3\n        /* \"\\xe6\\xa8\\xa1\\xe5\\x9d\\x97\\xe4\\xba\\x8c\\xef\\xbc\\x9aSolidity \\xe8\\xaf\\xad\\xe8\\xa8\\x80\\xe7\\x89\\xb9\\xe6\\x80\\xa7/\\xe5\\xae\\x9e\\xe6\\x88\\x98 1/code/Bank.sol\":3058:3089  payable(admin).transfer(amount) */\n      swap1\n      dup2\n      iszero\n      mul\n      swap1\n      mload(0x40)\n      0x00\n      mload(0x40)\n      dup1\n      dup4\n      sub\n      dup2\n      dup6\n      dup9\n      dup9\n      call\n      swap4\n      pop\n      pop\n      pop\n      pop\n      iszero\n      dup1\n      iszero\n      tag_87\n      jumpi\n      returndatacopy(0x00, 0x00, returndatasize)\n      revert(0x00, returndatasize)\n    tag_87:\n      pop\n        /* \"\\xe6\\xa8\\xa1\\xe5\\x9d\\x97\\xe4\\xba\\x8c\\xef\\xbc\\x9aSolidity \\xe8\\xaf\\xad\\xe8\\xa8\\x80\\xe7\\x89\\xb9\\xe6\\x80\\xa7/\\xe5\\xae\\x9e\\xe6\\x88\\x98 1/code/Bank.sol\":3152:3157  admin */\n      0x00\n      0x00\n      swap1\n      sload\n      swap1\n      0x0100\n      exp\n      swap1\n      div\n      0xffffffffffffffffffffffffffffffffffffffff\n      and\n        /* \"\\xe6\\xa8\\xa1\\xe5\\x9d\\x97\\xe4\\xba\\x8c\\xef\\xbc\\x9aSolidity \\xe8\\xaf\\xad\\xe8\\xa8\\x80\\xe7\\x89\\xb9\\xe6\\x80\\xa7/\\xe5\\xae\\x9e\\xe6\\x88\\x98 1/code/Bank.sol\":3143:3166  Withdraw(admin, amount) */\n      0xffffffffffffffffffffffffffffffffffffffff\n      and\n      0x884edad9ce6fa2440d8a54cc123490eb96d2768479d49ff9c7366125a9424364\n        /* \"\\xe6\\xa8\\xa1\\xe5\\x9d\\x97\\xe4\\xba\\x8c\\xef\\xbc\\x9aSolidity \\xe8\\xaf\\xad\\xe8\\xa8\\x80\\xe7\\x89\\xb9\\xe6\\x80\\xa7/\\xe5\\xae\\x9e\\xe6\\x88\\x98 1/code/Bank.sol\":3159:3165  amount */\n      dup3\n        /* \"\\xe6\\xa8\\xa1\\xe5\\x9d\\x97\\xe4\\xba\\x8c\\xef\\xbc\\x9aSolidity \\xe8\\xaf\\xad\\xe8\\xa8\\x80\\xe7\\x89\\xb9\\xe6\\x80\\xa7/\\xe5\\xae\\x9e\\xe6\\x88\\x98 1/code/Bank.sol\":3143:3166  Withdraw(admin, amount) */\n      mload(0x40)\n      tag_88\n      swap2\n      swap1\n      tag_27\n      jump\t// in\n    tag_88:\n      mload(0x40)\n      dup1\n      swap2\n      sub\n      swap1\n      log2\n        /* \"\\xe6\\xa8\\xa1\\xe5\\x9d\\x97\\xe4\\xba\\x8c\\xef\\xbc\\x9aSolidity \\xe8\\xaf\\xad\\xe8\\xa8\\x80\\xe7\\x89\\xb9\\xe6\\x80\\xa7/\\xe5\\xae\\x9e\\xe6\\x88\\x98 1/code/Bank.sol\":2802:3173  function withdraw(uint256 amount) external onlyAdmin {... */\n      pop\n      jump\t// out\n        /* \"\\xe6\\xa8\\xa1\\xe5\\x9d\\x97\\xe4\\xba\\x8c\\xef\\xbc\\x9aSolidity \\xe8\\xaf\\xad\\xe8\\xa8\\x80\\xe7\\x89\\xb9\\xe6\\x80\\xa7/\\xe5\\xae\\x9e\\xe6\\x88\\x98 1/code/Bank.sol\":403:439  TopDepositor[3] public topDepositors */\n    tag_36:\n      0x02\n      dup2\n      0x03\n      dup2\n      lt\n      tag_89\n      jumpi\n      0x00\n      dup1\n      revert\n    tag_89:\n      0x02\n      mul\n      add\n      0x00\n      swap2\n      pop\n      swap1\n      pop\n      dup1\n      0x00\n      add\n      0x00\n      swap1\n      sload\n      swap1\n      0x0100\n      exp\n      swap1\n      div\n      0xffffffffffffffffffffffffffffffffffffffff\n      and\n      swap1\n      dup1\n      0x01\n      add\n      sload\n      swap1\n      pop\n      dup3\n      jump\t// out\n        /* \"\\xe6\\xa8\\xa1\\xe5\\x9d\\x97\\xe4\\xba\\x8c\\xef\\xbc\\x9aSolidity \\xe8\\xaf\\xad\\xe8\\xa8\\x80\\xe7\\x89\\xb9\\xe6\\x80\\xa7/\\xe5\\xae\\x9e\\xe6\\x88\\x98 1/code/Bank.sol\":3499:3606  function getContractBalance() external view returns (uint256) {... */\n    tag_41:\n        /* \"\\xe6\\xa8\\xa1\\xe5\\x9d\\x97\\xe4\\xba\\x8c\\xef\\xbc\\x9aSolidity \\xe8\\xaf\\xad\\xe8\\xa8\\x80\\xe7\\x89\\xb9\\xe6\\x80\\xa7/\\xe5\\xae\\x9e\\xe6\\x88\\x98 1/code/Bank.sol\":3552:3559  uint256 */\n      0x00\n        /* \"\\xe6\\xa8\\xa1\\xe5\\x9d\\x97\\xe4\\xba\\x8c\\xef\\xbc\\x9aSolidity \\xe8\\xaf\\xad\\xe8\\xa8\\x80\\xe7\\x89\\xb9\\xe6\\x80\\xa7/\\xe5\\xae\\x9e\\xe6\\x88\\x98 1/code/Bank.sol\":3578:3599  address(this).balance */\n      selfbalance\n        /* \"\\xe6\\xa8\\xa1\\xe5\\x9d\\x97\\xe4\\xba\\x8c\\xef\\xbc\\x9aSolidity \\xe8\\xaf\\xad\\xe8\\xa8\\x80\\xe7\\x89\\xb9\\xe6\\x80\\xa7/\\xe5\\xae\\x9e\\xe6\\x88\\x98 1/code/Bank.sol\":3571:3599  return address(this).balance */\n      swap1\n      pop\n        /* \"\\xe6\\xa8\\xa1\\xe5\\x9d\\x97\\xe4\\xba\\x8c\\xef\\xbc\\x9aSolidity \\xe8\\xaf\\xad\\xe8\\xa8\\x80\\xe7\\x89\\xb9\\xe6\\x80\\xa7/\\xe5\\xae\\x9e\\xe6\\x88\\x98 1/code/Bank.sol\":3499:3606  function getContractBalance() external view returns (uint256) {... */\n      swap1\n      jump\t// out\n        /* \"\\xe6\\xa8\\xa1\\xe5\\x9d\\x97\\xe4\\xba\\x8c\\xef\\xbc\\x9aSolidity \\xe8\\xaf\\xad\\xe8\\xa8\\x80\\xe7\\x89\\xb9\\xe6\\x80\\xa7/\\xe5\\xae\\x9e\\xe6\\x88\\x98 1/code/Bank.sol\":3820:3932  function getTopDepositors() external view returns (TopDepositor[3] memory) {... */\n    tag_45:\n        /* \"\\xe6\\xa8\\xa1\\xe5\\x9d\\x97\\xe4\\xba\\x8c\\xef\\xbc\\x9aSolidity \\xe8\\xaf\\xad\\xe8\\xa8\\x80\\xe7\\x89\\xb9\\xe6\\x80\\xa7/\\xe5\\xae\\x9e\\xe6\\x88\\x98 1/code/Bank.sol\":3871:3893  TopDepositor[3] memory */\n      tag_92\n      tag_93\n      jump\t// in\n    tag_92:\n        /* \"\\xe6\\xa8\\xa1\\xe5\\x9d\\x97\\xe4\\xba\\x8c\\xef\\xbc\\x9aSolidity \\xe8\\xaf\\xad\\xe8\\xa8\\x80\\xe7\\x89\\xb9\\xe6\\x80\\xa7/\\xe5\\xae\\x9e\\xe6\\x88\\x98 1/code/Bank.sol\":3912:3925  topDepositors */\n      0x02\n        /* \"\\xe6\\xa8\\xa1\\xe5\\x9d\\x97\\xe4\\xba\\x8c\\xef\\xbc\\x9aSolidity \\xe8\\xaf\\xad\\xe8\\xa8\\x80\\xe7\\x89\\xb9\\xe6\\x80\\xa7/\\xe5\\xae\\x9e\\xe6\\x88\\x98 1/code/Bank.sol\":3905:3925  return topDepositors */\n      0x03\n      dup1\n      0x20\n      mul\n      mload(0x40)\n      swap1\n      dup2\n      add\n      0x40\n      mstore\n      dup1\n      swap3\n      swap2\n      swap1\n      0x00\n      swap1\n    tag_95:\n      dup3\n      dup3\n      lt\n      iszero\n      tag_96\n      jumpi\n      dup4\n      dup3\n      0x02\n      mul\n      add\n      mload(0x40)\n      dup1\n      0x40\n      add\n      0x40\n      mstore\n      swap1\n      dup2\n      0x00\n      dup3\n      add\n      0x00\n      swap1\n      sload\n      swap1\n      0x0100\n      exp\n      swap1\n      div\n      0xffffffffffffffffffffffffffffffffffffffff\n      and\n      0xffffffffffffffffffffffffffffffffffffffff\n      and\n      0xffffffffffffffffffffffffffffffffffffffff\n      and\n      dup2\n      mstore\n      0x20\n      add\n      0x01\n      dup3\n      add\n      sload\n      dup2\n      mstore\n      pop\n      pop\n      dup2\n      mstore\n      0x20\n      add\n      swap1\n      0x01\n      add\n      swap1\n      jump(tag_95)\n    tag_96:\n      pop\n      pop\n      pop\n      pop\n      swap1\n      pop\n        /* \"\\xe6\\xa8\\xa1\\xe5\\x9d\\x97\\xe4\\xba\\x8c\\xef\\xbc\\x9aSolidity \\xe8\\xaf\\xad\\xe8\\xa8\\x80\\xe7\\x89\\xb9\\xe6\\x80\\xa7/\\xe5\\xae\\x9e\\xe6\\x88\\x98 1/code/Bank.sol\":3820:3932  function getTopDepositors() external view returns (TopDepositor[3] memory) {... */\n      swap1\n      jump\t// out\n        /* \"\\xe6\\xa8\\xa1\\xe5\\x9d\\x97\\xe4\\xba\\x8c\\xef\\xbc\\x9aSolidity \\xe8\\xaf\\xad\\xe8\\xa8\\x80\\xe7\\x89\\xb9\\xe6\\x80\\xa7/\\xe5\\xae\\x9e\\xe6\\x88\\x98 1/code/Bank.sol\":3218:3460  function withdrawAll() external onlyAdmin {... */\n    tag_50:\n        /* \"\\xe6\\xa8\\xa1\\xe5\\x9d\\x97\\xe4\\xba\\x8c\\xef\\xbc\\x9aSolidity \\xe8\\xaf\\xad\\xe8\\xa8\\x80\\xe7\\x89\\xb9\\xe6\\x80\\xa7/\\xe5\\xae\\x9e\\xe6\\x88\\x98 1/code/Bank.sol\":724:729  admin */\n      0x00\n      0x00\n      swap1\n      sload\n      swap1\n      0x0100\n      exp\n      swap1\n      div\n      0xffffffffffffffffffffffffffffffffffffffff\n      and\n        /* \"\\xe6\\xa8\\xa1\\xe5\\x9d\\x97\\xe4\\xba\\x8c\\xef\\xbc\\x9aSolidity \\xe8\\xaf\\xad\\xe8\\xa8\\x80\\xe7\\x89\\xb9\\xe6\\x80\\xa7/\\xe5\\xae\\x9e\\xe6\\x88\\x98 1/code/Bank.sol\":710:729  msg.sender == admin */\n      0xffffffffffffffffffffffffffffffffffffffff\n      and\n        /* \"\\xe6\\xa8\\xa1\\xe5\\x9d\\x97\\xe4\\xba\\x8c\\xef\\xbc\\x9aSolidity \\xe8\\xaf\\xad\\xe8\\xa8\\x80\\xe7\\x89\\xb9\\xe6\\x80\\xa7/\\xe5\\xae\\x9e\\xe6\\x88\\x98 1/code/Bank.sol\":710:720  msg.sender */\n      caller\n        /* \"\\xe6\\xa8\\xa1\\xe5\\x9d\\x97\\xe4\\xba\\x8c\\xef\\xbc\\x9aSolidity \\xe8\\xaf\\xad\\xe8\\xa8\\x80\\xe7\\x89\\xb9\\xe6\\x80\\xa7/\\xe5\\xae\\x9e\\xe6\\x88\\x98 1/code/Bank.sol\":710:729  msg.sender == admin */\n      0xffffffffffffffffffffffffffffffffffffffff\n      and\n      eq\n        /* \"\\xe6\\xa8\\xa1\\xe5\\x9d\\x97\\xe4\\xba\\x8c\\xef\\xbc\\x9aSolidity \\xe8\\xaf\\xad\\xe8\\xa8\\x80\\xe7\\x89\\xb9\\xe6\\x80\\xa7/\\xe5\\xae\\x9e\\xe6\\x88\\x98 1/code/Bank.sol\":702:767  require(msg.sender == admin, \"Only admin can call this function\") */\n      tag_99\n      jumpi\n      mload(0x40)\n      0x08c379a000000000000000000000000000000000000000000000000000000000\n      dup2\n      mstore\n      0x04\n      add\n      tag_100\n      swap1\n      tag_78\n      jump\t// in\n    tag_100:\n      mload(0x40)\n      dup1\n      swap2\n      sub\n      swap1\n      revert\n    tag_99:\n        /* \"\\xe6\\xa8\\xa1\\xe5\\x9d\\x97\\xe4\\xba\\x8c\\xef\\xbc\\x9aSolidity \\xe8\\xaf\\xad\\xe8\\xa8\\x80\\xe7\\x89\\xb9\\xe6\\x80\\xa7/\\xe5\\xae\\x9e\\xe6\\x88\\x98 1/code/Bank.sol\":3270:3285  uint256 balance */\n      0x00\n        /* \"\\xe6\\xa8\\xa1\\xe5\\x9d\\x97\\xe4\\xba\\x8c\\xef\\xbc\\x9aSolidity \\xe8\\xaf\\xad\\xe8\\xa8\\x80\\xe7\\x89\\xb9\\xe6\\x80\\xa7/\\xe5\\xae\\x9e\\xe6\\x88\\x98 1/code/Bank.sol\":3288:3309  address(this).balance */\n      selfbalance\n        /* \"\\xe6\\xa8\\xa1\\xe5\\x9d\\x97\\xe4\\xba\\x8c\\xef\\xbc\\x9aSolidity \\xe8\\xaf\\xad\\xe8\\xa8\\x80\\xe7\\x89\\xb9\\xe6\\x80\\xa7/\\xe5\\xae\\x9e\\xe6\\x88\\x98 1/code/Bank.sol\":3270:3309  uint256 balance = address(this).balance */\n      swap1\n      pop\n        /* \"\\xe6\\xa8\\xa1\\xe5\\x9d\\x97\\xe4\\xba\\x8c\\xef\\xbc\\x9aSolidity \\xe8\\xaf\\xad\\xe8\\xa8\\x80\\xe7\\x89\\xb9\\xe6\\x80\\xa7/\\xe5\\xae\\x9e\\xe6\\x88\\x98 1/code/Bank.sol\":3337:3338  0 */\n      0x00\n        /* \"\\xe6\\xa8\\xa1\\xe5\\x9d\\x97\\xe4\\xba\\x8c\\xef\\xbc\\x9aSolidity \\xe8\\xaf\\xad\\xe8\\xa8\\x80\\xe7\\x89\\xb9\\xe6\\x80\\xa7/\\xe5\\xae\\x9e\\xe6\\x88\\x98 1/code/Bank.sol\":3327:3334  balance */\n      dup2\n        /* \"\\xe6\\xa8\\xa1\\xe5\\x9d\\x97\\xe4\\xba\\x8c\\xef\\xbc\\x9aSolidity \\xe8\\xaf\\xad\\xe8\\xa8\\x80\\xe7\\x89\\xb9\\xe6\\x80\\xa7/\\xe5\\xae\\x9e\\xe6\\x88\\x98 1/code/Bank.sol\":3327:3338  balance > 0 */\n      gt\n        /* \"\\xe6\\xa8\\xa1\\xe5\\x9d\\x97\\xe4\\xba\\x8c\\xef\\xbc\\x9aSolidity \\xe8\\xaf\\xad\\xe8\\xa8\\x80\\xe7\\x89\\xb9\\xe6\\x80\\xa7/\\xe5\\xae\\x9e\\xe6\\x88\\x98 1/code/Bank.sol\":3319:3363  require(balance > 0, \"No funds to withdraw\") */\n      tag_102\n      jumpi\n      mload(0x40)\n      0x08c379a000000000000000000000000000000000000000000000000000000000\n      dup2\n      mstore\n      0x04\n      add\n      tag_103\n      swap1\n      tag_104\n      jump\t// in\n    tag_103:\n      mload(0x40)\n      dup1\n      swap2\n      sub\n      swap1\n      revert\n    tag_102:\n        /* \"\\xe6\\xa8\\xa1\\xe5\\x9d\\x97\\xe4\\xba\\x8c\\xef\\xbc\\x9aSolidity \\xe8\\xaf\\xad\\xe8\\xa8\\x80\\xe7\\x89\\xb9\\xe6\\x80\\xa7/\\xe5\\xae\\x9e\\xe6\\x88\\x98 1/code/Bank.sol\":3390:3395  admin */\n      0x00\n      0x00\n      swap1\n      sload\n      swap1\n      0x0100\n      exp\n      swap1\n      div\n      0xffffffffffffffffffffffffffffffffffffffff\n      and\n        /* \"\\xe6\\xa8\\xa1\\xe5\\x9d\\x97\\xe4\\xba\\x8c\\xef\\xbc\\x9aSolidity \\xe8\\xaf\\xad\\xe8\\xa8\\x80\\xe7\\x89\\xb9\\xe6\\x80\\xa7/\\xe5\\xae\\x9e\\xe6\\x88\\x98 1/code/Bank.sol\":3382:3405  payable(admin).transfer */\n      0xffffffffffffffffffffffffffffffffffffffff\n      and\n        /* \"\\xe6\\xa8\\xa1\\xe5\\x9d\\x97\\xe4\\xba\\x8c\\xef\\xbc\\x9aSolidity \\xe8\\xaf\\xad\\xe8\\xa8\\x80\\xe7\\x89\\xb9\\xe6\\x80\\xa7/\\xe5\\xae\\x9e\\xe6\\x88\\x98 1/code/Bank.sol\":3382:3414  payable(admin).transfer(balance) */\n      0x08fc\n        /* \"\\xe6\\xa8\\xa1\\xe5\\x9d\\x97\\xe4\\xba\\x8c\\xef\\xbc\\x9aSolidity \\xe8\\xaf\\xad\\xe8\\xa8\\x80\\xe7\\x89\\xb9\\xe6\\x80\\xa7/\\xe5\\xae\\x9e\\xe6\\x88\\x98 1/code/Bank.sol\":3406:3413  balance */\n      dup3\n        /* \"\\xe6\\xa8\\xa1\\xe5\\x9d\\x97\\xe4\\xba\\x8c\\xef\\xbc\\x9aSolidity \\xe8\\xaf\\xad\\xe8\\xa8\\x80\\xe7\\x89\\xb9\\xe6\\x80\\xa7/\\xe5\\xae\\x9e\\xe6\\x88\\x98 1/code/Bank.sol\":3382:3414  payable(admin).transfer(balance) */\n      swap1\n      dup2\n      iszero\n      mul\n      swap1\n      mload(0x40)\n      0x00\n      mload(0x40)\n      dup1\n      dup4\n      sub\n      dup2\n      dup6\n      dup9\n      dup9\n      call\n      swap4\n      pop\n      pop\n      pop\n      pop\n      iszero\n      dup1\n      iszero\n      tag_106\n      jumpi\n      returndatacopy(0x00, 0x00, returndatasize)\n      revert(0x00, returndatasize)\n    tag_106:\n      pop\n        /* \"\\xe6\\xa8\\xa1\\xe5\\x9d\\x97\\xe4\\xba\\x8c\\xef\\xbc\\x9aSolidity \\xe8\\xaf\\xad\\xe8\\xa8\\x80\\xe7\\x89\\xb9\\xe6\\x80\\xa7/\\xe5\\xae\\x9e\\xe6\\x88\\x98 1/code/Bank.sol\":3438:3443  admin */\n      0x00\n      0x00\n      swap1\n      sload\n      swap1\n      0x0100\n      exp\n      swap1\n      div\n      0xffffffffffffffffffffffffffffffffffffffff\n      and\n        /* \"\\xe6\\xa8\\xa1\\xe5\\x9d\\x97\\xe4\\xba\\x8c\\xef\\xbc\\x9aSolidity \\xe8\\xaf\\xad\\xe8\\xa8\\x80\\xe7\\x89\\xb9\\xe6\\x80\\xa7/\\xe5\\xae\\x9e\\xe6\\x88\\x98 1/code/Bank.sol\":3429:3453  Withdraw(admin, balance) */\n      0xffffffffffffffffffffffffffffffffffffffff\n      and\n      0x884edad9ce6fa2440d8a54cc123490eb96d2768479d49ff9c7366125a9424364\n        /* \"\\xe6\\xa8\\xa1\\xe5\\x9d\\x97\\xe4\\xba\\x8c\\xef\\xbc\\x9aSolidity \\xe8\\xaf\\xad\\xe8\\xa8\\x80\\xe7\\x89\\xb9\\xe6\\x80\\xa7/\\xe5\\xae\\x9e\\xe6\\x88\\x98 1/code/Bank.sol\":3445:3452  balance */\n      dup3\n        /* \"\\xe6\\xa8\\xa1\\xe5\\x9d\\x97\\xe4\\xba\\x8c\\xef\\xbc\\x9aSolidity \\xe8\\xaf\\xad\\xe8\\xa8\\x80\\xe7\\x89\\xb9\\xe6\\x80\\xa7/\\xe5\\xae\\x9e\\xe6\\x88\\x98 1/code/Bank.sol\":3429:3453  Withdraw(admin, balance) */\n      mload(0x40)\n      tag_107\n      swap2\n      swap1\n      tag_27\n      jump\t// in\n    tag_107:\n      mload(0x40)\n      dup1\n      swap2\n      sub\n      swap1\n      log2\n        /* \"\\xe6\\xa8\\xa1\\xe5\\x9d\\x97\\xe4\\xba\\x8c\\xef\\xbc\\x9aSolidity \\xe8\\xaf\\xad\\xe8\\xa8\\x80\\xe7\\x89\\xb9\\xe6\\x80\\xa7/\\xe5\\xae\\x9e\\xe6\\x88\\x98 1/code/Bank.sol\":3260:3460  {... */\n      pop\n        /* \"\\xe6\\xa8\\xa1\\xe5\\x9d\\x97\\xe4\\xba\\x8c\\xef\\xbc\\x9aSolidity \\xe8\\xaf\\xad\\xe8\\xa8\\x80\\xe7\\x89\\xb9\\xe6\\x80\\xa7/\\xe5\\xae\\x9e\\xe6\\x88\\x98 1/code/Bank.sol\":3218:3460  function withdrawAll() external onlyAdmin {... */\n      jump\t// out\n        /* \"\\xe6\\xa8\\xa1\\xe5\\x9d\\x97\\xe4\\xba\\x8c\\xef\\xbc\\x9aSolidity \\xe8\\xaf\\xad\\xe8\\xa8\\x80\\xe7\\x89\\xb9\\xe6\\x80\\xa7/\\xe5\\xae\\x9e\\xe6\\x88\\x98 1/code/Bank.sol\":4004:4172  function changeAdmin(address newAdmin) external onlyAdmin {... */\n    tag_54:\n        /* \"\\xe6\\xa8\\xa1\\xe5\\x9d\\x97\\xe4\\xba\\x8c\\xef\\xbc\\x9aSolidity \\xe8\\xaf\\xad\\xe8\\xa8\\x80\\xe7\\x89\\xb9\\xe6\\x80\\xa7/\\xe5\\xae\\x9e\\xe6\\x88\\x98 1/code/Bank.sol\":724:729  admin */\n      0x00\n      0x00\n      swap1\n      sload\n      swap1\n      0x0100\n      exp\n      swap1\n      div\n      0xffffffffffffffffffffffffffffffffffffffff\n      and\n        /* \"\\xe6\\xa8\\xa1\\xe5\\x9d\\x97\\xe4\\xba\\x8c\\xef\\xbc\\x9aSolidity \\xe8\\xaf\\xad\\xe8\\xa8\\x80\\xe7\\x89\\xb9\\xe6\\x80\\xa7/\\xe5\\xae\\x9e\\xe6\\x88\\x98 1/code/Bank.sol\":710:729  msg.sender == admin */\n      0xffffffffffffffffffffffffffffffffffffffff\n      and\n        /* \"\\xe6\\xa8\\xa1\\xe5\\x9d\\x97\\xe4\\xba\\x8c\\xef\\xbc\\x9aSolidity \\xe8\\xaf\\xad\\xe8\\xa8\\x80\\xe7\\x89\\xb9\\xe6\\x80\\xa7/\\xe5\\xae\\x9e\\xe6\\x88\\x98 1/code/Bank.sol\":710:720  msg.sender */\n      caller\n        /* \"\\xe6\\xa8\\xa1\\xe5\\x9d\\x97\\xe4\\xba\\x8c\\xef\\xbc\\x9aSolidity \\xe8\\xaf\\xad\\xe8\\xa8\\x80\\xe7\\x89\\xb9\\xe6\\x80\\xa7/\\xe5\\xae\\x9e\\xe6\\x88\\x98 1/code/Bank.sol\":710:729  msg.sender == admin */\n      0xffffffffffffffffffffffffffffffffffffffff\n      and\n      eq\n        /* \"\\xe6\\xa8\\xa1\\xe5\\x9d\\x97\\xe4\\xba\\x8c\\xef\\xbc\\x9aSolidity \\xe8\\xaf\\xad\\xe8\\xa8\\x80\\xe7\\x89\\xb9\\xe6\\x80\\xa7/\\xe5\\xae\\x9e\\xe6\\x88\\x98 1/code/Bank.sol\":702:767  require(msg.sender == admin, \"Only admin can call this function\") */\n      tag_109\n      jumpi\n      mload(0x40)\n      0x08c379a000000000000000000000000000000000000000000000000000000000\n      dup2\n      mstore\n      0x04\n      add\n      tag_110\n      swap1\n      tag_78\n      jump\t// in\n    tag_110:\n      mload(0x40)\n      dup1\n      swap2\n      sub\n      swap1\n      revert\n    tag_109:\n        /* \"\\xe6\\xa8\\xa1\\xe5\\x9d\\x97\\xe4\\xba\\x8c\\xef\\xbc\\x9aSolidity \\xe8\\xaf\\xad\\xe8\\xa8\\x80\\xe7\\x89\\xb9\\xe6\\x80\\xa7/\\xe5\\xae\\x9e\\xe6\\x88\\x98 1/code/Bank.sol\":4100:4101  0 */\n      0x00\n        /* \"\\xe6\\xa8\\xa1\\xe5\\x9d\\x97\\xe4\\xba\\x8c\\xef\\xbc\\x9aSolidity \\xe8\\xaf\\xad\\xe8\\xa8\\x80\\xe7\\x89\\xb9\\xe6\\x80\\xa7/\\xe5\\xae\\x9e\\xe6\\x88\\x98 1/code/Bank.sol\":4080:4102  newAdmin != address(0) */\n      0xffffffffffffffffffffffffffffffffffffffff\n      and\n        /* \"\\xe6\\xa8\\xa1\\xe5\\x9d\\x97\\xe4\\xba\\x8c\\xef\\xbc\\x9aSolidity \\xe8\\xaf\\xad\\xe8\\xa8\\x80\\xe7\\x89\\xb9\\xe6\\x80\\xa7/\\xe5\\xae\\x9e\\xe6\\x88\\x98 1/code/Bank.sol\":4080:4088  newAdmin */\n      dup2\n        /* \"\\xe6\\xa8\\xa1\\xe5\\x9d\\x97\\xe4\\xba\\x8c\\xef\\xbc\\x9aSolidity \\xe8\\xaf\\xad\\xe8\\xa8\\x80\\xe7\\x89\\xb9\\xe6\\x80\\xa7/\\xe5\\xae\\x9e\\xe6\\x88\\x98 1/code/Bank.sol\":4080:4102  newAdmin != address(0) */\n      0xffffffffffffffffffffffffffffffffffffffff\n      and\n      sub\n        /* \"\\xe6\\xa8\\xa1\\xe5\\x9d\\x97\\xe4\\xba\\x8c\\xef\\xbc\\x9aSolidity \\xe8\\xaf\\xad\\xe8\\xa8\\x80\\xe7\\x89\\xb9\\xe6\\x80\\xa7/\\xe5\\xae\\x9e\\xe6\\x88\\x98 1/code/Bank.sol\":4072:4139  require(newAdmin != address(0), \"New admin cannot be zero address\") */\n      tag_112\n      jumpi\n      mload(0x40)\n      0x08c379a000000000000000000000000000000000000000000000000000000000\n      dup2\n      mstore\n      0x04\n      add\n      tag_113\n      swap1\n      tag_114\n      jump\t// in\n    tag_113:\n      mload(0x40)\n      dup1\n      swap2\n      sub\n      swap1\n      revert\n    tag_112:\n        /* \"\\xe6\\xa8\\xa1\\xe5\\x9d\\x97\\xe4\\xba\\x8c\\xef\\xbc\\x9aSolidity \\xe8\\xaf\\xad\\xe8\\xa8\\x80\\xe7\\x89\\xb9\\xe6\\x80\\xa7/\\xe5\\xae\\x9e\\xe6\\x88\\x98 1/code/Bank.sol\":4157:4165  newAdmin */\n      dup1\n        /* \"\\xe6\\xa8\\xa1\\xe5\\x9d\\x97\\xe4\\xba\\x8c\\xef\\xbc\\x9aSolidity \\xe8\\xaf\\xad\\xe8\\xa8\\x80\\xe7\\x89\\xb9\\xe6\\x80\\xa7/\\xe5\\xae\\x9e\\xe6\\x88\\x98 1/code/Bank.sol\":4149:4154  admin */\n      0x00\n      0x00\n        /* \"\\xe6\\xa8\\xa1\\xe5\\x9d\\x97\\xe4\\xba\\x8c\\xef\\xbc\\x9aSolidity \\xe8\\xaf\\xad\\xe8\\xa8\\x80\\xe7\\x89\\xb9\\xe6\\x80\\xa7/\\xe5\\xae\\x9e\\xe6\\x88\\x98 1/code/Bank.sol\":4149:4165  admin = newAdmin */\n      0x0100\n      exp\n      dup2\n      sload\n      dup2\n      0xffffffffffffffffffffffffffffffffffffffff\n      mul\n      not\n      and\n      swap1\n      dup4\n      0xffffffffffffffffffffffffffffffffffffffff\n      and\n      mul\n      or\n      swap1\n      sstore\n      pop\n        /* \"\\xe6\\xa8\\xa1\\xe5\\x9d\\x97\\xe4\\xba\\x8c\\xef\\xbc\\x9aSolidity \\xe8\\xaf\\xad\\xe8\\xa8\\x80\\xe7\\x89\\xb9\\xe6\\x80\\xa7/\\xe5\\xae\\x9e\\xe6\\x88\\x98 1/code/Bank.sol\":4004:4172  function changeAdmin(address newAdmin) external onlyAdmin {... */\n      pop\n      jump\t// out\n        /* \"\\xe6\\xa8\\xa1\\xe5\\x9d\\x97\\xe4\\xba\\x8c\\xef\\xbc\\x9aSolidity \\xe8\\xaf\\xad\\xe8\\xa8\\x80\\xe7\\x89\\xb9\\xe6\\x80\\xa7/\\xe5\\xae\\x9e\\xe6\\x88\\x98 1/code/Bank.sol\":105:125  address public admin */\n    tag_58:\n      0x00\n      0x00\n      swap1\n      sload\n      swap1\n      0x0100\n      exp\n      swap1\n      div\n      0xffffffffffffffffffffffffffffffffffffffff\n      and\n      dup2\n      jump\t// out\n        /* \"\\xe6\\xa8\\xa1\\xe5\\x9d\\x97\\xe4\\xba\\x8c\\xef\\xbc\\x9aSolidity \\xe8\\xaf\\xad\\xe8\\xa8\\x80\\xe7\\x89\\xb9\\xe6\\x80\\xa7/\\xe5\\xae\\x9e\\xe6\\x88\\x98 1/code/Bank.sol\":3657:3771  function getBalance(address depositor) external view returns (uint256) {... */\n    tag_64:\n        /* \"\\xe6\\xa8\\xa1\\xe5\\x9d\\x97\\xe4\\xba\\x8c\\xef\\xbc\\x9aSolidity \\xe8\\xaf\\xad\\xe8\\xa8\\x80\\xe7\\x89\\xb9\\xe6\\x80\\xa7/\\xe5\\xae\\x9e\\xe6\\x88\\x98 1/code/Bank.sol\":3719:3726  uint256 */\n      0x00\n        /* \"\\xe6\\xa8\\xa1\\xe5\\x9d\\x97\\xe4\\xba\\x8c\\xef\\xbc\\x9aSolidity \\xe8\\xaf\\xad\\xe8\\xa8\\x80\\xe7\\x89\\xb9\\xe6\\x80\\xa7/\\xe5\\xae\\x9e\\xe6\\x88\\x98 1/code/Bank.sol\":3745:3753  balances */\n      0x01\n        /* \"\\xe6\\xa8\\xa1\\xe5\\x9d\\x97\\xe4\\xba\\x8c\\xef\\xbc\\x9aSolidity \\xe8\\xaf\\xad\\xe8\\xa8\\x80\\xe7\\x89\\xb9\\xe6\\x80\\xa7/\\xe5\\xae\\x9e\\xe6\\x88\\x98 1/code/Bank.sol\":3745:3764  balances[depositor] */\n      0x00\n        /* \"\\xe6\\xa8\\xa1\\xe5\\x9d\\x97\\xe4\\xba\\x8c\\xef\\xbc\\x9aSolidity \\xe8\\xaf\\xad\\xe8\\xa8\\x80\\xe7\\x89\\xb9\\xe6\\x80\\xa7/\\xe5\\xae\\x9e\\xe6\\x88\\x98 1/code/Bank.sol\":3754:3763  depositor */\n      dup4\n        /* \"\\xe6\\xa8\\xa1\\xe5\\x9d\\x97\\xe4\\xba\\x8c\\xef\\xbc\\x9aSolidity \\xe8\\xaf\\xad\\xe8\\xa8\\x80\\xe7\\x89\\xb9\\xe6\\x80\\xa7/\\xe5\\xae\\x9e\\xe6\\x88\\x98 1/code/Bank.sol\":3745:3764  balances[depositor] */\n      0xffffffffffffffffffffffffffffffffffffffff\n      and\n      0xffffffffffffffffffffffffffffffffffffffff\n      and\n      dup2\n      mstore\n      0x20\n      add\n      swap1\n      dup2\n      mstore\n      0x20\n      add\n      0x00\n      keccak256\n      sload\n        /* \"\\xe6\\xa8\\xa1\\xe5\\x9d\\x97\\xe4\\xba\\x8c\\xef\\xbc\\x9aSolidity \\xe8\\xaf\\xad\\xe8\\xa8\\x80\\xe7\\x89\\xb9\\xe6\\x80\\xa7/\\xe5\\xae\\x9e\\xe6\\x88\\x98 1/code/Bank.sol\":3738:3764  return balances[depositor] */\n      swap1\n      pop\n        /* \"\\xe6\\xa8\\xa1\\xe5\\x9d\\x97\\xe4\\xba\\x8c\\xef\\xbc\\x9aSolidity \\xe8\\xaf\\xad\\xe8\\xa8\\x80\\xe7\\x89\\xb9\\xe6\\x80\\xa7/\\xe5\\xae\\x9e\\xe6\\x88\\x98 1/code/Bank.sol\":3657:3771  function getBalance(address depositor) external view returns (uint256) {... */\n      swap2\n      swap1\n      pop\n      jump\t// out\n        /* \"\\xe6\\xa8\\xa1\\xe5\\x9d\\x97\\xe4\\xba\\x8c\\xef\\xbc\\x9aSolidity \\xe8\\xaf\\xad\\xe8\\xa8\\x80\\xe7\\x89\\xb9\\xe6\\x80\\xa7/\\xe5\\xae\\x9e\\xe6\\x88\\x98 1/code/Bank.sol\":1601:2280  function updateTopDepositors(address depositor, uint256 newAmount) internal {... */\n    tag_73:\n        /* \"\\xe6\\xa8\\xa1\\xe5\\x9d\\x97\\xe4\\xba\\x8c\\xef\\xbc\\x9aSolidity \\xe8\\xaf\\xad\\xe8\\xa8\\x80\\xe7\\x89\\xb9\\xe6\\x80\\xa7/\\xe5\\xae\\x9e\\xe6\\x88\\x98 1/code/Bank.sol\":1735:1741  uint i */\n      0x00\n        /* \"\\xe6\\xa8\\xa1\\xe5\\x9d\\x97\\xe4\\xba\\x8c\\xef\\xbc\\x9aSolidity \\xe8\\xaf\\xad\\xe8\\xa8\\x80\\xe7\\x89\\xb9\\xe6\\x80\\xa7/\\xe5\\xae\\x9e\\xe6\\x88\\x98 1/code/Bank.sol\":1744:1745  0 */\n      0x00\n        /* \"\\xe6\\xa8\\xa1\\xe5\\x9d\\x97\\xe4\\xba\\x8c\\xef\\xbc\\x9aSolidity \\xe8\\xaf\\xad\\xe8\\xa8\\x80\\xe7\\x89\\xb9\\xe6\\x80\\xa7/\\xe5\\xae\\x9e\\xe6\\x88\\x98 1/code/Bank.sol\":1735:1745  uint i = 0 */\n      swap1\n      pop\n        /* \"\\xe6\\xa8\\xa1\\xe5\\x9d\\x97\\xe4\\xba\\x8c\\xef\\xbc\\x9aSolidity \\xe8\\xaf\\xad\\xe8\\xa8\\x80\\xe7\\x89\\xb9\\xe6\\x80\\xa7/\\xe5\\xae\\x9e\\xe6\\x88\\x98 1/code/Bank.sol\":1730:2002  for (uint i = 0; i < 3; i++) {... */\n    tag_117:\n        /* \"\\xe6\\xa8\\xa1\\xe5\\x9d\\x97\\xe4\\xba\\x8c\\xef\\xbc\\x9aSolidity \\xe8\\xaf\\xad\\xe8\\xa8\\x80\\xe7\\x89\\xb9\\xe6\\x80\\xa7/\\xe5\\xae\\x9e\\xe6\\x88\\x98 1/code/Bank.sol\":1751:1752  3 */\n      0x03\n        /* \"\\xe6\\xa8\\xa1\\xe5\\x9d\\x97\\xe4\\xba\\x8c\\xef\\xbc\\x9aSolidity \\xe8\\xaf\\xad\\xe8\\xa8\\x80\\xe7\\x89\\xb9\\xe6\\x80\\xa7/\\xe5\\xae\\x9e\\xe6\\x88\\x98 1/code/Bank.sol\":1747:1748  i */\n      dup2\n        /* \"\\xe6\\xa8\\xa1\\xe5\\x9d\\x97\\xe4\\xba\\x8c\\xef\\xbc\\x9aSolidity \\xe8\\xaf\\xad\\xe8\\xa8\\x80\\xe7\\x89\\xb9\\xe6\\x80\\xa7/\\xe5\\xae\\x9e\\xe6\\x88\\x98 1/code/Bank.sol\":1747:1752  i < 3 */\n      lt\n        /* \"\\xe6\\xa8\\xa1\\xe5\\x9d\\x97\\xe4\\xba\\x8c\\xef\\xbc\\x9aSolidity \\xe8\\xaf\\xad\\xe8\\xa8\\x80\\xe7\\x89\\xb9\\xe6\\x80\\xa7/\\xe5\\xae\\x9e\\xe6\\x88\\x98 1/code/Bank.sol\":1730:2002  for (uint i = 0; i < 3; i++) {... */\n      iszero\n      tag_118\n      jumpi\n        /* \"\\xe6\\xa8\\xa1\\xe5\\x9d\\x97\\xe4\\xba\\x8c\\xef\\xbc\\x9aSolidity \\xe8\\xaf\\xad\\xe8\\xa8\\x80\\xe7\\x89\\xb9\\xe6\\x80\\xa7/\\xe5\\xae\\x9e\\xe6\\x88\\x98 1/code/Bank.sol\":1807:1816  depositor */\n      dup3\n        /* \"\\xe6\\xa8\\xa1\\xe5\\x9d\\x97\\xe4\\xba\\x8c\\xef\\xbc\\x9aSolidity \\xe8\\xaf\\xad\\xe8\\xa8\\x80\\xe7\\x89\\xb9\\xe6\\x80\\xa7/\\xe5\\xae\\x9e\\xe6\\x88\\x98 1/code/Bank.sol\":1777:1816  topDepositors[i].depositor == depositor */\n      0xffffffffffffffffffffffffffffffffffffffff\n      and\n        /* \"\\xe6\\xa8\\xa1\\xe5\\x9d\\x97\\xe4\\xba\\x8c\\xef\\xbc\\x9aSolidity \\xe8\\xaf\\xad\\xe8\\xa8\\x80\\xe7\\x89\\xb9\\xe6\\x80\\xa7/\\xe5\\xae\\x9e\\xe6\\x88\\x98 1/code/Bank.sol\":1777:1790  topDepositors */\n      0x02\n        /* \"\\xe6\\xa8\\xa1\\xe5\\x9d\\x97\\xe4\\xba\\x8c\\xef\\xbc\\x9aSolidity \\xe8\\xaf\\xad\\xe8\\xa8\\x80\\xe7\\x89\\xb9\\xe6\\x80\\xa7/\\xe5\\xae\\x9e\\xe6\\x88\\x98 1/code/Bank.sol\":1791:1792  i */\n      dup3\n        /* \"\\xe6\\xa8\\xa1\\xe5\\x9d\\x97\\xe4\\xba\\x8c\\xef\\xbc\\x9aSolidity \\xe8\\xaf\\xad\\xe8\\xa8\\x80\\xe7\\x89\\xb9\\xe6\\x80\\xa7/\\xe5\\xae\\x9e\\xe6\\x88\\x98 1/code/Bank.sol\":1777:1793  topDepositors[i] */\n      0x03\n      dup2\n      lt\n      tag_120\n      jumpi\n      tag_121\n      tag_122\n      jump\t// in\n    tag_121:\n    tag_120:\n      0x02\n      mul\n      add\n        /* \"\\xe6\\xa8\\xa1\\xe5\\x9d\\x97\\xe4\\xba\\x8c\\xef\\xbc\\x9aSolidity \\xe8\\xaf\\xad\\xe8\\xa8\\x80\\xe7\\x89\\xb9\\xe6\\x80\\xa7/\\xe5\\xae\\x9e\\xe6\\x88\\x98 1/code/Bank.sol\":1777:1803  topDepositors[i].depositor */\n      0x00\n      add\n      0x00\n      swap1\n      sload\n      swap1\n      0x0100\n      exp\n      swap1\n      div\n      0xffffffffffffffffffffffffffffffffffffffff\n      and\n        /* \"\\xe6\\xa8\\xa1\\xe5\\x9d\\x97\\xe4\\xba\\x8c\\xef\\xbc\\x9aSolidity \\xe8\\xaf\\xad\\xe8\\xa8\\x80\\xe7\\x89\\xb9\\xe6\\x80\\xa7/\\xe5\\xae\\x9e\\xe6\\x88\\x98 1/code/Bank.sol\":1777:1816  topDepositors[i].depositor == depositor */\n      0xffffffffffffffffffffffffffffffffffffffff\n      and\n      sub\n        /* \"\\xe6\\xa8\\xa1\\xe5\\x9d\\x97\\xe4\\xba\\x8c\\xef\\xbc\\x9aSolidity \\xe8\\xaf\\xad\\xe8\\xa8\\x80\\xe7\\x89\\xb9\\xe6\\x80\\xa7/\\xe5\\xae\\x9e\\xe6\\x88\\x98 1/code/Bank.sol\":1773:1992  if (topDepositors[i].depositor == depositor) {... */\n      tag_124\n      jumpi\n        /* \"\\xe6\\xa8\\xa1\\xe5\\x9d\\x97\\xe4\\xba\\x8c\\xef\\xbc\\x9aSolidity \\xe8\\xaf\\xad\\xe8\\xa8\\x80\\xe7\\x89\\xb9\\xe6\\x80\\xa7/\\xe5\\xae\\x9e\\xe6\\x88\\x98 1/code/Bank.sol\":1862:1871  newAmount */\n      dup2\n        /* \"\\xe6\\xa8\\xa1\\xe5\\x9d\\x97\\xe4\\xba\\x8c\\xef\\xbc\\x9aSolidity \\xe8\\xaf\\xad\\xe8\\xa8\\x80\\xe7\\x89\\xb9\\xe6\\x80\\xa7/\\xe5\\xae\\x9e\\xe6\\x88\\x98 1/code/Bank.sol\":1836:1849  topDepositors */\n      0x02\n        /* \"\\xe6\\xa8\\xa1\\xe5\\x9d\\x97\\xe4\\xba\\x8c\\xef\\xbc\\x9aSolidity \\xe8\\xaf\\xad\\xe8\\xa8\\x80\\xe7\\x89\\xb9\\xe6\\x80\\xa7/\\xe5\\xae\\x9e\\xe6\\x88\\x98 1/code/Bank.sol\":1850:1851  i */\n      dup3\n        /* \"\\xe6\\xa8\\xa1\\xe5\\x9d\\x97\\xe4\\xba\\x8c\\xef\\xbc\\x9aSolidity \\xe8\\xaf\\xad\\xe8\\xa8\\x80\\xe7\\x89\\xb9\\xe6\\x80\\xa7/\\xe5\\xae\\x9e\\xe6\\x88\\x98 1/code/Bank.sol\":1836:1852  topDepositors[i] */\n      0x03\n      dup2\n      lt\n      tag_125\n      jumpi\n      tag_126\n      tag_122\n      jump\t// in\n    tag_126:\n    tag_125:\n      0x02\n      mul\n      add\n        /* \"\\xe6\\xa8\\xa1\\xe5\\x9d\\x97\\xe4\\xba\\x8c\\xef\\xbc\\x9aSolidity \\xe8\\xaf\\xad\\xe8\\xa8\\x80\\xe7\\x89\\xb9\\xe6\\x80\\xa7/\\xe5\\xae\\x9e\\xe6\\x88\\x98 1/code/Bank.sol\":1836:1859  topDepositors[i].amount */\n      0x01\n      add\n        /* \"\\xe6\\xa8\\xa1\\xe5\\x9d\\x97\\xe4\\xba\\x8c\\xef\\xbc\\x9aSolidity \\xe8\\xaf\\xad\\xe8\\xa8\\x80\\xe7\\x89\\xb9\\xe6\\x80\\xa7/\\xe5\\xae\\x9e\\xe6\\x88\\x98 1/code/Bank.sol\":1836:1871  topDepositors[i].amount = newAmount */\n      dup2\n      swap1\n      sstore\n      pop\n        /* \"\\xe6\\xa8\\xa1\\xe5\\x9d\\x97\\xe4\\xba\\x8c\\xef\\xbc\\x9aSolidity \\xe8\\xaf\\xad\\xe8\\xa8\\x80\\xe7\\x89\\xb9\\xe6\\x80\\xa7/\\xe5\\xae\\x9e\\xe6\\x88\\x98 1/code/Bank.sol\":1889:1908  sortTopDepositors() */\n      tag_128\n        /* \"\\xe6\\xa8\\xa1\\xe5\\x9d\\x97\\xe4\\xba\\x8c\\xef\\xbc\\x9aSolidity \\xe8\\xaf\\xad\\xe8\\xa8\\x80\\xe7\\x89\\xb9\\xe6\\x80\\xa7/\\xe5\\xae\\x9e\\xe6\\x88\\x98 1/code/Bank.sol\":1889:1906  sortTopDepositors */\n      tag_129\n        /* \"\\xe6\\xa8\\xa1\\xe5\\x9d\\x97\\xe4\\xba\\x8c\\xef\\xbc\\x9aSolidity \\xe8\\xaf\\xad\\xe8\\xa8\\x80\\xe7\\x89\\xb9\\xe6\\x80\\xa7/\\xe5\\xae\\x9e\\xe6\\x88\\x98 1/code/Bank.sol\":1889:1908  sortTopDepositors() */\n      jump\t// in\n    tag_128:\n        /* \"\\xe6\\xa8\\xa1\\xe5\\x9d\\x97\\xe4\\xba\\x8c\\xef\\xbc\\x9aSolidity \\xe8\\xaf\\xad\\xe8\\xa8\\x80\\xe7\\x89\\xb9\\xe6\\x80\\xa7/\\xe5\\xae\\x9e\\xe6\\x88\\x98 1/code/Bank.sol\":1931:1953  TopDepositorsUpdated() */\n      0x836bf56a9e2bd785315ac92d9f5209b1247f4e0184c58f743355e01d47e51c3b\n      mload(0x40)\n      mload(0x40)\n      dup1\n      swap2\n      sub\n      swap1\n      log1\n        /* \"\\xe6\\xa8\\xa1\\xe5\\x9d\\x97\\xe4\\xba\\x8c\\xef\\xbc\\x9aSolidity \\xe8\\xaf\\xad\\xe8\\xa8\\x80\\xe7\\x89\\xb9\\xe6\\x80\\xa7/\\xe5\\xae\\x9e\\xe6\\x88\\x98 1/code/Bank.sol\":1971:1978  return; */\n      pop\n      jump(tag_116)\n        /* \"\\xe6\\xa8\\xa1\\xe5\\x9d\\x97\\xe4\\xba\\x8c\\xef\\xbc\\x9aSolidity \\xe8\\xaf\\xad\\xe8\\xa8\\x80\\xe7\\x89\\xb9\\xe6\\x80\\xa7/\\xe5\\xae\\x9e\\xe6\\x88\\x98 1/code/Bank.sol\":1773:1992  if (topDepositors[i].depositor == depositor) {... */\n    tag_124:\n        /* \"\\xe6\\xa8\\xa1\\xe5\\x9d\\x97\\xe4\\xba\\x8c\\xef\\xbc\\x9aSolidity \\xe8\\xaf\\xad\\xe8\\xa8\\x80\\xe7\\x89\\xb9\\xe6\\x80\\xa7/\\xe5\\xae\\x9e\\xe6\\x88\\x98 1/code/Bank.sol\":1754:1757  i++ */\n      dup1\n      dup1\n      0x01\n      add\n      swap2\n      pop\n      pop\n        /* \"\\xe6\\xa8\\xa1\\xe5\\x9d\\x97\\xe4\\xba\\x8c\\xef\\xbc\\x9aSolidity \\xe8\\xaf\\xad\\xe8\\xa8\\x80\\xe7\\x89\\xb9\\xe6\\x80\\xa7/\\xe5\\xae\\x9e\\xe6\\x88\\x98 1/code/Bank.sol\":1730:2002  for (uint i = 0; i < 3; i++) {... */\n      jump(tag_117)\n    tag_118:\n      pop\n        /* \"\\xe6\\xa8\\xa1\\xe5\\x9d\\x97\\xe4\\xba\\x8c\\xef\\xbc\\x9aSolidity \\xe8\\xaf\\xad\\xe8\\xa8\\x80\\xe7\\x89\\xb9\\xe6\\x80\\xa7/\\xe5\\xae\\x9e\\xe6\\x88\\x98 1/code/Bank.sol\":2097:2110  topDepositors */\n      0x02\n        /* \"\\xe6\\xa8\\xa1\\xe5\\x9d\\x97\\xe4\\xba\\x8c\\xef\\xbc\\x9aSolidity \\xe8\\xaf\\xad\\xe8\\xa8\\x80\\xe7\\x89\\xb9\\xe6\\x80\\xa7/\\xe5\\xae\\x9e\\xe6\\x88\\x98 1/code/Bank.sol\":2111:2112  2 */\n      dup1\n        /* \"\\xe6\\xa8\\xa1\\xe5\\x9d\\x97\\xe4\\xba\\x8c\\xef\\xbc\\x9aSolidity \\xe8\\xaf\\xad\\xe8\\xa8\\x80\\xe7\\x89\\xb9\\xe6\\x80\\xa7/\\xe5\\xae\\x9e\\xe6\\x88\\x98 1/code/Bank.sol\":2097:2113  topDepositors[2] */\n      0x03\n      dup2\n      lt\n      tag_130\n      jumpi\n      tag_131\n      tag_122\n      jump\t// in\n    tag_131:\n    tag_130:\n      0x02\n      mul\n      add\n        /* \"\\xe6\\xa8\\xa1\\xe5\\x9d\\x97\\xe4\\xba\\x8c\\xef\\xbc\\x9aSolidity \\xe8\\xaf\\xad\\xe8\\xa8\\x80\\xe7\\x89\\xb9\\xe6\\x80\\xa7/\\xe5\\xae\\x9e\\xe6\\x88\\x98 1/code/Bank.sol\":2097:2120  topDepositors[2].amount */\n      0x01\n      add\n      sload\n        /* \"\\xe6\\xa8\\xa1\\xe5\\x9d\\x97\\xe4\\xba\\x8c\\xef\\xbc\\x9aSolidity \\xe8\\xaf\\xad\\xe8\\xa8\\x80\\xe7\\x89\\xb9\\xe6\\x80\\xa7/\\xe5\\xae\\x9e\\xe6\\x88\\x98 1/code/Bank.sol\":2085:2094  newAmount */\n      dup2\n        /* \"\\xe6\\xa8\\xa1\\xe5\\x9d\\x97\\xe4\\xba\\x8c\\xef\\xbc\\x9aSolidity \\xe8\\xaf\\xad\\xe8\\xa8\\x80\\xe7\\x89\\xb9\\xe6\\x80\\xa7/\\xe5\\xae\\x9e\\xe6\\x88\\x98 1/code/Bank.sol\":2085:2120  newAmount > topDepositors[2].amount */\n      gt\n        /* \"\\xe6\\xa8\\xa1\\xe5\\x9d\\x97\\xe4\\xba\\x8c\\xef\\xbc\\x9aSolidity \\xe8\\xaf\\xad\\xe8\\xa8\\x80\\xe7\\x89\\xb9\\xe6\\x80\\xa7/\\xe5\\xae\\x9e\\xe6\\x88\\x98 1/code/Bank.sol\":2081:2274  if (newAmount > topDepositors[2].amount) {... */\n      iszero\n      tag_133\n      jumpi\n        /* \"\\xe6\\xa8\\xa1\\xe5\\x9d\\x97\\xe4\\xba\\x8c\\xef\\xbc\\x9aSolidity \\xe8\\xaf\\xad\\xe8\\xa8\\x80\\xe7\\x89\\xb9\\xe6\\x80\\xa7/\\xe5\\xae\\x9e\\xe6\\x88\\x98 1/code/Bank.sol\":2155:2189  TopDepositor(depositor, newAmount) */\n      mload(0x40)\n      dup1\n      0x40\n      add\n      0x40\n      mstore\n      dup1\n        /* \"\\xe6\\xa8\\xa1\\xe5\\x9d\\x97\\xe4\\xba\\x8c\\xef\\xbc\\x9aSolidity \\xe8\\xaf\\xad\\xe8\\xa8\\x80\\xe7\\x89\\xb9\\xe6\\x80\\xa7/\\xe5\\xae\\x9e\\xe6\\x88\\x98 1/code/Bank.sol\":2168:2177  depositor */\n      dup4\n        /* \"\\xe6\\xa8\\xa1\\xe5\\x9d\\x97\\xe4\\xba\\x8c\\xef\\xbc\\x9aSolidity \\xe8\\xaf\\xad\\xe8\\xa8\\x80\\xe7\\x89\\xb9\\xe6\\x80\\xa7/\\xe5\\xae\\x9e\\xe6\\x88\\x98 1/code/Bank.sol\":2155:2189  TopDepositor(depositor, newAmount) */\n      0xffffffffffffffffffffffffffffffffffffffff\n      and\n      dup2\n      mstore\n      0x20\n      add\n        /* \"\\xe6\\xa8\\xa1\\xe5\\x9d\\x97\\xe4\\xba\\x8c\\xef\\xbc\\x9aSolidity \\xe8\\xaf\\xad\\xe8\\xa8\\x80\\xe7\\x89\\xb9\\xe6\\x80\\xa7/\\xe5\\xae\\x9e\\xe6\\x88\\x98 1/code/Bank.sol\":2179:2188  newAmount */\n      dup3\n        /* \"\\xe6\\xa8\\xa1\\xe5\\x9d\\x97\\xe4\\xba\\x8c\\xef\\xbc\\x9aSolidity \\xe8\\xaf\\xad\\xe8\\xa8\\x80\\xe7\\x89\\xb9\\xe6\\x80\\xa7/\\xe5\\xae\\x9e\\xe6\\x88\\x98 1/code/Bank.sol\":2155:2189  TopDepositor(depositor, newAmount) */\n      dup2\n      mstore\n      pop\n        /* \"\\xe6\\xa8\\xa1\\xe5\\x9d\\x97\\xe4\\xba\\x8c\\xef\\xbc\\x9aSolidity \\xe8\\xaf\\xad\\xe8\\xa8\\x80\\xe7\\x89\\xb9\\xe6\\x80\\xa7/\\xe5\\xae\\x9e\\xe6\\x88\\x98 1/code/Bank.sol\":2136:2149  topDepositors */\n      0x02\n        /* \"\\xe6\\xa8\\xa1\\xe5\\x9d\\x97\\xe4\\xba\\x8c\\xef\\xbc\\x9aSolidity \\xe8\\xaf\\xad\\xe8\\xa8\\x80\\xe7\\x89\\xb9\\xe6\\x80\\xa7/\\xe5\\xae\\x9e\\xe6\\x88\\x98 1/code/Bank.sol\":2150:2151  2 */\n      dup1\n        /* \"\\xe6\\xa8\\xa1\\xe5\\x9d\\x97\\xe4\\xba\\x8c\\xef\\xbc\\x9aSolidity \\xe8\\xaf\\xad\\xe8\\xa8\\x80\\xe7\\x89\\xb9\\xe6\\x80\\xa7/\\xe5\\xae\\x9e\\xe6\\x88\\x98 1/code/Bank.sol\":2136:2152  topDepositors[2] */\n      0x03\n      dup2\n      lt\n      tag_134\n      jumpi\n      tag_135\n      tag_122\n      jump\t// in\n    tag_135:\n    tag_134:\n      0x02\n      mul\n      add\n        /* \"\\xe6\\xa8\\xa1\\xe5\\x9d\\x97\\xe4\\xba\\x8c\\xef\\xbc\\x9aSolidity \\xe8\\xaf\\xad\\xe8\\xa8\\x80\\xe7\\x89\\xb9\\xe6\\x80\\xa7/\\xe5\\xae\\x9e\\xe6\\x88\\x98 1/code/Bank.sol\":2136:2189  topDepositors[2] = TopDepositor(depositor, newAmount) */\n      0x00\n      dup3\n      add\n      mload\n      dup2\n      0x00\n      add\n      exp(0x0100, 0x00)\n      dup2\n      sload\n      dup2\n      0xffffffffffffffffffffffffffffffffffffffff\n      mul\n      not\n      and\n      swap1\n      dup4\n      0xffffffffffffffffffffffffffffffffffffffff\n      and\n      mul\n      or\n      swap1\n      sstore\n      pop\n      0x20\n      dup3\n      add\n      mload\n      dup2\n      0x01\n      add\n      sstore\n      swap1\n      pop\n      pop\n        /* \"\\xe6\\xa8\\xa1\\xe5\\x9d\\x97\\xe4\\xba\\x8c\\xef\\xbc\\x9aSolidity \\xe8\\xaf\\xad\\xe8\\xa8\\x80\\xe7\\x89\\xb9\\xe6\\x80\\xa7/\\xe5\\xae\\x9e\\xe6\\x88\\x98 1/code/Bank.sol\":2203:2222  sortTopDepositors() */\n      tag_137\n        /* \"\\xe6\\xa8\\xa1\\xe5\\x9d\\x97\\xe4\\xba\\x8c\\xef\\xbc\\x9aSolidity \\xe8\\xaf\\xad\\xe8\\xa8\\x80\\xe7\\x89\\xb9\\xe6\\x80\\xa7/\\xe5\\xae\\x9e\\xe6\\x88\\x98 1/code/Bank.sol\":2203:2220  sortTopDepositors */\n      tag_129\n        /* \"\\xe6\\xa8\\xa1\\xe5\\x9d\\x97\\xe4\\xba\\x8c\\xef\\xbc\\x9aSolidity \\xe8\\xaf\\xad\\xe8\\xa8\\x80\\xe7\\x89\\xb9\\xe6\\x80\\xa7/\\xe5\\xae\\x9e\\xe6\\x88\\x98 1/code/Bank.sol\":2203:2222  sortTopDepositors() */\n      jump\t// in\n    tag_137:\n        /* \"\\xe6\\xa8\\xa1\\xe5\\x9d\\x97\\xe4\\xba\\x8c\\xef\\xbc\\x9aSolidity \\xe8\\xaf\\xad\\xe8\\xa8\\x80\\xe7\\x89\\xb9\\xe6\\x80\\xa7/\\xe5\\xae\\x9e\\xe6\\x88\\x98 1/code/Bank.sol\":2241:2263  TopDepositorsUpdated() */\n      0x836bf56a9e2bd785315ac92d9f5209b1247f4e0184c58f743355e01d47e51c3b\n      mload(0x40)\n      mload(0x40)\n      dup1\n      swap2\n      sub\n      swap1\n      log1\n        /* \"\\xe6\\xa8\\xa1\\xe5\\x9d\\x97\\xe4\\xba\\x8c\\xef\\xbc\\x9aSolidity \\xe8\\xaf\\xad\\xe8\\xa8\\x80\\xe7\\x89\\xb9\\xe6\\x80\\xa7/\\xe5\\xae\\x9e\\xe6\\x88\\x98 1/code/Bank.sol\":2081:2274  if (newAmount > topDepositors[2].amount) {... */\n    tag_133:\n        /* \"\\xe6\\xa8\\xa1\\xe5\\x9d\\x97\\xe4\\xba\\x8c\\xef\\xbc\\x9aSolidity \\xe8\\xaf\\xad\\xe8\\xa8\\x80\\xe7\\x89\\xb9\\xe6\\x80\\xa7/\\xe5\\xae\\x9e\\xe6\\x88\\x98 1/code/Bank.sol\":1601:2280  function updateTopDepositors(address depositor, uint256 newAmount) internal {... */\n    tag_116:\n      pop\n      pop\n      jump\t// out\n        /* \"\\xe6\\xa8\\xa1\\xe5\\x9d\\x97\\xe4\\xba\\x8c\\xef\\xbc\\x9aSolidity \\xe8\\xaf\\xad\\xe8\\xa8\\x80\\xe7\\x89\\xb9\\xe6\\x80\\xa7/\\xe5\\xae\\x9e\\xe6\\x88\\x98 1/code/Bank.sol\":2344:2757  function sortTopDepositors() internal {... */\n    tag_129:\n        /* \"\\xe6\\xa8\\xa1\\xe5\\x9d\\x97\\xe4\\xba\\x8c\\xef\\xbc\\x9aSolidity \\xe8\\xaf\\xad\\xe8\\xa8\\x80\\xe7\\x89\\xb9\\xe6\\x80\\xa7/\\xe5\\xae\\x9e\\xe6\\x88\\x98 1/code/Bank.sol\":2397:2403  uint i */\n      0x00\n        /* \"\\xe6\\xa8\\xa1\\xe5\\x9d\\x97\\xe4\\xba\\x8c\\xef\\xbc\\x9aSolidity \\xe8\\xaf\\xad\\xe8\\xa8\\x80\\xe7\\x89\\xb9\\xe6\\x80\\xa7/\\xe5\\xae\\x9e\\xe6\\x88\\x98 1/code/Bank.sol\":2406:2407  0 */\n      0x00\n        /* \"\\xe6\\xa8\\xa1\\xe5\\x9d\\x97\\xe4\\xba\\x8c\\xef\\xbc\\x9aSolidity \\xe8\\xaf\\xad\\xe8\\xa8\\x80\\xe7\\x89\\xb9\\xe6\\x80\\xa7/\\xe5\\xae\\x9e\\xe6\\x88\\x98 1/code/Bank.sol\":2397:2407  uint i = 0 */\n      swap1\n      pop\n        /* \"\\xe6\\xa8\\xa1\\xe5\\x9d\\x97\\xe4\\xba\\x8c\\xef\\xbc\\x9aSolidity \\xe8\\xaf\\xad\\xe8\\xa8\\x80\\xe7\\x89\\xb9\\xe6\\x80\\xa7/\\xe5\\xae\\x9e\\xe6\\x88\\x98 1/code/Bank.sol\":2392:2751  for (uint i = 0; i < 2; i++) {... */\n    tag_139:\n        /* \"\\xe6\\xa8\\xa1\\xe5\\x9d\\x97\\xe4\\xba\\x8c\\xef\\xbc\\x9aSolidity \\xe8\\xaf\\xad\\xe8\\xa8\\x80\\xe7\\x89\\xb9\\xe6\\x80\\xa7/\\xe5\\xae\\x9e\\xe6\\x88\\x98 1/code/Bank.sol\":2413:2414  2 */\n      0x02\n        /* \"\\xe6\\xa8\\xa1\\xe5\\x9d\\x97\\xe4\\xba\\x8c\\xef\\xbc\\x9aSolidity \\xe8\\xaf\\xad\\xe8\\xa8\\x80\\xe7\\x89\\xb9\\xe6\\x80\\xa7/\\xe5\\xae\\x9e\\xe6\\x88\\x98 1/code/Bank.sol\":2409:2410  i */\n      dup2\n        /* \"\\xe6\\xa8\\xa1\\xe5\\x9d\\x97\\xe4\\xba\\x8c\\xef\\xbc\\x9aSolidity \\xe8\\xaf\\xad\\xe8\\xa8\\x80\\xe7\\x89\\xb9\\xe6\\x80\\xa7/\\xe5\\xae\\x9e\\xe6\\x88\\x98 1/code/Bank.sol\":2409:2414  i < 2 */\n      lt\n        /* \"\\xe6\\xa8\\xa1\\xe5\\x9d\\x97\\xe4\\xba\\x8c\\xef\\xbc\\x9aSolidity \\xe8\\xaf\\xad\\xe8\\xa8\\x80\\xe7\\x89\\xb9\\xe6\\x80\\xa7/\\xe5\\xae\\x9e\\xe6\\x88\\x98 1/code/Bank.sol\":2392:2751  for (uint i = 0; i < 2; i++) {... */\n      iszero\n      tag_140\n      jumpi\n        /* \"\\xe6\\xa8\\xa1\\xe5\\x9d\\x97\\xe4\\xba\\x8c\\xef\\xbc\\x9aSolidity \\xe8\\xaf\\xad\\xe8\\xa8\\x80\\xe7\\x89\\xb9\\xe6\\x80\\xa7/\\xe5\\xae\\x9e\\xe6\\x88\\x98 1/code/Bank.sol\":2440:2446  uint j */\n      0x00\n        /* \"\\xe6\\xa8\\xa1\\xe5\\x9d\\x97\\xe4\\xba\\x8c\\xef\\xbc\\x9aSolidity \\xe8\\xaf\\xad\\xe8\\xa8\\x80\\xe7\\x89\\xb9\\xe6\\x80\\xa7/\\xe5\\xae\\x9e\\xe6\\x88\\x98 1/code/Bank.sol\":2453:2454  1 */\n      0x01\n        /* \"\\xe6\\xa8\\xa1\\xe5\\x9d\\x97\\xe4\\xba\\x8c\\xef\\xbc\\x9aSolidity \\xe8\\xaf\\xad\\xe8\\xa8\\x80\\xe7\\x89\\xb9\\xe6\\x80\\xa7/\\xe5\\xae\\x9e\\xe6\\x88\\x98 1/code/Bank.sol\":2449:2450  i */\n      dup3\n        /* \"\\xe6\\xa8\\xa1\\xe5\\x9d\\x97\\xe4\\xba\\x8c\\xef\\xbc\\x9aSolidity \\xe8\\xaf\\xad\\xe8\\xa8\\x80\\xe7\\x89\\xb9\\xe6\\x80\\xa7/\\xe5\\xae\\x9e\\xe6\\x88\\x98 1/code/Bank.sol\":2449:2454  i + 1 */\n      tag_145\n      swap2\n      swap1\n      tag_71\n      jump\t// in\n    tag_145:\n        /* \"\\xe6\\xa8\\xa1\\xe5\\x9d\\x97\\xe4\\xba\\x8c\\xef\\xbc\\x9aSolidity \\xe8\\xaf\\xad\\xe8\\xa8\\x80\\xe7\\x89\\xb9\\xe6\\x80\\xa7/\\xe5\\xae\\x9e\\xe6\\x88\\x98 1/code/Bank.sol\":2440:2454  uint j = i + 1 */\n      swap1\n      pop\n        /* \"\\xe6\\xa8\\xa1\\xe5\\x9d\\x97\\xe4\\xba\\x8c\\xef\\xbc\\x9aSolidity \\xe8\\xaf\\xad\\xe8\\xa8\\x80\\xe7\\x89\\xb9\\xe6\\x80\\xa7/\\xe5\\xae\\x9e\\xe6\\x88\\x98 1/code/Bank.sol\":2435:2741  for (uint j = i + 1; j < 3; j++) {... */\n    tag_142:\n        /* \"\\xe6\\xa8\\xa1\\xe5\\x9d\\x97\\xe4\\xba\\x8c\\xef\\xbc\\x9aSolidity \\xe8\\xaf\\xad\\xe8\\xa8\\x80\\xe7\\x89\\xb9\\xe6\\x80\\xa7/\\xe5\\xae\\x9e\\xe6\\x88\\x98 1/code/Bank.sol\":2460:2461  3 */\n      0x03\n        /* \"\\xe6\\xa8\\xa1\\xe5\\x9d\\x97\\xe4\\xba\\x8c\\xef\\xbc\\x9aSolidity \\xe8\\xaf\\xad\\xe8\\xa8\\x80\\xe7\\x89\\xb9\\xe6\\x80\\xa7/\\xe5\\xae\\x9e\\xe6\\x88\\x98 1/code/Bank.sol\":2456:2457  j */\n      dup2\n        /* \"\\xe6\\xa8\\xa1\\xe5\\x9d\\x97\\xe4\\xba\\x8c\\xef\\xbc\\x9aSolidity \\xe8\\xaf\\xad\\xe8\\xa8\\x80\\xe7\\x89\\xb9\\xe6\\x80\\xa7/\\xe5\\xae\\x9e\\xe6\\x88\\x98 1/code/Bank.sol\":2456:2461  j < 3 */\n      lt\n        /* \"\\xe6\\xa8\\xa1\\xe5\\x9d\\x97\\xe4\\xba\\x8c\\xef\\xbc\\x9aSolidity \\xe8\\xaf\\xad\\xe8\\xa8\\x80\\xe7\\x89\\xb9\\xe6\\x80\\xa7/\\xe5\\xae\\x9e\\xe6\\x88\\x98 1/code/Bank.sol\":2435:2741  for (uint j = i + 1; j < 3; j++) {... */\n      iszero\n      tag_143\n      jumpi\n        /* \"\\xe6\\xa8\\xa1\\xe5\\x9d\\x97\\xe4\\xba\\x8c\\xef\\xbc\\x9aSolidity \\xe8\\xaf\\xad\\xe8\\xa8\\x80\\xe7\\x89\\xb9\\xe6\\x80\\xa7/\\xe5\\xae\\x9e\\xe6\\x88\\x98 1/code/Bank.sol\":2516:2529  topDepositors */\n      0x02\n        /* \"\\xe6\\xa8\\xa1\\xe5\\x9d\\x97\\xe4\\xba\\x8c\\xef\\xbc\\x9aSolidity \\xe8\\xaf\\xad\\xe8\\xa8\\x80\\xe7\\x89\\xb9\\xe6\\x80\\xa7/\\xe5\\xae\\x9e\\xe6\\x88\\x98 1/code/Bank.sol\":2530:2531  j */\n      dup2\n        /* \"\\xe6\\xa8\\xa1\\xe5\\x9d\\x97\\xe4\\xba\\x8c\\xef\\xbc\\x9aSolidity \\xe8\\xaf\\xad\\xe8\\xa8\\x80\\xe7\\x89\\xb9\\xe6\\x80\\xa7/\\xe5\\xae\\x9e\\xe6\\x88\\x98 1/code/Bank.sol\":2516:2532  topDepositors[j] */\n      0x03\n      dup2\n      lt\n      tag_146\n      jumpi\n      tag_147\n      tag_122\n      jump\t// in\n    tag_147:\n    tag_146:\n      0x02\n      mul\n      add\n        /* \"\\xe6\\xa8\\xa1\\xe5\\x9d\\x97\\xe4\\xba\\x8c\\xef\\xbc\\x9aSolidity \\xe8\\xaf\\xad\\xe8\\xa8\\x80\\xe7\\x89\\xb9\\xe6\\x80\\xa7/\\xe5\\xae\\x9e\\xe6\\x88\\x98 1/code/Bank.sol\":2516:2539  topDepositors[j].amount */\n      0x01\n      add\n      sload\n        /* \"\\xe6\\xa8\\xa1\\xe5\\x9d\\x97\\xe4\\xba\\x8c\\xef\\xbc\\x9aSolidity \\xe8\\xaf\\xad\\xe8\\xa8\\x80\\xe7\\x89\\xb9\\xe6\\x80\\xa7/\\xe5\\xae\\x9e\\xe6\\x88\\x98 1/code/Bank.sol\":2490:2503  topDepositors */\n      0x02\n        /* \"\\xe6\\xa8\\xa1\\xe5\\x9d\\x97\\xe4\\xba\\x8c\\xef\\xbc\\x9aSolidity \\xe8\\xaf\\xad\\xe8\\xa8\\x80\\xe7\\x89\\xb9\\xe6\\x80\\xa7/\\xe5\\xae\\x9e\\xe6\\x88\\x98 1/code/Bank.sol\":2504:2505  i */\n      dup4\n        /* \"\\xe6\\xa8\\xa1\\xe5\\x9d\\x97\\xe4\\xba\\x8c\\xef\\xbc\\x9aSolidity \\xe8\\xaf\\xad\\xe8\\xa8\\x80\\xe7\\x89\\xb9\\xe6\\x80\\xa7/\\xe5\\xae\\x9e\\xe6\\x88\\x98 1/code/Bank.sol\":2490:2506  topDepositors[i] */\n      0x03\n      dup2\n      lt\n      tag_149\n      jumpi\n      tag_150\n      tag_122\n      jump\t// in\n    tag_150:\n    tag_149:\n      0x02\n      mul\n      add\n        /* \"\\xe6\\xa8\\xa1\\xe5\\x9d\\x97\\xe4\\xba\\x8c\\xef\\xbc\\x9aSolidity \\xe8\\xaf\\xad\\xe8\\xa8\\x80\\xe7\\x89\\xb9\\xe6\\x80\\xa7/\\xe5\\xae\\x9e\\xe6\\x88\\x98 1/code/Bank.sol\":2490:2513  topDepositors[i].amount */\n      0x01\n      add\n      sload\n        /* \"\\xe6\\xa8\\xa1\\xe5\\x9d\\x97\\xe4\\xba\\x8c\\xef\\xbc\\x9aSolidity \\xe8\\xaf\\xad\\xe8\\xa8\\x80\\xe7\\x89\\xb9\\xe6\\x80\\xa7/\\xe5\\xae\\x9e\\xe6\\x88\\x98 1/code/Bank.sol\":2490:2539  topDepositors[i].amount < topDepositors[j].amount */\n      lt\n        /* \"\\xe6\\xa8\\xa1\\xe5\\x9d\\x97\\xe4\\xba\\x8c\\xef\\xbc\\x9aSolidity \\xe8\\xaf\\xad\\xe8\\xa8\\x80\\xe7\\x89\\xb9\\xe6\\x80\\xa7/\\xe5\\xae\\x9e\\xe6\\x88\\x98 1/code/Bank.sol\":2486:2727  if (topDepositors[i].amount < topDepositors[j].amount) {... */\n      iszero\n      tag_152\n      jumpi\n        /* \"\\xe6\\xa8\\xa1\\xe5\\x9d\\x97\\xe4\\xba\\x8c\\xef\\xbc\\x9aSolidity \\xe8\\xaf\\xad\\xe8\\xa8\\x80\\xe7\\x89\\xb9\\xe6\\x80\\xa7/\\xe5\\xae\\x9e\\xe6\\x88\\x98 1/code/Bank.sol\":2563:2587  TopDepositor memory temp */\n      0x00\n        /* \"\\xe6\\xa8\\xa1\\xe5\\x9d\\x97\\xe4\\xba\\x8c\\xef\\xbc\\x9aSolidity \\xe8\\xaf\\xad\\xe8\\xa8\\x80\\xe7\\x89\\xb9\\xe6\\x80\\xa7/\\xe5\\xae\\x9e\\xe6\\x88\\x98 1/code/Bank.sol\":2590:2603  topDepositors */\n      0x02\n        /* \"\\xe6\\xa8\\xa1\\xe5\\x9d\\x97\\xe4\\xba\\x8c\\xef\\xbc\\x9aSolidity \\xe8\\xaf\\xad\\xe8\\xa8\\x80\\xe7\\x89\\xb9\\xe6\\x80\\xa7/\\xe5\\xae\\x9e\\xe6\\x88\\x98 1/code/Bank.sol\":2604:2605  i */\n      dup4\n        /* \"\\xe6\\xa8\\xa1\\xe5\\x9d\\x97\\xe4\\xba\\x8c\\xef\\xbc\\x9aSolidity \\xe8\\xaf\\xad\\xe8\\xa8\\x80\\xe7\\x89\\xb9\\xe6\\x80\\xa7/\\xe5\\xae\\x9e\\xe6\\x88\\x98 1/code/Bank.sol\":2590:2606  topDepositors[i] */\n      0x03\n      dup2\n      lt\n      tag_153\n      jumpi\n      tag_154\n      tag_122\n      jump\t// in\n    tag_154:\n    tag_153:\n      0x02\n      mul\n      add\n        /* \"\\xe6\\xa8\\xa1\\xe5\\x9d\\x97\\xe4\\xba\\x8c\\xef\\xbc\\x9aSolidity \\xe8\\xaf\\xad\\xe8\\xa8\\x80\\xe7\\x89\\xb9\\xe6\\x80\\xa7/\\xe5\\xae\\x9e\\xe6\\x88\\x98 1/code/Bank.sol\":2563:2606  TopDepositor memory temp = topDepositors[i] */\n      mload(0x40)\n      dup1\n      0x40\n      add\n      0x40\n      mstore\n      swap1\n      dup2\n      0x00\n      dup3\n      add\n      0x00\n      swap1\n      sload\n      swap1\n      0x0100\n      exp\n      swap1\n      div\n      0xffffffffffffffffffffffffffffffffffffffff\n      and\n      0xffffffffffffffffffffffffffffffffffffffff\n      and\n      0xffffffffffffffffffffffffffffffffffffffff\n      and\n      dup2\n      mstore\n      0x20\n      add\n      0x01\n      dup3\n      add\n      sload\n      dup2\n      mstore\n      pop\n      pop\n      swap1\n      pop\n        /* \"\\xe6\\xa8\\xa1\\xe5\\x9d\\x97\\xe4\\xba\\x8c\\xef\\xbc\\x9aSolidity \\xe8\\xaf\\xad\\xe8\\xa8\\x80\\xe7\\x89\\xb9\\xe6\\x80\\xa7/\\xe5\\xae\\x9e\\xe6\\x88\\x98 1/code/Bank.sol\":2647:2660  topDepositors */\n      0x02\n        /* \"\\xe6\\xa8\\xa1\\xe5\\x9d\\x97\\xe4\\xba\\x8c\\xef\\xbc\\x9aSolidity \\xe8\\xaf\\xad\\xe8\\xa8\\x80\\xe7\\x89\\xb9\\xe6\\x80\\xa7/\\xe5\\xae\\x9e\\xe6\\x88\\x98 1/code/Bank.sol\":2661:2662  j */\n      dup3\n        /* \"\\xe6\\xa8\\xa1\\xe5\\x9d\\x97\\xe4\\xba\\x8c\\xef\\xbc\\x9aSolidity \\xe8\\xaf\\xad\\xe8\\xa8\\x80\\xe7\\x89\\xb9\\xe6\\x80\\xa7/\\xe5\\xae\\x9e\\xe6\\x88\\x98 1/code/Bank.sol\":2647:2663  topDepositors[j] */\n      0x03\n      dup2\n      lt\n      tag_156\n      jumpi\n      tag_157\n      tag_122\n      jump\t// in\n    tag_157:\n    tag_156:\n      0x02\n      mul\n      add\n        /* \"\\xe6\\xa8\\xa1\\xe5\\x9d\\x97\\xe4\\xba\\x8c\\xef\\xbc\\x9aSolidity \\xe8\\xaf\\xad\\xe8\\xa8\\x80\\xe7\\x89\\xb9\\xe6\\x80\\xa7/\\xe5\\xae\\x9e\\xe6\\x88\\x98 1/code/Bank.sol\":2628:2641  topDepositors */\n      0x02\n        /* \"\\xe6\\xa8\\xa1\\xe5\\x9d\\x97\\xe4\\xba\\x8c\\xef\\xbc\\x9aSolidity \\xe8\\xaf\\xad\\xe8\\xa8\\x80\\xe7\\x89\\xb9\\xe6\\x80\\xa7/\\xe5\\xae\\x9e\\xe6\\x88\\x98 1/code/Bank.sol\":2642:2643  i */\n      dup5\n        /* \"\\xe6\\xa8\\xa1\\xe5\\x9d\\x97\\xe4\\xba\\x8c\\xef\\xbc\\x9aSolidity \\xe8\\xaf\\xad\\xe8\\xa8\\x80\\xe7\\x89\\xb9\\xe6\\x80\\xa7/\\xe5\\xae\\x9e\\xe6\\x88\\x98 1/code/Bank.sol\":2628:2644  topDepositors[i] */\n      0x03\n      dup2\n      lt\n      tag_159\n      jumpi\n      tag_160\n      tag_122\n      jump\t// in\n    tag_160:\n    tag_159:\n      0x02\n      mul\n      add\n        /* \"\\xe6\\xa8\\xa1\\xe5\\x9d\\x97\\xe4\\xba\\x8c\\xef\\xbc\\x9aSolidity \\xe8\\xaf\\xad\\xe8\\xa8\\x80\\xe7\\x89\\xb9\\xe6\\x80\\xa7/\\xe5\\xae\\x9e\\xe6\\x88\\x98 1/code/Bank.sol\":2628:2663  topDepositors[i] = topDepositors[j] */\n      0x00\n      dup3\n      add\n      0x00\n      swap1\n      sload\n      swap1\n      0x0100\n      exp\n      swap1\n      div\n      0xffffffffffffffffffffffffffffffffffffffff\n      and\n      dup2\n      0x00\n      add\n      exp(0x0100, 0x00)\n      dup2\n      sload\n      dup2\n      0xffffffffffffffffffffffffffffffffffffffff\n      mul\n      not\n      and\n      swap1\n      dup4\n      0xffffffffffffffffffffffffffffffffffffffff\n      and\n      mul\n      or\n      swap1\n      sstore\n      pop\n      0x01\n      dup3\n      add\n      sload\n      dup2\n      0x01\n      add\n      sstore\n      swap1\n      pop\n      pop\n        /* \"\\xe6\\xa8\\xa1\\xe5\\x9d\\x97\\xe4\\xba\\x8c\\xef\\xbc\\x9aSolidity \\xe8\\xaf\\xad\\xe8\\xa8\\x80\\xe7\\x89\\xb9\\xe6\\x80\\xa7/\\xe5\\xae\\x9e\\xe6\\x88\\x98 1/code/Bank.sol\":2704:2708  temp */\n      dup1\n        /* \"\\xe6\\xa8\\xa1\\xe5\\x9d\\x97\\xe4\\xba\\x8c\\xef\\xbc\\x9aSolidity \\xe8\\xaf\\xad\\xe8\\xa8\\x80\\xe7\\x89\\xb9\\xe6\\x80\\xa7/\\xe5\\xae\\x9e\\xe6\\x88\\x98 1/code/Bank.sol\":2685:2698  topDepositors */\n      0x02\n        /* \"\\xe6\\xa8\\xa1\\xe5\\x9d\\x97\\xe4\\xba\\x8c\\xef\\xbc\\x9aSolidity \\xe8\\xaf\\xad\\xe8\\xa8\\x80\\xe7\\x89\\xb9\\xe6\\x80\\xa7/\\xe5\\xae\\x9e\\xe6\\x88\\x98 1/code/Bank.sol\":2699:2700  j */\n      dup4\n        /* \"\\xe6\\xa8\\xa1\\xe5\\x9d\\x97\\xe4\\xba\\x8c\\xef\\xbc\\x9aSolidity \\xe8\\xaf\\xad\\xe8\\xa8\\x80\\xe7\\x89\\xb9\\xe6\\x80\\xa7/\\xe5\\xae\\x9e\\xe6\\x88\\x98 1/code/Bank.sol\":2685:2701  topDepositors[j] */\n      0x03\n      dup2\n      lt\n      tag_162\n      jumpi\n      tag_163\n      tag_122\n      jump\t// in\n    tag_163:\n    tag_162:\n      0x02\n      mul\n      add\n        /* \"\\xe6\\xa8\\xa1\\xe5\\x9d\\x97\\xe4\\xba\\x8c\\xef\\xbc\\x9aSolidity \\xe8\\xaf\\xad\\xe8\\xa8\\x80\\xe7\\x89\\xb9\\xe6\\x80\\xa7/\\xe5\\xae\\x9e\\xe6\\x88\\x98 1/code/Bank.sol\":2685:2708  topDepositors[j] = temp */\n      0x00\n      dup3\n      add\n      mload\n      dup2\n      0x00\n      add\n      exp(0x0100, 0x00)\n      dup2\n      sload\n      dup2\n      0xffffffffffffffffffffffffffffffffffffffff\n      mul\n      not\n      and\n      swap1\n      dup4\n      0xffffffffffffffffffffffffffffffffffffffff\n      and\n      mul\n      or\n      swap1\n      sstore\n      pop\n      0x20\n      dup3\n      add\n      mload\n      dup2\n      0x01\n      add\n      sstore\n      swap1\n      pop\n      pop\n        /* \"\\xe6\\xa8\\xa1\\xe5\\x9d\\x97\\xe4\\xba\\x8c\\xef\\xbc\\x9aSolidity \\xe8\\xaf\\xad\\xe8\\xa8\\x80\\xe7\\x89\\xb9\\xe6\\x80\\xa7/\\xe5\\xae\\x9e\\xe6\\x88\\x98 1/code/Bank.sol\":2541:2727  {... */\n      pop\n        /* \"\\xe6\\xa8\\xa1\\xe5\\x9d\\x97\\xe4\\xba\\x8c\\xef\\xbc\\x9aSolidity \\xe8\\xaf\\xad\\xe8\\xa8\\x80\\xe7\\x89\\xb9\\xe6\\x80\\xa7/\\xe5\\xae\\x9e\\xe6\\x88\\x98 1/code/Bank.sol\":2486:2727  if (topDepositors[i].amount < topDepositors[j].amount) {... */\n    tag_152:\n        /* \"\\xe6\\xa8\\xa1\\xe5\\x9d\\x97\\xe4\\xba\\x8c\\xef\\xbc\\x9aSolidity \\xe8\\xaf\\xad\\xe8\\xa8\\x80\\xe7\\x89\\xb9\\xe6\\x80\\xa7/\\xe5\\xae\\x9e\\xe6\\x88\\x98 1/code/Bank.sol\":2463:2466  j++ */\n      dup1\n      dup1\n      0x01\n      add\n      swap2\n      pop\n      pop\n        /* \"\\xe6\\xa8\\xa1\\xe5\\x9d\\x97\\xe4\\xba\\x8c\\xef\\xbc\\x9aSolidity \\xe8\\xaf\\xad\\xe8\\xa8\\x80\\xe7\\x89\\xb9\\xe6\\x80\\xa7/\\xe5\\xae\\x9e\\xe6\\x88\\x98 1/code/Bank.sol\":2435:2741  for (uint j = i + 1; j < 3; j++) {... */\n      jump(tag_142)\n    tag_143:\n      pop\n        /* \"\\xe6\\xa8\\xa1\\xe5\\x9d\\x97\\xe4\\xba\\x8c\\xef\\xbc\\x9aSolidity \\xe8\\xaf\\xad\\xe8\\xa8\\x80\\xe7\\x89\\xb9\\xe6\\x80\\xa7/\\xe5\\xae\\x9e\\xe6\\x88\\x98 1/code/Bank.sol\":2416:2419  i++ */\n      dup1\n      dup1\n      0x01\n      add\n      swap2\n      pop\n      pop\n        /* \"\\xe6\\xa8\\xa1\\xe5\\x9d\\x97\\xe4\\xba\\x8c\\xef\\xbc\\x9aSolidity \\xe8\\xaf\\xad\\xe8\\xa8\\x80\\xe7\\x89\\xb9\\xe6\\x80\\xa7/\\xe5\\xae\\x9e\\xe6\\x88\\x98 1/code/Bank.sol\":2392:2751  for (uint i = 0; i < 2; i++) {... */\n      jump(tag_139)\n    tag_140:\n      pop\n        /* \"\\xe6\\xa8\\xa1\\xe5\\x9d\\x97\\xe4\\xba\\x8c\\xef\\xbc\\x9aSolidity \\xe8\\xaf\\xad\\xe8\\xa8\\x80\\xe7\\x89\\xb9\\xe6\\x80\\xa7/\\xe5\\xae\\x9e\\xe6\\x88\\x98 1/code/Bank.sol\":2344:2757  function sortTopDepositors() internal {... */\n      jump\t// out\n    tag_93:\n      mload(0x40)\n      dup1\n      0x60\n      add\n      0x40\n      mstore\n      dup1\n      0x03\n      swap1\n    tag_165:\n      tag_166\n      tag_167\n      jump\t// in\n    tag_166:\n      dup2\n      mstore\n      0x20\n      add\n      swap1\n      0x01\n      swap1\n      sub\n      swap1\n      dup2\n      tag_165\n      jumpi\n      swap1\n      pop\n      pop\n      swap1\n      jump\t// out\n    tag_167:\n      mload(0x40)\n      dup1\n      0x40\n      add\n      0x40\n      mstore\n      dup1\n      and(0xffffffffffffffffffffffffffffffffffffffff, 0x00)\n      dup2\n      mstore\n      0x20\n      add\n      0x00\n      dup2\n      mstore\n      pop\n      swap1\n      jump\t// out\n        /* \"#utility.yul\":88:205   */\n    tag_169:\n        /* \"#utility.yul\":197:198   */\n      0x00\n        /* \"#utility.yul\":194:195   */\n      0x00\n        /* \"#utility.yul\":187:199   */\n      revert\n        /* \"#utility.yul\":334:460   */\n    tag_171:\n        /* \"#utility.yul\":371:378   */\n      0x00\n        /* \"#utility.yul\":411:453   */\n      0xffffffffffffffffffffffffffffffffffffffff\n        /* \"#utility.yul\":404:409   */\n      dup3\n        /* \"#utility.yul\":400:454   */\n      and\n        /* \"#utility.yul\":389:454   */\n      swap1\n      pop\n        /* \"#utility.yul\":334:460   */\n      swap2\n      swap1\n      pop\n      jump\t// out\n        /* \"#utility.yul\":466:562   */\n    tag_172:\n        /* \"#utility.yul\":503:510   */\n      0x00\n        /* \"#utility.yul\":532:556   */\n      tag_209\n        /* \"#utility.yul\":550:555   */\n      dup3\n        /* \"#utility.yul\":532:556   */\n      tag_171\n      jump\t// in\n    tag_209:\n        /* \"#utility.yul\":521:556   */\n      swap1\n      pop\n        /* \"#utility.yul\":466:562   */\n      swap2\n      swap1\n      pop\n      jump\t// out\n        /* \"#utility.yul\":568:690   */\n    tag_173:\n        /* \"#utility.yul\":641:665   */\n      tag_211\n        /* \"#utility.yul\":659:664   */\n      dup2\n        /* \"#utility.yul\":641:665   */\n      tag_172\n      jump\t// in\n    tag_211:\n        /* \"#utility.yul\":634:639   */\n      dup2\n        /* \"#utility.yul\":631:666   */\n      eq\n        /* \"#utility.yul\":621:684   */\n      tag_212\n      jumpi\n        /* \"#utility.yul\":680:681   */\n      0x00\n        /* \"#utility.yul\":677:678   */\n      0x00\n        /* \"#utility.yul\":670:682   */\n      revert\n        /* \"#utility.yul\":621:684   */\n    tag_212:\n        /* \"#utility.yul\":568:690   */\n      pop\n      jump\t// out\n        /* \"#utility.yul\":696:835   */\n    tag_174:\n        /* \"#utility.yul\":742:747   */\n      0x00\n        /* \"#utility.yul\":780:786   */\n      dup2\n        /* \"#utility.yul\":767:787   */\n      calldataload\n        /* \"#utility.yul\":758:787   */\n      swap1\n      pop\n        /* \"#utility.yul\":796:829   */\n      tag_214\n        /* \"#utility.yul\":823:828   */\n      dup2\n        /* \"#utility.yul\":796:829   */\n      tag_173\n      jump\t// in\n    tag_214:\n        /* \"#utility.yul\":696:835   */\n      swap3\n      swap2\n      pop\n      pop\n      jump\t// out\n        /* \"#utility.yul\":841:1170   */\n    tag_24:\n        /* \"#utility.yul\":900:906   */\n      0x00\n        /* \"#utility.yul\":949:951   */\n      0x20\n        /* \"#utility.yul\":937:946   */\n      dup3\n        /* \"#utility.yul\":928:935   */\n      dup5\n        /* \"#utility.yul\":924:947   */\n      sub\n        /* \"#utility.yul\":920:952   */\n      slt\n        /* \"#utility.yul\":917:1036   */\n      iszero\n      tag_216\n      jumpi\n        /* \"#utility.yul\":955:1034   */\n      tag_217\n      tag_169\n      jump\t// in\n    tag_217:\n        /* \"#utility.yul\":917:1036   */\n    tag_216:\n        /* \"#utility.yul\":1075:1076   */\n      0x00\n        /* \"#utility.yul\":1100:1153   */\n      tag_218\n        /* \"#utility.yul\":1145:1152   */\n      dup5\n        /* \"#utility.yul\":1136:1142   */\n      dup3\n        /* \"#utility.yul\":1125:1134   */\n      dup6\n        /* \"#utility.yul\":1121:1143   */\n      add\n        /* \"#utility.yul\":1100:1153   */\n      tag_174\n      jump\t// in\n    tag_218:\n        /* \"#utility.yul\":1090:1153   */\n      swap2\n      pop\n        /* \"#utility.yul\":1046:1163   */\n      pop\n        /* \"#utility.yul\":841:1170   */\n      swap3\n      swap2\n      pop\n      pop\n      jump\t// out\n        /* \"#utility.yul\":1176:1253   */\n    tag_175:\n        /* \"#utility.yul\":1213:1220   */\n      0x00\n        /* \"#utility.yul\":1242:1247   */\n      dup2\n        /* \"#utility.yul\":1231:1247   */\n      swap1\n      pop\n        /* \"#utility.yul\":1176:1253   */\n      swap2\n      swap1\n      pop\n      jump\t// out\n        /* \"#utility.yul\":1259:1377   */\n    tag_176:\n        /* \"#utility.yul\":1346:1370   */\n      tag_221\n        /* \"#utility.yul\":1364:1369   */\n      dup2\n        /* \"#utility.yul\":1346:1370   */\n      tag_175\n      jump\t// in\n    tag_221:\n        /* \"#utility.yul\":1341:1344   */\n      dup3\n        /* \"#utility.yul\":1334:1371   */\n      mstore\n        /* \"#utility.yul\":1259:1377   */\n      pop\n      pop\n      jump\t// out\n        /* \"#utility.yul\":1383:1605   */\n    tag_27:\n        /* \"#utility.yul\":1476:1480   */\n      0x00\n        /* \"#utility.yul\":1514:1516   */\n      0x20\n        /* \"#utility.yul\":1503:1512   */\n      dup3\n        /* \"#utility.yul\":1499:1517   */\n      add\n        /* \"#utility.yul\":1491:1517   */\n      swap1\n      pop\n        /* \"#utility.yul\":1527:1598   */\n      tag_223\n        /* \"#utility.yul\":1595:1596   */\n      0x00\n        /* \"#utility.yul\":1584:1593   */\n      dup4\n        /* \"#utility.yul\":1580:1597   */\n      add\n        /* \"#utility.yul\":1571:1577   */\n      dup5\n        /* \"#utility.yul\":1527:1598   */\n      tag_176\n      jump\t// in\n    tag_223:\n        /* \"#utility.yul\":1383:1605   */\n      swap3\n      swap2\n      pop\n      pop\n      jump\t// out\n        /* \"#utility.yul\":1611:1733   */\n    tag_177:\n        /* \"#utility.yul\":1684:1708   */\n      tag_225\n        /* \"#utility.yul\":1702:1707   */\n      dup2\n        /* \"#utility.yul\":1684:1708   */\n      tag_175\n      jump\t// in\n    tag_225:\n        /* \"#utility.yul\":1677:1682   */\n      dup2\n        /* \"#utility.yul\":1674:1709   */\n      eq\n        /* \"#utility.yul\":1664:1727   */\n      tag_226\n      jumpi\n        /* \"#utility.yul\":1723:1724   */\n      0x00\n        /* \"#utility.yul\":1720:1721   */\n      0x00\n        /* \"#utility.yul\":1713:1725   */\n      revert\n        /* \"#utility.yul\":1664:1727   */\n    tag_226:\n        /* \"#utility.yul\":1611:1733   */\n      pop\n      jump\t// out\n        /* \"#utility.yul\":1739:1878   */\n    tag_178:\n        /* \"#utility.yul\":1785:1790   */\n      0x00\n        /* \"#utility.yul\":1823:1829   */\n      dup2\n        /* \"#utility.yul\":1810:1830   */\n      calldataload\n        /* \"#utility.yul\":1801:1830   */\n      swap1\n      pop\n        /* \"#utility.yul\":1839:1872   */\n      tag_228\n        /* \"#utility.yul\":1866:1871   */\n      dup2\n        /* \"#utility.yul\":1839:1872   */\n      tag_177\n      jump\t// in\n    tag_228:\n        /* \"#utility.yul\":1739:1878   */\n      swap3\n      swap2\n      pop\n      pop\n      jump\t// out\n        /* \"#utility.yul\":1884:2213   */\n    tag_31:\n        /* \"#utility.yul\":1943:1949   */\n      0x00\n        /* \"#utility.yul\":1992:1994   */\n      0x20\n        /* \"#utility.yul\":1980:1989   */\n      dup3\n        /* \"#utility.yul\":1971:1978   */\n      dup5\n        /* \"#utility.yul\":1967:1990   */\n      sub\n        /* \"#utility.yul\":1963:1995   */\n      slt\n        /* \"#utility.yul\":1960:2079   */\n      iszero\n      tag_230\n      jumpi\n        /* \"#utility.yul\":1998:2077   */\n      tag_231\n      tag_169\n      jump\t// in\n    tag_231:\n        /* \"#utility.yul\":1960:2079   */\n    tag_230:\n        /* \"#utility.yul\":2118:2119   */\n      0x00\n        /* \"#utility.yul\":2143:2196   */\n      tag_232\n        /* \"#utility.yul\":2188:2195   */\n      dup5\n        /* \"#utility.yul\":2179:2185   */\n      dup3\n        /* \"#utility.yul\":2168:2177   */\n      dup6\n        /* \"#utility.yul\":2164:2186   */\n      add\n        /* \"#utility.yul\":2143:2196   */\n      tag_178\n      jump\t// in\n    tag_232:\n        /* \"#utility.yul\":2133:2196   */\n      swap2\n      pop\n        /* \"#utility.yul\":2089:2206   */\n      pop\n        /* \"#utility.yul\":1884:2213   */\n      swap3\n      swap2\n      pop\n      pop\n      jump\t// out\n        /* \"#utility.yul\":2219:2337   */\n    tag_179:\n        /* \"#utility.yul\":2306:2330   */\n      tag_234\n        /* \"#utility.yul\":2324:2329   */\n      dup2\n        /* \"#utility.yul\":2306:2330   */\n      tag_172\n      jump\t// in\n    tag_234:\n        /* \"#utility.yul\":2301:2304   */\n      dup3\n        /* \"#utility.yul\":2294:2331   */\n      mstore\n        /* \"#utility.yul\":2219:2337   */\n      pop\n      pop\n      jump\t// out\n        /* \"#utility.yul\":2343:2675   */\n    tag_38:\n        /* \"#utility.yul\":2464:2468   */\n      0x00\n        /* \"#utility.yul\":2502:2504   */\n      0x40\n        /* \"#utility.yul\":2491:2500   */\n      dup3\n        /* \"#utility.yul\":2487:2505   */\n      add\n        /* \"#utility.yul\":2479:2505   */\n      swap1\n      pop\n        /* \"#utility.yul\":2515:2586   */\n      tag_236\n        /* \"#utility.yul\":2583:2584   */\n      0x00\n        /* \"#utility.yul\":2572:2581   */\n      dup4\n        /* \"#utility.yul\":2568:2585   */\n      add\n        /* \"#utility.yul\":2559:2565   */\n      dup6\n        /* \"#utility.yul\":2515:2586   */\n      tag_179\n      jump\t// in\n    tag_236:\n        /* \"#utility.yul\":2596:2668   */\n      tag_237\n        /* \"#utility.yul\":2664:2666   */\n      0x20\n        /* \"#utility.yul\":2653:2662   */\n      dup4\n        /* \"#utility.yul\":2649:2667   */\n      add\n        /* \"#utility.yul\":2640:2646   */\n      dup5\n        /* \"#utility.yul\":2596:2668   */\n      tag_176\n      jump\t// in\n    tag_237:\n        /* \"#utility.yul\":2343:2675   */\n      swap4\n      swap3\n      pop\n      pop\n      pop\n      jump\t// out\n        /* \"#utility.yul\":2681:2813   */\n    tag_180:\n        /* \"#utility.yul\":2774:2780   */\n      0x00\n        /* \"#utility.yul\":2802:2806   */\n      0x03\n        /* \"#utility.yul\":2792:2806   */\n      swap1\n      pop\n        /* \"#utility.yul\":2681:2813   */\n      swap2\n      swap1\n      pop\n      jump\t// out\n        /* \"#utility.yul\":2819:2990   */\n    tag_181:\n        /* \"#utility.yul\":2944:2955   */\n      0x00\n        /* \"#utility.yul\":2981:2984   */\n      dup2\n        /* \"#utility.yul\":2966:2984   */\n      swap1\n      pop\n        /* \"#utility.yul\":2819:2990   */\n      swap3\n      swap2\n      pop\n      pop\n      jump\t// out\n        /* \"#utility.yul\":2996:3122   */\n    tag_182:\n        /* \"#utility.yul\":3089:3093   */\n      0x00\n        /* \"#utility.yul\":3112:3115   */\n      dup2\n        /* \"#utility.yul\":3104:3115   */\n      swap1\n      pop\n        /* \"#utility.yul\":2996:3122   */\n      swap2\n      swap1\n      pop\n      jump\t// out\n        /* \"#utility.yul\":3128:3236   */\n    tag_183:\n        /* \"#utility.yul\":3205:3229   */\n      tag_242\n        /* \"#utility.yul\":3223:3228   */\n      dup2\n        /* \"#utility.yul\":3205:3229   */\n      tag_172\n      jump\t// in\n    tag_242:\n        /* \"#utility.yul\":3200:3203   */\n      dup3\n        /* \"#utility.yul\":3193:3230   */\n      mstore\n        /* \"#utility.yul\":3128:3236   */\n      pop\n      pop\n      jump\t// out\n        /* \"#utility.yul\":3242:3350   */\n    tag_184:\n        /* \"#utility.yul\":3319:3343   */\n      tag_244\n        /* \"#utility.yul\":3337:3342   */\n      dup2\n        /* \"#utility.yul\":3319:3343   */\n      tag_175\n      jump\t// in\n    tag_244:\n        /* \"#utility.yul\":3314:3317   */\n      dup3\n        /* \"#utility.yul\":3307:3344   */\n      mstore\n        /* \"#utility.yul\":3242:3350   */\n      pop\n      pop\n      jump\t// out\n        /* \"#utility.yul\":3416:3926   */\n    tag_185:\n        /* \"#utility.yul\":3559:3563   */\n      0x40\n        /* \"#utility.yul\":3554:3557   */\n      dup3\n        /* \"#utility.yul\":3550:3564   */\n      add\n        /* \"#utility.yul\":3651:3655   */\n      0x00\n        /* \"#utility.yul\":3644:3649   */\n      dup3\n        /* \"#utility.yul\":3640:3656   */\n      add\n        /* \"#utility.yul\":3634:3657   */\n      mload\n        /* \"#utility.yul\":3670:3733   */\n      tag_246\n        /* \"#utility.yul\":3727:3731   */\n      0x00\n        /* \"#utility.yul\":3722:3725   */\n      dup6\n        /* \"#utility.yul\":3718:3732   */\n      add\n        /* \"#utility.yul\":3704:3716   */\n      dup3\n        /* \"#utility.yul\":3670:3733   */\n      tag_183\n      jump\t// in\n    tag_246:\n        /* \"#utility.yul\":3574:3743   */\n      pop\n        /* \"#utility.yul\":3827:3831   */\n      0x20\n        /* \"#utility.yul\":3820:3825   */\n      dup3\n        /* \"#utility.yul\":3816:3832   */\n      add\n        /* \"#utility.yul\":3810:3833   */\n      mload\n        /* \"#utility.yul\":3846:3909   */\n      tag_247\n        /* \"#utility.yul\":3903:3907   */\n      0x20\n        /* \"#utility.yul\":3898:3901   */\n      dup6\n        /* \"#utility.yul\":3894:3908   */\n      add\n        /* \"#utility.yul\":3880:3892   */\n      dup3\n        /* \"#utility.yul\":3846:3909   */\n      tag_184\n      jump\t// in\n    tag_247:\n        /* \"#utility.yul\":3753:3919   */\n      pop\n        /* \"#utility.yul\":3528:3926   */\n      pop\n        /* \"#utility.yul\":3416:3926   */\n      pop\n      pop\n      jump\t// out\n        /* \"#utility.yul\":3932:4223   */\n    tag_186:\n        /* \"#utility.yul\":4057:4067   */\n      0x00\n        /* \"#utility.yul\":4078:4180   */\n      tag_249\n        /* \"#utility.yul\":4176:4179   */\n      dup4\n        /* \"#utility.yul\":4168:4174   */\n      dup4\n        /* \"#utility.yul\":4078:4180   */\n      tag_185\n      jump\t// in\n    tag_249:\n        /* \"#utility.yul\":4212:4216   */\n      0x40\n        /* \"#utility.yul\":4207:4210   */\n      dup4\n        /* \"#utility.yul\":4203:4217   */\n      add\n        /* \"#utility.yul\":4189:4217   */\n      swap1\n      pop\n        /* \"#utility.yul\":3932:4223   */\n      swap3\n      swap2\n      pop\n      pop\n      jump\t// out\n        /* \"#utility.yul\":4229:4368   */\n    tag_187:\n        /* \"#utility.yul\":4325:4329   */\n      0x00\n        /* \"#utility.yul\":4357:4361   */\n      0x20\n        /* \"#utility.yul\":4352:4355   */\n      dup3\n        /* \"#utility.yul\":4348:4362   */\n      add\n        /* \"#utility.yul\":4340:4362   */\n      swap1\n      pop\n        /* \"#utility.yul\":4229:4368   */\n      swap2\n      swap1\n      pop\n      jump\t// out\n        /* \"#utility.yul\":4440:5358   */\n    tag_188:\n        /* \"#utility.yul\":4632:4712   */\n      tag_252\n        /* \"#utility.yul\":4706:4711   */\n      dup2\n        /* \"#utility.yul\":4632:4712   */\n      tag_180\n      jump\t// in\n    tag_252:\n        /* \"#utility.yul\":4728:4840   */\n      tag_253\n        /* \"#utility.yul\":4833:4839   */\n      dup2\n        /* \"#utility.yul\":4828:4831   */\n      dup5\n        /* \"#utility.yul\":4728:4840   */\n      tag_181\n      jump\t// in\n    tag_253:\n        /* \"#utility.yul\":4721:4840   */\n      swap3\n      pop\n        /* \"#utility.yul\":4864:4946   */\n      tag_254\n        /* \"#utility.yul\":4940:4945   */\n      dup3\n        /* \"#utility.yul\":4864:4946   */\n      tag_182\n      jump\t// in\n    tag_254:\n        /* \"#utility.yul\":4969:4976   */\n      dup1\n        /* \"#utility.yul\":5000:5001   */\n      0x00\n        /* \"#utility.yul\":4985:5351   */\n    tag_255:\n        /* \"#utility.yul\":5010:5016   */\n      dup4\n        /* \"#utility.yul\":5007:5008   */\n      dup2\n        /* \"#utility.yul\":5004:5017   */\n      lt\n        /* \"#utility.yul\":4985:5351   */\n      iszero\n      tag_257\n      jumpi\n        /* \"#utility.yul\":5086:5092   */\n      dup2\n        /* \"#utility.yul\":5080:5093   */\n      mload\n        /* \"#utility.yul\":5113:5232   */\n      tag_258\n        /* \"#utility.yul\":5228:5231   */\n      dup8\n        /* \"#utility.yul\":5213:5226   */\n      dup3\n        /* \"#utility.yul\":5113:5232   */\n      tag_186\n      jump\t// in\n    tag_258:\n        /* \"#utility.yul\":5106:5232   */\n      swap7\n      pop\n        /* \"#utility.yul\":5255:5341   */\n      tag_259\n        /* \"#utility.yul\":5334:5340   */\n      dup4\n        /* \"#utility.yul\":5255:5341   */\n      tag_187\n      jump\t// in\n    tag_259:\n        /* \"#utility.yul\":5245:5341   */\n      swap3\n      pop\n        /* \"#utility.yul\":5045:5351   */\n      pop\n        /* \"#utility.yul\":5032:5033   */\n      0x01\n        /* \"#utility.yul\":5029:5030   */\n      dup2\n        /* \"#utility.yul\":5025:5034   */\n      add\n        /* \"#utility.yul\":5020:5034   */\n      swap1\n      pop\n        /* \"#utility.yul\":4985:5351   */\n      jump(tag_255)\n    tag_257:\n        /* \"#utility.yul\":4989:5003   */\n      pop\n        /* \"#utility.yul\":4608:5358   */\n      pop\n      pop\n      pop\n        /* \"#utility.yul\":4440:5358   */\n      pop\n      pop\n      jump\t// out\n        /* \"#utility.yul\":5364:5791   */\n    tag_47:\n        /* \"#utility.yul\":5559:5563   */\n      0x00\n        /* \"#utility.yul\":5597:5600   */\n      0xc0\n        /* \"#utility.yul\":5586:5595   */\n      dup3\n        /* \"#utility.yul\":5582:5601   */\n      add\n        /* \"#utility.yul\":5574:5601   */\n      swap1\n      pop\n        /* \"#utility.yul\":5611:5784   */\n      tag_261\n        /* \"#utility.yul\":5781:5782   */\n      0x00\n        /* \"#utility.yul\":5770:5779   */\n      dup4\n        /* \"#utility.yul\":5766:5783   */\n      add\n        /* \"#utility.yul\":5757:5763   */\n      dup5\n        /* \"#utility.yul\":5611:5784   */\n      tag_188\n      jump\t// in\n    tag_261:\n        /* \"#utility.yul\":5364:5791   */\n      swap3\n      swap2\n      pop\n      pop\n      jump\t// out\n        /* \"#utility.yul\":5797:6019   */\n    tag_60:\n        /* \"#utility.yul\":5890:5894   */\n      0x00\n        /* \"#utility.yul\":5928:5930   */\n      0x20\n        /* \"#utility.yul\":5917:5926   */\n      dup3\n        /* \"#utility.yul\":5913:5931   */\n      add\n        /* \"#utility.yul\":5905:5931   */\n      swap1\n      pop\n        /* \"#utility.yul\":5941:6012   */\n      tag_263\n        /* \"#utility.yul\":6009:6010   */\n      0x00\n        /* \"#utility.yul\":5998:6007   */\n      dup4\n        /* \"#utility.yul\":5994:6011   */\n      add\n        /* \"#utility.yul\":5985:5991   */\n      dup5\n        /* \"#utility.yul\":5941:6012   */\n      tag_179\n      jump\t// in\n    tag_263:\n        /* \"#utility.yul\":5797:6019   */\n      swap3\n      swap2\n      pop\n      pop\n      jump\t// out\n        /* \"#utility.yul\":6025:6194   */\n    tag_189:\n        /* \"#utility.yul\":6109:6120   */\n      0x00\n        /* \"#utility.yul\":6143:6149   */\n      dup3\n        /* \"#utility.yul\":6138:6141   */\n      dup3\n        /* \"#utility.yul\":6131:6150   */\n      mstore\n        /* \"#utility.yul\":6183:6187   */\n      0x20\n        /* \"#utility.yul\":6178:6181   */\n      dup3\n        /* \"#utility.yul\":6174:6188   */\n      add\n        /* \"#utility.yul\":6159:6188   */\n      swap1\n      pop\n        /* \"#utility.yul\":6025:6194   */\n      swap3\n      swap2\n      pop\n      pop\n      jump\t// out\n        /* \"#utility.yul\":6200:6424   */\n    tag_190:\n        /* \"#utility.yul\":6340:6374   */\n      0x4465706f73697420616d6f756e74206d75737420626520677265617465722074\n        /* \"#utility.yul\":6336:6337   */\n      0x00\n        /* \"#utility.yul\":6328:6334   */\n      dup3\n        /* \"#utility.yul\":6324:6338   */\n      add\n        /* \"#utility.yul\":6317:6375   */\n      mstore\n        /* \"#utility.yul\":6409:6416   */\n      0x68616e2030000000000000000000000000000000000000000000000000000000\n        /* \"#utility.yul\":6404:6406   */\n      0x20\n        /* \"#utility.yul\":6396:6402   */\n      dup3\n        /* \"#utility.yul\":6392:6407   */\n      add\n        /* \"#utility.yul\":6385:6417   */\n      mstore\n        /* \"#utility.yul\":6200:6424   */\n      pop\n      jump\t// out\n        /* \"#utility.yul\":6430:6796   */\n    tag_191:\n        /* \"#utility.yul\":6572:6575   */\n      0x00\n        /* \"#utility.yul\":6593:6660   */\n      tag_267\n        /* \"#utility.yul\":6657:6659   */\n      0x25\n        /* \"#utility.yul\":6652:6655   */\n      dup4\n        /* \"#utility.yul\":6593:6660   */\n      tag_189\n      jump\t// in\n    tag_267:\n        /* \"#utility.yul\":6586:6660   */\n      swap2\n      pop\n        /* \"#utility.yul\":6669:6762   */\n      tag_268\n        /* \"#utility.yul\":6758:6761   */\n      dup3\n        /* \"#utility.yul\":6669:6762   */\n      tag_190\n      jump\t// in\n    tag_268:\n        /* \"#utility.yul\":6787:6789   */\n      0x40\n        /* \"#utility.yul\":6782:6785   */\n      dup3\n        /* \"#utility.yul\":6778:6790   */\n      add\n        /* \"#utility.yul\":6771:6790   */\n      swap1\n      pop\n        /* \"#utility.yul\":6430:6796   */\n      swap2\n      swap1\n      pop\n      jump\t// out\n        /* \"#utility.yul\":6802:7221   */\n    tag_69:\n        /* \"#utility.yul\":6968:6972   */\n      0x00\n        /* \"#utility.yul\":7006:7008   */\n      0x20\n        /* \"#utility.yul\":6995:7004   */\n      dup3\n        /* \"#utility.yul\":6991:7009   */\n      add\n        /* \"#utility.yul\":6983:7009   */\n      swap1\n      pop\n        /* \"#utility.yul\":7055:7064   */\n      dup2\n        /* \"#utility.yul\":7049:7053   */\n      dup2\n        /* \"#utility.yul\":7045:7065   */\n      sub\n        /* \"#utility.yul\":7041:7042   */\n      0x00\n        /* \"#utility.yul\":7030:7039   */\n      dup4\n        /* \"#utility.yul\":7026:7043   */\n      add\n        /* \"#utility.yul\":7019:7066   */\n      mstore\n        /* \"#utility.yul\":7083:7214   */\n      tag_270\n        /* \"#utility.yul\":7209:7213   */\n      dup2\n        /* \"#utility.yul\":7083:7214   */\n      tag_191\n      jump\t// in\n    tag_270:\n        /* \"#utility.yul\":7075:7214   */\n      swap1\n      pop\n        /* \"#utility.yul\":6802:7221   */\n      swap2\n      swap1\n      pop\n      jump\t// out\n        /* \"#utility.yul\":7227:7407   */\n    tag_192:\n        /* \"#utility.yul\":7275:7352   */\n      0x4e487b7100000000000000000000000000000000000000000000000000000000\n        /* \"#utility.yul\":7272:7273   */\n      0x00\n        /* \"#utility.yul\":7265:7353   */\n      mstore\n        /* \"#utility.yul\":7372:7376   */\n      0x11\n        /* \"#utility.yul\":7369:7370   */\n      0x04\n        /* \"#utility.yul\":7362:7377   */\n      mstore\n        /* \"#utility.yul\":7396:7400   */\n      0x24\n        /* \"#utility.yul\":7393:7394   */\n      0x00\n        /* \"#utility.yul\":7386:7401   */\n      revert\n        /* \"#utility.yul\":7413:7604   */\n    tag_71:\n        /* \"#utility.yul\":7453:7456   */\n      0x00\n        /* \"#utility.yul\":7472:7492   */\n      tag_273\n        /* \"#utility.yul\":7490:7491   */\n      dup3\n        /* \"#utility.yul\":7472:7492   */\n      tag_175\n      jump\t// in\n    tag_273:\n        /* \"#utility.yul\":7467:7492   */\n      swap2\n      pop\n        /* \"#utility.yul\":7506:7526   */\n      tag_274\n        /* \"#utility.yul\":7524:7525   */\n      dup4\n        /* \"#utility.yul\":7506:7526   */\n      tag_175\n      jump\t// in\n    tag_274:\n        /* \"#utility.yul\":7501:7526   */\n      swap3\n      pop\n        /* \"#utility.yul\":7549:7550   */\n      dup3\n        /* \"#utility.yul\":7546:7547   */\n      dup3\n        /* \"#utility.yul\":7542:7551   */\n      add\n        /* \"#utility.yul\":7535:7551   */\n      swap1\n      pop\n        /* \"#utility.yul\":7570:7573   */\n      dup1\n        /* \"#utility.yul\":7567:7568   */\n      dup3\n        /* \"#utility.yul\":7564:7574   */\n      gt\n        /* \"#utility.yul\":7561:7597   */\n      iszero\n      tag_275\n      jumpi\n        /* \"#utility.yul\":7577:7595   */\n      tag_276\n      tag_192\n      jump\t// in\n    tag_276:\n        /* \"#utility.yul\":7561:7597   */\n    tag_275:\n        /* \"#utility.yul\":7413:7604   */\n      swap3\n      swap2\n      pop\n      pop\n      jump\t// out\n        /* \"#utility.yul\":7610:7830   */\n    tag_193:\n        /* \"#utility.yul\":7750:7784   */\n      0x4f6e6c792061646d696e2063616e2063616c6c20746869732066756e6374696f\n        /* \"#utility.yul\":7746:7747   */\n      0x00\n        /* \"#utility.yul\":7738:7744   */\n      dup3\n        /* \"#utility.yul\":7734:7748   */\n      add\n        /* \"#utility.yul\":7727:7785   */\n      mstore\n        /* \"#utility.yul\":7819:7822   */\n      0x6e00000000000000000000000000000000000000000000000000000000000000\n        /* \"#utility.yul\":7814:7816   */\n      0x20\n        /* \"#utility.yul\":7806:7812   */\n      dup3\n        /* \"#utility.yul\":7802:7817   */\n      add\n        /* \"#utility.yul\":7795:7823   */\n      mstore\n        /* \"#utility.yul\":7610:7830   */\n      pop\n      jump\t// out\n        /* \"#utility.yul\":7836:8202   */\n    tag_194:\n        /* \"#utility.yul\":7978:7981   */\n      0x00\n        /* \"#utility.yul\":7999:8066   */\n      tag_279\n        /* \"#utility.yul\":8063:8065   */\n      0x21\n        /* \"#utility.yul\":8058:8061   */\n      dup4\n        /* \"#utility.yul\":7999:8066   */\n      tag_189\n      jump\t// in\n    tag_279:\n        /* \"#utility.yul\":7992:8066   */\n      swap2\n      pop\n        /* \"#utility.yul\":8075:8168   */\n      tag_280\n        /* \"#utility.yul\":8164:8167   */\n      dup3\n        /* \"#utility.yul\":8075:8168   */\n      tag_193\n      jump\t// in\n    tag_280:\n        /* \"#utility.yul\":8193:8195   */\n      0x40\n        /* \"#utility.yul\":8188:8191   */\n      dup3\n        /* \"#utility.yul\":8184:8196   */\n      add\n        /* \"#utility.yul\":8177:8196   */\n      swap1\n      pop\n        /* \"#utility.yul\":7836:8202   */\n      swap2\n      swap1\n      pop\n      jump\t// out\n        /* \"#utility.yul\":8208:8627   */\n    tag_78:\n        /* \"#utility.yul\":8374:8378   */\n      0x00\n        /* \"#utility.yul\":8412:8414   */\n      0x20\n        /* \"#utility.yul\":8401:8410   */\n      dup3\n        /* \"#utility.yul\":8397:8415   */\n      add\n        /* \"#utility.yul\":8389:8415   */\n      swap1\n      pop\n        /* \"#utility.yul\":8461:8470   */\n      dup2\n        /* \"#utility.yul\":8455:8459   */\n      dup2\n        /* \"#utility.yul\":8451:8471   */\n      sub\n        /* \"#utility.yul\":8447:8448   */\n      0x00\n        /* \"#utility.yul\":8436:8445   */\n      dup4\n        /* \"#utility.yul\":8432:8449   */\n      add\n        /* \"#utility.yul\":8425:8472   */\n      mstore\n        /* \"#utility.yul\":8489:8620   */\n      tag_282\n        /* \"#utility.yul\":8615:8619   */\n      dup2\n        /* \"#utility.yul\":8489:8620   */\n      tag_194\n      jump\t// in\n    tag_282:\n        /* \"#utility.yul\":8481:8620   */\n      swap1\n      pop\n        /* \"#utility.yul\":8208:8627   */\n      swap2\n      swap1\n      pop\n      jump\t// out\n        /* \"#utility.yul\":8633:8858   */\n    tag_195:\n        /* \"#utility.yul\":8773:8807   */\n      0x576974686472617720616d6f756e74206d757374206265206772656174657220\n        /* \"#utility.yul\":8769:8770   */\n      0x00\n        /* \"#utility.yul\":8761:8767   */\n      dup3\n        /* \"#utility.yul\":8757:8771   */\n      add\n        /* \"#utility.yul\":8750:8808   */\n      mstore\n        /* \"#utility.yul\":8842:8850   */\n      0x7468616e20300000000000000000000000000000000000000000000000000000\n        /* \"#utility.yul\":8837:8839   */\n      0x20\n        /* \"#utility.yul\":8829:8835   */\n      dup3\n        /* \"#utility.yul\":8825:8840   */\n      add\n        /* \"#utility.yul\":8818:8851   */\n      mstore\n        /* \"#utility.yul\":8633:8858   */\n      pop\n      jump\t// out\n        /* \"#utility.yul\":8864:9230   */\n    tag_196:\n        /* \"#utility.yul\":9006:9009   */\n      0x00\n        /* \"#utility.yul\":9027:9094   */\n      tag_285\n        /* \"#utility.yul\":9091:9093   */\n      0x26\n        /* \"#utility.yul\":9086:9089   */\n      dup4\n        /* \"#utility.yul\":9027:9094   */\n      tag_189\n      jump\t// in\n    tag_285:\n        /* \"#utility.yul\":9020:9094   */\n      swap2\n      pop\n        /* \"#utility.yul\":9103:9196   */\n      tag_286\n        /* \"#utility.yul\":9192:9195   */\n      dup3\n        /* \"#utility.yul\":9103:9196   */\n      tag_195\n      jump\t// in\n    tag_286:\n        /* \"#utility.yul\":9221:9223   */\n      0x40\n        /* \"#utility.yul\":9216:9219   */\n      dup3\n        /* \"#utility.yul\":9212:9224   */\n      add\n        /* \"#utility.yul\":9205:9224   */\n      swap1\n      pop\n        /* \"#utility.yul\":8864:9230   */\n      swap2\n      swap1\n      pop\n      jump\t// out\n        /* \"#utility.yul\":9236:9655   */\n    tag_82:\n        /* \"#utility.yul\":9402:9406   */\n      0x00\n        /* \"#utility.yul\":9440:9442   */\n      0x20\n        /* \"#utility.yul\":9429:9438   */\n      dup3\n        /* \"#utility.yul\":9425:9443   */\n      add\n        /* \"#utility.yul\":9417:9443   */\n      swap1\n      pop\n        /* \"#utility.yul\":9489:9498   */\n      dup2\n        /* \"#utility.yul\":9483:9487   */\n      dup2\n        /* \"#utility.yul\":9479:9499   */\n      sub\n        /* \"#utility.yul\":9475:9476   */\n      0x00\n        /* \"#utility.yul\":9464:9473   */\n      dup4\n        /* \"#utility.yul\":9460:9477   */\n      add\n        /* \"#utility.yul\":9453:9500   */\n      mstore\n        /* \"#utility.yul\":9517:9648   */\n      tag_288\n        /* \"#utility.yul\":9643:9647   */\n      dup2\n        /* \"#utility.yul\":9517:9648   */\n      tag_196\n      jump\t// in\n    tag_288:\n        /* \"#utility.yul\":9509:9648   */\n      swap1\n      pop\n        /* \"#utility.yul\":9236:9655   */\n      swap2\n      swap1\n      pop\n      jump\t// out\n        /* \"#utility.yul\":9661:9840   */\n    tag_197:\n        /* \"#utility.yul\":9801:9832   */\n      0x496e73756666696369656e7420636f6e74726163742062616c616e6365000000\n        /* \"#utility.yul\":9797:9798   */\n      0x00\n        /* \"#utility.yul\":9789:9795   */\n      dup3\n        /* \"#utility.yul\":9785:9799   */\n      add\n        /* \"#utility.yul\":9778:9833   */\n      mstore\n        /* \"#utility.yul\":9661:9840   */\n      pop\n      jump\t// out\n        /* \"#utility.yul\":9846:10212   */\n    tag_198:\n        /* \"#utility.yul\":9988:9991   */\n      0x00\n        /* \"#utility.yul\":10009:10076   */\n      tag_291\n        /* \"#utility.yul\":10073:10075   */\n      0x1d\n        /* \"#utility.yul\":10068:10071   */\n      dup4\n        /* \"#utility.yul\":10009:10076   */\n      tag_189\n      jump\t// in\n    tag_291:\n        /* \"#utility.yul\":10002:10076   */\n      swap2\n      pop\n        /* \"#utility.yul\":10085:10178   */\n      tag_292\n        /* \"#utility.yul\":10174:10177   */\n      dup3\n        /* \"#utility.yul\":10085:10178   */\n      tag_197\n      jump\t// in\n    tag_292:\n        /* \"#utility.yul\":10203:10205   */\n      0x20\n        /* \"#utility.yul\":10198:10201   */\n      dup3\n        /* \"#utility.yul\":10194:10206   */\n      add\n        /* \"#utility.yul\":10187:10206   */\n      swap1\n      pop\n        /* \"#utility.yul\":9846:10212   */\n      swap2\n      swap1\n      pop\n      jump\t// out\n        /* \"#utility.yul\":10218:10637   */\n    tag_85:\n        /* \"#utility.yul\":10384:10388   */\n      0x00\n        /* \"#utility.yul\":10422:10424   */\n      0x20\n        /* \"#utility.yul\":10411:10420   */\n      dup3\n        /* \"#utility.yul\":10407:10425   */\n      add\n        /* \"#utility.yul\":10399:10425   */\n      swap1\n      pop\n        /* \"#utility.yul\":10471:10480   */\n      dup2\n        /* \"#utility.yul\":10465:10469   */\n      dup2\n        /* \"#utility.yul\":10461:10481   */\n      sub\n        /* \"#utility.yul\":10457:10458   */\n      0x00\n        /* \"#utility.yul\":10446:10455   */\n      dup4\n        /* \"#utility.yul\":10442:10459   */\n      add\n        /* \"#utility.yul\":10435:10482   */\n      mstore\n        /* \"#utility.yul\":10499:10630   */\n      tag_294\n        /* \"#utility.yul\":10625:10629   */\n      dup2\n        /* \"#utility.yul\":10499:10630   */\n      tag_198\n      jump\t// in\n    tag_294:\n        /* \"#utility.yul\":10491:10630   */\n      swap1\n      pop\n        /* \"#utility.yul\":10218:10637   */\n      swap2\n      swap1\n      pop\n      jump\t// out\n        /* \"#utility.yul\":10643:10813   */\n    tag_199:\n        /* \"#utility.yul\":10783:10805   */\n      0x4e6f2066756e647320746f207769746864726177000000000000000000000000\n        /* \"#utility.yul\":10779:10780   */\n      0x00\n        /* \"#utility.yul\":10771:10777   */\n      dup3\n        /* \"#utility.yul\":10767:10781   */\n      add\n        /* \"#utility.yul\":10760:10806   */\n      mstore\n        /* \"#utility.yul\":10643:10813   */\n      pop\n      jump\t// out\n        /* \"#utility.yul\":10819:11185   */\n    tag_200:\n        /* \"#utility.yul\":10961:10964   */\n      0x00\n        /* \"#utility.yul\":10982:11049   */\n      tag_297\n        /* \"#utility.yul\":11046:11048   */\n      0x14\n        /* \"#utility.yul\":11041:11044   */\n      dup4\n        /* \"#utility.yul\":10982:11049   */\n      tag_189\n      jump\t// in\n    tag_297:\n        /* \"#utility.yul\":10975:11049   */\n      swap2\n      pop\n        /* \"#utility.yul\":11058:11151   */\n      tag_298\n        /* \"#utility.yul\":11147:11150   */\n      dup3\n        /* \"#utility.yul\":11058:11151   */\n      tag_199\n      jump\t// in\n    tag_298:\n        /* \"#utility.yul\":11176:11178   */\n      0x20\n        /* \"#utility.yul\":11171:11174   */\n      dup3\n        /* \"#utility.yul\":11167:11179   */\n      add\n        /* \"#utility.yul\":11160:11179   */\n      swap1\n      pop\n        /* \"#utility.yul\":10819:11185   */\n      swap2\n      swap1\n      pop\n      jump\t// out\n        /* \"#utility.yul\":11191:11610   */\n    tag_104:\n        /* \"#utility.yul\":11357:11361   */\n      0x00\n        /* \"#utility.yul\":11395:11397   */\n      0x20\n        /* \"#utility.yul\":11384:11393   */\n      dup3\n        /* \"#utility.yul\":11380:11398   */\n      add\n        /* \"#utility.yul\":11372:11398   */\n      swap1\n      pop\n        /* \"#utility.yul\":11444:11453   */\n      dup2\n        /* \"#utility.yul\":11438:11442   */\n      dup2\n        /* \"#utility.yul\":11434:11454   */\n      sub\n        /* \"#utility.yul\":11430:11431   */\n      0x00\n        /* \"#utility.yul\":11419:11428   */\n      dup4\n        /* \"#utility.yul\":11415:11432   */\n      add\n        /* \"#utility.yul\":11408:11455   */\n      mstore\n        /* \"#utility.yul\":11472:11603   */\n      tag_300\n        /* \"#utility.yul\":11598:11602   */\n      dup2\n        /* \"#utility.yul\":11472:11603   */\n      tag_200\n      jump\t// in\n    tag_300:\n        /* \"#utility.yul\":11464:11603   */\n      swap1\n      pop\n        /* \"#utility.yul\":11191:11610   */\n      swap2\n      swap1\n      pop\n      jump\t// out\n        /* \"#utility.yul\":11616:11798   */\n    tag_201:\n        /* \"#utility.yul\":11756:11790   */\n      0x4e65772061646d696e2063616e6e6f74206265207a65726f2061646472657373\n        /* \"#utility.yul\":11752:11753   */\n      0x00\n        /* \"#utility.yul\":11744:11750   */\n      dup3\n        /* \"#utility.yul\":11740:11754   */\n      add\n        /* \"#utility.yul\":11733:11791   */\n      mstore\n        /* \"#utility.yul\":11616:11798   */\n      pop\n      jump\t// out\n        /* \"#utility.yul\":11804:12170   */\n    tag_202:\n        /* \"#utility.yul\":11946:11949   */\n      0x00\n        /* \"#utility.yul\":11967:12034   */\n      tag_303\n        /* \"#utility.yul\":12031:12033   */\n      0x20\n        /* \"#utility.yul\":12026:12029   */\n      dup4\n        /* \"#utility.yul\":11967:12034   */\n      tag_189\n      jump\t// in\n    tag_303:\n        /* \"#utility.yul\":11960:12034   */\n      swap2\n      pop\n        /* \"#utility.yul\":12043:12136   */\n      tag_304\n        /* \"#utility.yul\":12132:12135   */\n      dup3\n        /* \"#utility.yul\":12043:12136   */\n      tag_201\n      jump\t// in\n    tag_304:\n        /* \"#utility.yul\":12161:12163   */\n      0x20\n        /* \"#utility.yul\":12156:12159   */\n      dup3\n        /* \"#utility.yul\":12152:12164   */\n      add\n        /* \"#utility.yul\":12145:12164   */\n      swap1\n      pop\n        /* \"#utility.yul\":11804:12170   */\n      swap2\n      swap1\n      pop\n      jump\t// out\n        /* \"#utility.yul\":12176:12595   */\n    tag_114:\n        /* \"#utility.yul\":12342:12346   */\n      0x00\n        /* \"#utility.yul\":12380:12382   */\n      0x20\n        /* \"#utility.yul\":12369:12378   */\n      dup3\n        /* \"#utility.yul\":12365:12383   */\n      add\n        /* \"#utility.yul\":12357:12383   */\n      swap1\n      pop\n        /* \"#utility.yul\":12429:12438   */\n      dup2\n        /* \"#utility.yul\":12423:12427   */\n      dup2\n        /* \"#utility.yul\":12419:12439   */\n      sub\n        /* \"#utility.yul\":12415:12416   */\n      0x00\n        /* \"#utility.yul\":12404:12413   */\n      dup4\n        /* \"#utility.yul\":12400:12417   */\n      add\n        /* \"#utility.yul\":12393:12440   */\n      mstore\n        /* \"#utility.yul\":12457:12588   */\n      tag_306\n        /* \"#utility.yul\":12583:12587   */\n      dup2\n        /* \"#utility.yul\":12457:12588   */\n      tag_202\n      jump\t// in\n    tag_306:\n        /* \"#utility.yul\":12449:12588   */\n      swap1\n      pop\n        /* \"#utility.yul\":12176:12595   */\n      swap2\n      swap1\n      pop\n      jump\t// out\n        /* \"#utility.yul\":12601:12781   */\n    tag_122:\n        /* \"#utility.yul\":12649:12726   */\n      0x4e487b7100000000000000000000000000000000000000000000000000000000\n        /* \"#utility.yul\":12646:12647   */\n      0x00\n        /* \"#utility.yul\":12639:12727   */\n      mstore\n        /* \"#utility.yul\":12746:12750   */\n      0x32\n        /* \"#utility.yul\":12743:12744   */\n      0x04\n        /* \"#utility.yul\":12736:12751   */\n      mstore\n        /* \"#utility.yul\":12770:12774   */\n      0x24\n        /* \"#utility.yul\":12767:12768   */\n      0x00\n        /* \"#utility.yul\":12760:12775   */\n      revert\n\n    auxdata: 0xa264697066735822122008fab5c218b5d91292812cbe415e8f9dcc772df42546c2f0a5fa92902be8505064736f6c634300081e0033\n}\n",
				"bytecode": {
					"linkReferences": {},
					"object": "6080604052348015600e575f5ffd5b50335f5f6101000a81548173ffffffffffffffffffffffffffffffffffffffff021916908373ffffffffffffffffffffffffffffffffffffffff1602179055506114158061005b5f395ff3fe608060405260043610610094575f3560e01c8063853828b611610058578063853828b6146101a25780638f283970146101b8578063d0e30db0146101e0578063f851a440146101ea578063f8b2cb4f14610214576100a3565b806327e235e3146100ad5780632e1a7d4d146100e957806330861078146101115780636f9fb98a1461014e57806381454f7114610178576100a3565b366100a3576100a1610250565b005b6100ab610250565b005b3480156100b8575f5ffd5b506100d360048036038101906100ce9190610e66565b61037c565b6040516100e09190610ea9565b60405180910390f35b3480156100f4575f5ffd5b5061010f600480360381019061010a9190610eec565b610391565b005b34801561011c575f5ffd5b5061013760048036038101906101329190610eec565b610579565b604051610145929190610f26565b60405180910390f35b348015610159575f5ffd5b506101626105bf565b60405161016f9190610ea9565b60405180910390f35b348015610183575f5ffd5b5061018c6105c6565b604051610199919061102e565b60405180910390f35b3480156101ad575f5ffd5b506101b6610675565b005b3480156101c3575f5ffd5b506101de60048036038101906101d99190610e66565b61081e565b005b6101e8610250565b005b3480156101f5575f5ffd5b506101fe61095c565b60405161020b9190611047565b60405180910390f35b34801561021f575f5ffd5b5061023a60048036038101906102359190610e66565b610980565b6040516102479190610ea9565b60405180910390f35b5f3411610292576040517f08c379a0000000000000000000000000000000000000000000000000000000008152600401610289906110e0565b60405180910390fd5b3460015f3373ffffffffffffffffffffffffffffffffffffffff1673ffffffffffffffffffffffffffffffffffffffff1681526020019081526020015f205f8282546102de919061112b565b9250508190555061032c3360015f3373ffffffffffffffffffffffffffffffffffffffff1673ffffffffffffffffffffffffffffffffffffffff1681526020019081526020015f20546109c6565b3373ffffffffffffffffffffffffffffffffffffffff167fe1fffcc4923d04b559f4d29a8bfc6cda04eb5b0d3c460751c2402c5c5cc9109c346040516103729190610ea9565b60405180910390a2565b6001602052805f5260405f205f915090505481565b5f5f9054906101000a900473ffffffffffffffffffffffffffffffffffffffff1673ffffffffffffffffffffffffffffffffffffffff163373ffffffffffffffffffffffffffffffffffffffff161461041f576040517f08c379a0000000000000000000000000000000000000000000000000000000008152600401610416906111ce565b60405180910390fd5b5f8111610461576040517f08c379a00000000000000000000000000000000000000000000000000000000081526004016104589061125c565b60405180910390fd5b804710156104a4576040517f08c379a000000000000000000000000000000000000000000000000000000000815260040161049b906112c4565b60405180910390fd5b5f5f9054906101000a900473ffffffffffffffffffffffffffffffffffffffff1673ffffffffffffffffffffffffffffffffffffffff166108fc8290811502906040515f60405180830381858888f19350505050158015610507573d5f5f3e3d5ffd5b505f5f9054906101000a900473ffffffffffffffffffffffffffffffffffffffff1673ffffffffffffffffffffffffffffffffffffffff167f884edad9ce6fa2440d8a54cc123490eb96d2768479d49ff9c7366125a94243648260405161056e9190610ea9565b60405180910390a250565b60028160038110610588575f80fd5b600202015f91509050805f015f9054906101000a900473ffffffffffffffffffffffffffffffffffffffff16908060010154905082565b5f47905090565b6105ce610dad565b6002600380602002604051908101604052809291905f905b8282101561066c578382600202016040518060400160405290815f82015f9054906101000a900473ffffffffffffffffffffffffffffffffffffffff1673ffffffffffffffffffffffffffffffffffffffff1673ffffffffffffffffffffffffffffffffffffffff168152602001600182015481525050815260200190600101906105e6565b50505050905090565b5f5f9054906101000a900473ffffffffffffffffffffffffffffffffffffffff1673ffffffffffffffffffffffffffffffffffffffff163373ffffffffffffffffffffffffffffffffffffffff1614610703576040517f08c379a00000000000000000000000000000000000000000000000000000000081526004016106fa906111ce565b60405180910390fd5b5f4790505f8111610749576040517f08c379a00000000000000000000000000000000000000000000000000000000081526004016107409061132c565b60405180910390fd5b5f5f9054906101000a900473ffffffffffffffffffffffffffffffffffffffff1673ffffffffffffffffffffffffffffffffffffffff166108fc8290811502906040515f60405180830381858888f193505050501580156107ac573d5f5f3e3d5ffd5b505f5f9054906101000a900473ffffffffffffffffffffffffffffffffffffffff1673ffffffffffffffffffffffffffffffffffffffff167f884edad9ce6fa2440d8a54cc123490eb96d2768479d49ff9c7366125a9424364826040516108139190610ea9565b60405180910390a250565b5f5f9054906101000a900473ffffffffffffffffffffffffffffffffffffffff1673ffffffffffffffffffffffffffffffffffffffff163373ffffffffffffffffffffffffffffffffffffffff16146108ac576040517f08c379a00000000000000000000000000000000000000000000000000000000081526004016108a3906111ce565b60405180910390fd5b5f73ffffffffffffffffffffffffffffffffffffffff168173ffffffffffffffffffffffffffffffffffffffff160361091a576040517f08c379a000000000000000000000000000000000000000000000000000000000815260040161091190611394565b60405180910390fd5b805f5f6101000a81548173ffffffffffffffffffffffffffffffffffffffff021916908373ffffffffffffffffffffffffffffffffffffffff16021790555050565b5f5f9054906101000a900473ffffffffffffffffffffffffffffffffffffffff1681565b5f60015f8373ffffffffffffffffffffffffffffffffffffffff1673ffffffffffffffffffffffffffffffffffffffff1681526020019081526020015f20549050919050565b5f5f90505b6003811015610aa7578273ffffffffffffffffffffffffffffffffffffffff16600282600381106109ff576109fe6113b2565b5b600202015f015f9054906101000a900473ffffffffffffffffffffffffffffffffffffffff1673ffffffffffffffffffffffffffffffffffffffff1603610a9a578160028260038110610a5557610a546113b2565b5b6002020160010181905550610a68610b99565b7f836bf56a9e2bd785315ac92d9f5209b1247f4e0184c58f743355e01d47e51c3b60405160405180910390a150610b95565b80806001019150506109cb565b5060028060038110610abc57610abb6113b2565b5b6002020160010154811115610b945760405180604001604052808373ffffffffffffffffffffffffffffffffffffffff1681526020018281525060028060038110610b0a57610b096113b2565b5b600202015f820151815f015f6101000a81548173ffffffffffffffffffffffffffffffffffffffff021916908373ffffffffffffffffffffffffffffffffffffffff16021790555060208201518160010155905050610b67610b99565b7f836bf56a9e2bd785315ac92d9f5209b1247f4e0184c58f743355e01d47e51c3b60405160405180910390a15b5b5050565b5f5f90505b6002811015610daa575f600182610bb5919061112b565b90505b6003811015610d9c5760028160038110610bd557610bd46113b2565b5b600202016001015460028360038110610bf157610bf06113b2565b5b60020201600101541015610d8f575f60028360038110610c1457610c136113b2565b5b600202016040518060400160405290815f82015f9054906101000a900473ffffffffffffffffffffffffffffffffffffffff1673ffffffffffffffffffffffffffffffffffffffff1673ffffffffffffffffffffffffffffffffffffffff168152602001600182015481525050905060028260038110610c9757610c966113b2565b5b6002020160028460038110610caf57610cae6113b2565b5b600202015f82015f9054906101000a900473ffffffffffffffffffffffffffffffffffffffff16815f015f6101000a81548173ffffffffffffffffffffffffffffffffffffffff021916908373ffffffffffffffffffffffffffffffffffffffff160217905550600182015481600101559050508060028360038110610d3857610d376113b2565b5b600202015f820151815f015f6101000a81548173ffffffffffffffffffffffffffffffffffffffff021916908373ffffffffffffffffffffffffffffffffffffffff16021790555060208201518160010155905050505b8080600101915050610bb8565b508080600101915050610b9e565b50565b60405180606001604052806003905b610dc4610dda565b815260200190600190039081610dbc5790505090565b60405180604001604052805f73ffffffffffffffffffffffffffffffffffffffff1681526020015f81525090565b5f5ffd5b5f73ffffffffffffffffffffffffffffffffffffffff82169050919050565b5f610e3582610e0c565b9050919050565b610e4581610e2b565b8114610e4f575f5ffd5b50565b5f81359050610e6081610e3c565b92915050565b5f60208284031215610e7b57610e7a610e08565b5b5f610e8884828501610e52565b91505092915050565b5f819050919050565b610ea381610e91565b82525050565b5f602082019050610ebc5f830184610e9a565b92915050565b610ecb81610e91565b8114610ed5575f5ffd5b50565b5f81359050610ee681610ec2565b92915050565b5f60208284031215610f0157610f00610e08565b5b5f610f0e84828501610ed8565b91505092915050565b610f2081610e2b565b82525050565b5f604082019050610f395f830185610f17565b610f466020830184610e9a565b9392505050565b5f60039050919050565b5f81905092915050565b5f819050919050565b610f7381610e2b565b82525050565b610f8281610e91565b82525050565b604082015f820151610f9c5f850182610f6a565b506020820151610faf6020850182610f79565b50505050565b5f610fc08383610f88565b60408301905092915050565b5f602082019050919050565b610fe181610f4d565b610feb8184610f57565b9250610ff682610f61565b805f5b8381101561102657815161100d8782610fb5565b965061101883610fcc565b925050600181019050610ff9565b505050505050565b5f60c0820190506110415f830184610fd8565b92915050565b5f60208201905061105a5f830184610f17565b92915050565b5f82825260208201905092915050565b7f4465706f73697420616d6f756e74206d757374206265206772656174657220745f8201527f68616e2030000000000000000000000000000000000000000000000000000000602082015250565b5f6110ca602583611060565b91506110d582611070565b604082019050919050565b5f6020820190508181035f8301526110f7816110be565b9050919050565b7f4e487b71000000000000000000000000000000000000000000000000000000005f52601160045260245ffd5b5f61113582610e91565b915061114083610e91565b9250828201905080821115611158576111576110fe565b5b92915050565b7f4f6e6c792061646d696e2063616e2063616c6c20746869732066756e6374696f5f8201527f6e00000000000000000000000000000000000000000000000000000000000000602082015250565b5f6111b8602183611060565b91506111c38261115e565b604082019050919050565b5f6020820190508181035f8301526111e5816111ac565b9050919050565b7f576974686472617720616d6f756e74206d7573742062652067726561746572205f8201527f7468616e20300000000000000000000000000000000000000000000000000000602082015250565b5f611246602683611060565b9150611251826111ec565b604082019050919050565b5f6020820190508181035f8301526112738161123a565b9050919050565b7f496e73756666696369656e7420636f6e74726163742062616c616e63650000005f82015250565b5f6112ae601d83611060565b91506112b98261127a565b602082019050919050565b5f6020820190508181035f8301526112db816112a2565b9050919050565b7f4e6f2066756e647320746f2077697468647261770000000000000000000000005f82015250565b5f611316601483611060565b9150611321826112e2565b602082019050919050565b5f6020820190508181035f8301526113438161130a565b9050919050565b7f4e65772061646d696e2063616e6e6f74206265207a65726f20616464726573735f82015250565b5f61137e602083611060565b91506113898261134a565b602082019050919050565b5f6020820190508181035f8301526113ab81611372565b9050919050565b7f4e487b71000000000000000000000000000000000000000000000000000000005f52603260045260245ffdfea264697066735822122008fab5c218b5d91292812cbe415e8f9dcc772df42546c2f0a5fa92902be8505064736f6c634300081e0033",
					"opcodes": "PUSH1 0x80 PUSH1 0x40 MSTORE CALLVALUE DUP1 ISZERO PUSH1 0xE JUMPI PUSH0 PUSH0 REVERT JUMPDEST POP CALLER PUSH0 PUSH0 PUSH2 0x100 EXP DUP2 SLOAD DUP2 PUSH20 0xFFFFFFFFFFFFFFFFFFFFFFFFFFFFFFFFFFFFFFFF MUL NOT AND SWAP1 DUP4 PUSH20 0xFFFFFFFFFFFFFFFFFFFFFFFFFFFFFFFFFFFFFFFF AND MUL OR SWAP1 SSTORE POP PUSH2 0x1415 DUP1 PUSH2 0x5B PUSH0 CODECOPY PUSH0 RETURN INVALID PUSH1 0x80 PUSH1 0x40 MSTORE PUSH1 0x4 CALLDATASIZE LT PUSH2 0x94 JUMPI PUSH0 CALLDATALOAD PUSH1 0xE0 SHR DUP1 PUSH4 0x853828B6 GT PUSH2 0x58 JUMPI DUP1 PUSH4 0x853828B6 EQ PUSH2 0x1A2 JUMPI DUP1 PUSH4 0x8F283970 EQ PUSH2 0x1B8 JUMPI DUP1 PUSH4 0xD0E30DB0 EQ PUSH2 0x1E0 JUMPI DUP1 PUSH4 0xF851A440 EQ PUSH2 0x1EA JUMPI DUP1 PUSH4 0xF8B2CB4F EQ PUSH2 0x214 JUMPI PUSH2 0xA3 JUMP JUMPDEST DUP1 PUSH4 0x27E235E3 EQ PUSH2 0xAD JUMPI DUP1 PUSH4 0x2E1A7D4D EQ PUSH2 0xE9 JUMPI DUP1 PUSH4 0x30861078 EQ PUSH2 0x111 JUMPI DUP1 PUSH4 0x6F9FB98A EQ PUSH2 0x14E JUMPI DUP1 PUSH4 0x81454F71 EQ PUSH2 0x178 JUMPI PUSH2 0xA3 JUMP JUMPDEST CALLDATASIZE PUSH2 0xA3 JUMPI PUSH2 0xA1 PUSH2 0x250 JUMP JUMPDEST STOP JUMPDEST PUSH2 0xAB PUSH2 0x250 JUMP JUMPDEST STOP JUMPDEST CALLVALUE DUP1 ISZERO PUSH2 0xB8 JUMPI PUSH0 PUSH0 REVERT JUMPDEST POP PUSH2 0xD3 PUSH1 0x4 DUP1 CALLDATASIZE SUB DUP2 ADD SWAP1 PUSH2 0xCE SWAP2 SWAP1 PUSH2 0xE66 JUMP JUMPDEST PUSH2 0x37C JUMP JUMPDEST PUSH1 0x40 MLOAD PUSH2 0xE0 SWAP2 SWAP1 PUSH2 0xEA9 JUMP JUMPDEST PUSH1 0x40 MLOAD DUP1 SWAP2 SUB SWAP1 RETURN JUMPDEST CALLVALUE DUP1 ISZERO PUSH2 0xF4 JUMPI PUSH0 PUSH0 REVERT JUMPDEST POP PUSH2 0x10F PUSH1 0x4 DUP1 CALLDATASIZE SUB DUP2 ADD SWAP1 PUSH2 0x10A SWAP2 SWAP1 PUSH2 0xEEC JUMP JUMPDEST PUSH2 0x391 JUMP JUMPDEST STOP JUMPDEST CALLVALUE DUP1 ISZERO PUSH2 0x11C JUMPI PUSH0 PUSH0 REVERT JUMPDEST POP PUSH2 0x137 PUSH1 0x4 DUP1 CALLDATASIZE SUB DUP2 ADD SWAP1 PUSH2 0x132 SWAP2 SWAP1 PUSH2 0xEEC JUMP JUMPDEST PUSH2 0x579 JUMP JUMPDEST PUSH1 0x40 MLOAD PUSH2 0x145 SWAP3 SWAP2 SWAP1 PUSH2 0xF26 JUMP JUMPDEST PUSH1 0x40 MLOAD DUP1 SWAP2 SUB SWAP1 RETURN JUMPDEST CALLVALUE DUP1 ISZERO PUSH2 0x159 JUMPI PUSH0 PUSH0 REVERT JUMPDEST POP PUSH2 0x162 PUSH2 0x5BF JUMP JUMPDEST PUSH1 0x40 MLOAD PUSH2 0x16F SWAP2 SWAP1 PUSH2 0xEA9 JUMP JUMPDEST PUSH1 0x40 MLOAD DUP1 SWAP2 SUB SWAP1 RETURN JUMPDEST CALLVALUE DUP1 ISZERO PUSH2 0x183 JUMPI PUSH0 PUSH0 REVERT JUMPDEST POP PUSH2 0x18C PUSH2 0x5C6 JUMP JUMPDEST PUSH1 0x40 MLOAD PUSH2 0x199 SWAP2 SWAP1 PUSH2 0x102E JUMP JUMPDEST PUSH1 0x40 MLOAD DUP1 SWAP2 SUB SWAP1 RETURN JUMPDEST CALLVALUE DUP1 ISZERO PUSH2 0x1AD JUMPI PUSH0 PUSH0 REVERT JUMPDEST POP PUSH2 0x1B6 PUSH2 0x675 JUMP JUMPDEST STOP JUMPDEST CALLVALUE DUP1 ISZERO PUSH2 0x1C3 JUMPI PUSH0 PUSH0 REVERT JUMPDEST POP PUSH2 0x1DE PUSH1 0x4 DUP1 CALLDATASIZE SUB DUP2 ADD SWAP1 PUSH2 0x1D9 SWAP2 SWAP1 PUSH2 0xE66 JUMP JUMPDEST PUSH2 0x81E JUMP JUMPDEST STOP JUMPDEST PUSH2 0x1E8 PUSH2 0x250 JUMP JUMPDEST STOP JUMPDEST CALLVALUE DUP1 ISZERO PUSH2 0x1F5 JUMPI PUSH0 PUSH0 REVERT JUMPDEST POP PUSH2 0x1FE PUSH2 0x95C JUMP JUMPDEST PUSH1 0x40 MLOAD PUSH2 0x20B SWAP2 SWAP1 PUSH2 0x1047 JUMP JUMPDEST PUSH1 0x40 MLOAD DUP1 SWAP2 SUB SWAP1 RETURN JUMPDEST CALLVALUE DUP1 ISZERO PUSH2 0x21F JUMPI PUSH0 PUSH0 REVERT JUMPDEST POP PUSH2 0x23A PUSH1 0x4 DUP1 CALLDATASIZE SUB DUP2 ADD SWAP1 PUSH2 0x235 SWAP2 SWAP1 PUSH2 0xE66 JUMP JUMPDEST PUSH2 0x980 JUMP JUMPDEST PUSH1 0x40 MLOAD PUSH2 0x247 SWAP2 SWAP1 PUSH2 0xEA9 JUMP JUMPDEST PUSH1 0x40 MLOAD DUP1 SWAP2 SUB SWAP1 RETURN JUMPDEST PUSH0 CALLVALUE GT PUSH2 0x292 JUMPI PUSH1 0x40 MLOAD PUSH32 0x8C379A000000000000000000000000000000000000000000000000000000000 DUP2 MSTORE PUSH1 0x4 ADD PUSH2 0x289 SWAP1 PUSH2 0x10E0 JUMP JUMPDEST PUSH1 0x40 MLOAD DUP1 SWAP2 SUB SWAP1 REVERT JUMPDEST CALLVALUE PUSH1 0x1 PUSH0 CALLER PUSH20 0xFFFFFFFFFFFFFFFFFFFFFFFFFFFFFFFFFFFFFFFF AND PUSH20 0xFFFFFFFFFFFFFFFFFFFFFFFFFFFFFFFFFFFFFFFF AND DUP2 MSTORE PUSH1 0x20 ADD SWAP1 DUP2 MSTORE PUSH1 0x20 ADD PUSH0 KECCAK256 PUSH0 DUP3 DUP3 SLOAD PUSH2 0x2DE SWAP2 SWAP1 PUSH2 0x112B JUMP JUMPDEST SWAP3 POP POP DUP2 SWAP1 SSTORE POP PUSH2 0x32C CALLER PUSH1 0x1 PUSH0 CALLER PUSH20 0xFFFFFFFFFFFFFFFFFFFFFFFFFFFFFFFFFFFFFFFF AND PUSH20 0xFFFFFFFFFFFFFFFFFFFFFFFFFFFFFFFFFFFFFFFF AND DUP2 MSTORE PUSH1 0x20 ADD SWAP1 DUP2 MSTORE PUSH1 0x20 ADD PUSH0 KECCAK256 SLOAD PUSH2 0x9C6 JUMP JUMPDEST CALLER PUSH20 0xFFFFFFFFFFFFFFFFFFFFFFFFFFFFFFFFFFFFFFFF AND PUSH32 0xE1FFFCC4923D04B559F4D29A8BFC6CDA04EB5B0D3C460751C2402C5C5CC9109C CALLVALUE PUSH1 0x40 MLOAD PUSH2 0x372 SWAP2 SWAP1 PUSH2 0xEA9 JUMP JUMPDEST PUSH1 0x40 MLOAD DUP1 SWAP2 SUB SWAP1 LOG2 JUMP JUMPDEST PUSH1 0x1 PUSH1 0x20 MSTORE DUP1 PUSH0 MSTORE PUSH1 0x40 PUSH0 KECCAK256 PUSH0 SWAP2 POP SWAP1 POP SLOAD DUP2 JUMP JUMPDEST PUSH0 PUSH0 SWAP1 SLOAD SWAP1 PUSH2 0x100 EXP SWAP1 DIV PUSH20 0xFFFFFFFFFFFFFFFFFFFFFFFFFFFFFFFFFFFFFFFF AND PUSH20 0xFFFFFFFFFFFFFFFFFFFFFFFFFFFFFFFFFFFFFFFF AND CALLER PUSH20 0xFFFFFFFFFFFFFFFFFFFFFFFFFFFFFFFFFFFFFFFF AND EQ PUSH2 0x41F JUMPI PUSH1 0x40 MLOAD PUSH32 0x8C379A000000000000000000000000000000000000000000000000000000000 DUP2 MSTORE PUSH1 0x4 ADD PUSH2 0x416 SWAP1 PUSH2 0x11CE JUMP JUMPDEST PUSH1 0x40 MLOAD DUP1 SWAP2 SUB SWAP1 REVERT JUMPDEST PUSH0 DUP2 GT PUSH2 0x461 JUMPI PUSH1 0x40 MLOAD PUSH32 0x8C379A000000000000000000000000000000000000000000000000000000000 DUP2 MSTORE PUSH1 0x4 ADD PUSH2 0x458 SWAP1 PUSH2 0x125C JUMP JUMPDEST PUSH1 0x40 MLOAD DUP1 SWAP2 SUB SWAP1 REVERT JUMPDEST DUP1 SELFBALANCE LT ISZERO PUSH2 0x4A4 JUMPI PUSH1 0x40 MLOAD PUSH32 0x8C379A000000000000000000000000000000000000000000000000000000000 DUP2 MSTORE PUSH1 0x4 ADD PUSH2 0x49B SWAP1 PUSH2 0x12C4 JUMP JUMPDEST PUSH1 0x40 MLOAD DUP1 SWAP2 SUB SWAP1 REVERT JUMPDEST PUSH0 PUSH0 SWAP1 SLOAD SWAP1 PUSH2 0x100 EXP SWAP1 DIV PUSH20 0xFFFFFFFFFFFFFFFFFFFFFFFFFFFFFFFFFFFFFFFF AND PUSH20 0xFFFFFFFFFFFFFFFFFFFFFFFFFFFFFFFFFFFFFFFF AND PUSH2 0x8FC DUP3 SWAP1 DUP2 ISZERO MUL SWAP1 PUSH1 0x40 MLOAD PUSH0 PUSH1 0x40 MLOAD DUP1 DUP4 SUB DUP2 DUP6 DUP9 DUP9 CALL SWAP4 POP POP POP POP ISZERO DUP1 ISZERO PUSH2 0x507 JUMPI RETURNDATASIZE PUSH0 PUSH0 RETURNDATACOPY RETURNDATASIZE PUSH0 REVERT JUMPDEST POP PUSH0 PUSH0 SWAP1 SLOAD SWAP1 PUSH2 0x100 EXP SWAP1 DIV PUSH20 0xFFFFFFFFFFFFFFFFFFFFFFFFFFFFFFFFFFFFFFFF AND PUSH20 0xFFFFFFFFFFFFFFFFFFFFFFFFFFFFFFFFFFFFFFFF AND PUSH32 0x884EDAD9CE6FA2440D8A54CC123490EB96D2768479D49FF9C7366125A9424364 DUP3 PUSH1 0x40 MLOAD PUSH2 0x56E SWAP2 SWAP1 PUSH2 0xEA9 JUMP JUMPDEST PUSH1 0x40 MLOAD DUP1 SWAP2 SUB SWAP1 LOG2 POP JUMP JUMPDEST PUSH1 0x2 DUP2 PUSH1 0x3 DUP2 LT PUSH2 0x588 JUMPI PUSH0 DUP1 REVERT JUMPDEST PUSH1 0x2 MUL ADD PUSH0 SWAP2 POP SWAP1 POP DUP1 PUSH0 ADD PUSH0 SWAP1 SLOAD SWAP1 PUSH2 0x100 EXP SWAP1 DIV PUSH20 0xFFFFFFFFFFFFFFFFFFFFFFFFFFFFFFFFFFFFFFFF AND SWAP1 DUP1 PUSH1 0x1 ADD SLOAD SWAP1 POP DUP3 JUMP JUMPDEST PUSH0 SELFBALANCE SWAP1 POP SWAP1 JUMP JUMPDEST PUSH2 0x5CE PUSH2 0xDAD JUMP JUMPDEST PUSH1 0x2 PUSH1 0x3 DUP1 PUSH1 0x20 MUL PUSH1 0x40 MLOAD SWAP1 DUP2 ADD PUSH1 0x40 MSTORE DUP1 SWAP3 SWAP2 SWAP1 PUSH0 SWAP1 JUMPDEST DUP3 DUP3 LT ISZERO PUSH2 0x66C JUMPI DUP4 DUP3 PUSH1 0x2 MUL ADD PUSH1 0x40 MLOAD DUP1 PUSH1 0x40 ADD PUSH1 0x40 MSTORE SWAP1 DUP2 PUSH0 DUP3 ADD PUSH0 SWAP1 SLOAD SWAP1 PUSH2 0x100 EXP SWAP1 DIV PUSH20 0xFFFFFFFFFFFFFFFFFFFFFFFFFFFFFFFFFFFFFFFF AND PUSH20 0xFFFFFFFFFFFFFFFFFFFFFFFFFFFFFFFFFFFFFFFF AND PUSH20 0xFFFFFFFFFFFFFFFFFFFFFFFFFFFFFFFFFFFFFFFF AND DUP2 MSTORE PUSH1 0x20 ADD PUSH1 0x1 DUP3 ADD SLOAD DUP2 MSTORE POP POP DUP2 MSTORE PUSH1 0x20 ADD SWAP1 PUSH1 0x1 ADD SWAP1 PUSH2 0x5E6 JUMP JUMPDEST POP POP POP POP SWAP1 POP SWAP1 JUMP JUMPDEST PUSH0 PUSH0 SWAP1 SLOAD SWAP1 PUSH2 0x100 EXP SWAP1 DIV PUSH20 0xFFFFFFFFFFFFFFFFFFFFFFFFFFFFFFFFFFFFFFFF AND PUSH20 0xFFFFFFFFFFFFFFFFFFFFFFFFFFFFFFFFFFFFFFFF AND CALLER PUSH20 0xFFFFFFFFFFFFFFFFFFFFFFFFFFFFFFFFFFFFFFFF AND EQ PUSH2 0x703 JUMPI PUSH1 0x40 MLOAD PUSH32 0x8C379A000000000000000000000000000000000000000000000000000000000 DUP2 MSTORE PUSH1 0x4 ADD PUSH2 0x6FA SWAP1 PUSH2 0x11CE JUMP JUMPDEST PUSH1 0x40 MLOAD DUP1 SWAP2 SUB SWAP1 REVERT JUMPDEST PUSH0 SELFBALANCE SWAP1 POP PUSH0 DUP2 GT PUSH2 0x749 JUMPI PUSH1 0x40 MLOAD PUSH32 0x8C379A000000000000000000000000000000000000000000000000000000000 DUP2 MSTORE PUSH1 0x4 ADD PUSH2 0x740 SWAP1 PUSH2 0x132C JUMP JUMPDEST PUSH1 0x40 MLOAD DUP1 SWAP2 SUB SWAP1 REVERT JUMPDEST PUSH0 PUSH0 SWAP1 SLOAD SWAP1 PUSH2 0x100 EXP SWAP1 DIV PUSH20 0xFFFFFFFFFFFFFFFFFFFFFFFFFFFFFFFFFFFFFFFF AND PUSH20 0xFFFFFFFFFFFFFFFFFFFFFFFFFFFFFFFFFFFFFFFF AND PUSH2 0x8FC DUP3 SWAP1 DUP2 ISZERO MUL SWAP1 PUSH1 0x40 MLOAD PUSH0 PUSH1 0x40 MLOAD DUP1 DUP4 SUB DUP2 DUP6 DUP9 DUP9 CALL SWAP4 POP POP POP POP ISZERO DUP1 ISZERO PUSH2 0x7AC JUMPI RETURNDATASIZE PUSH0 PUSH0 RETURNDATACOPY RETURNDATASIZE PUSH0 REVERT JUMPDEST POP PUSH0 PUSH0 SWAP1 SLOAD SWAP1 PUSH2 0x100 EXP SWAP1 DIV PUSH20 0xFFFFFFFFFFFFFFFFFFFFFFFFFFFFFFFFFFFFFFFF AND PUSH20 0xFFFFFFFFFFFFFFFFFFFFFFFFFFFFFFFFFFFFFFFF AND PUSH32 0x884EDAD9CE6FA2440D8A54CC123490EB96D2768479D49FF9C7366125A9424364 DUP3 PUSH1 0x40 MLOAD PUSH2 0x813 SWAP2 SWAP1 PUSH2 0xEA9 JUMP JUMPDEST PUSH1 0x40 MLOAD DUP1 SWAP2 SUB SWAP1 LOG2 POP JUMP JUMPDEST PUSH0 PUSH0 SWAP1 SLOAD SWAP1 PUSH2 0x100 EXP SWAP1 DIV PUSH20 0xFFFFFFFFFFFFFFFFFFFFFFFFFFFFFFFFFFFFFFFF AND PUSH20 0xFFFFFFFFFFFFFFFFFFFFFFFFFFFFFFFFFFFFFFFF AND CALLER PUSH20 0xFFFFFFFFFFFFFFFFFFFFFFFFFFFFFFFFFFFFFFFF AND EQ PUSH2 0x8AC JUMPI PUSH1 0x40 MLOAD PUSH32 0x8C379A000000000000000000000000000000000000000000000000000000000 DUP2 MSTORE PUSH1 0x4 ADD PUSH2 0x8A3 SWAP1 PUSH2 0x11CE JUMP JUMPDEST PUSH1 0x40 MLOAD DUP1 SWAP2 SUB SWAP1 REVERT JUMPDEST PUSH0 PUSH20 0xFFFFFFFFFFFFFFFFFFFFFFFFFFFFFFFFFFFFFFFF AND DUP2 PUSH20 0xFFFFFFFFFFFFFFFFFFFFFFFFFFFFFFFFFFFFFFFF AND SUB PUSH2 0x91A JUMPI PUSH1 0x40 MLOAD PUSH32 0x8C379A000000000000000000000000000000000000000000000000000000000 DUP2 MSTORE PUSH1 0x4 ADD PUSH2 0x911 SWAP1 PUSH2 0x1394 JUMP JUMPDEST PUSH1 0x40 MLOAD DUP1 SWAP2 SUB SWAP1 REVERT JUMPDEST DUP1 PUSH0 PUSH0 PUSH2 0x100 EXP DUP2 SLOAD DUP2 PUSH20 0xFFFFFFFFFFFFFFFFFFFFFFFFFFFFFFFFFFFFFFFF MUL NOT AND SWAP1 DUP4 PUSH20 0xFFFFFFFFFFFFFFFFFFFFFFFFFFFFFFFFFFFFFFFF AND MUL OR SWAP1 SSTORE POP POP JUMP JUMPDEST PUSH0 PUSH0 SWAP1 SLOAD SWAP1 PUSH2 0x100 EXP SWAP1 DIV PUSH20 0xFFFFFFFFFFFFFFFFFFFFFFFFFFFFFFFFFFFFFFFF AND DUP2 JUMP JUMPDEST PUSH0 PUSH1 0x1 PUSH0 DUP4 PUSH20 0xFFFFFFFFFFFFFFFFFFFFFFFFFFFFFFFFFFFFFFFF AND PUSH20 0xFFFFFFFFFFFFFFFFFFFFFFFFFFFFFFFFFFFFFFFF AND DUP2 MSTORE PUSH1 0x20 ADD SWAP1 DUP2 MSTORE PUSH1 0x20 ADD PUSH0 KECCAK256 SLOAD SWAP1 POP SWAP2 SWAP1 POP JUMP JUMPDEST PUSH0 PUSH0 SWAP1 POP JUMPDEST PUSH1 0x3 DUP2 LT ISZERO PUSH2 0xAA7 JUMPI DUP3 PUSH20 0xFFFFFFFFFFFFFFFFFFFFFFFFFFFFFFFFFFFFFFFF AND PUSH1 0x2 DUP3 PUSH1 0x3 DUP2 LT PUSH2 0x9FF JUMPI PUSH2 0x9FE PUSH2 0x13B2 JUMP JUMPDEST JUMPDEST PUSH1 0x2 MUL ADD PUSH0 ADD PUSH0 SWAP1 SLOAD SWAP1 PUSH2 0x100 EXP SWAP1 DIV PUSH20 0xFFFFFFFFFFFFFFFFFFFFFFFFFFFFFFFFFFFFFFFF AND PUSH20 0xFFFFFFFFFFFFFFFFFFFFFFFFFFFFFFFFFFFFFFFF AND SUB PUSH2 0xA9A JUMPI DUP2 PUSH1 0x2 DUP3 PUSH1 0x3 DUP2 LT PUSH2 0xA55 JUMPI PUSH2 0xA54 PUSH2 0x13B2 JUMP JUMPDEST JUMPDEST PUSH1 0x2 MUL ADD PUSH1 0x1 ADD DUP2 SWAP1 SSTORE POP PUSH2 0xA68 PUSH2 0xB99 JUMP JUMPDEST PUSH32 0x836BF56A9E2BD785315AC92D9F5209B1247F4E0184C58F743355E01D47E51C3B PUSH1 0x40 MLOAD PUSH1 0x40 MLOAD DUP1 SWAP2 SUB SWAP1 LOG1 POP PUSH2 0xB95 JUMP JUMPDEST DUP1 DUP1 PUSH1 0x1 ADD SWAP2 POP POP PUSH2 0x9CB JUMP JUMPDEST POP PUSH1 0x2 DUP1 PUSH1 0x3 DUP2 LT PUSH2 0xABC JUMPI PUSH2 0xABB PUSH2 0x13B2 JUMP JUMPDEST JUMPDEST PUSH1 0x2 MUL ADD PUSH1 0x1 ADD SLOAD DUP2 GT ISZERO PUSH2 0xB94 JUMPI PUSH1 0x40 MLOAD DUP1 PUSH1 0x40 ADD PUSH1 0x40 MSTORE DUP1 DUP4 PUSH20 0xFFFFFFFFFFFFFFFFFFFFFFFFFFFFFFFFFFFFFFFF AND DUP2 MSTORE PUSH1 0x20 ADD DUP3 DUP2 MSTORE POP PUSH1 0x2 DUP1 PUSH1 0x3 DUP2 LT PUSH2 0xB0A JUMPI PUSH2 0xB09 PUSH2 0x13B2 JUMP JUMPDEST JUMPDEST PUSH1 0x2 MUL ADD PUSH0 DUP3 ADD MLOAD DUP2 PUSH0 ADD PUSH0 PUSH2 0x100 EXP DUP2 SLOAD DUP2 PUSH20 0xFFFFFFFFFFFFFFFFFFFFFFFFFFFFFFFFFFFFFFFF MUL NOT AND SWAP1 DUP4 PUSH20 0xFFFFFFFFFFFFFFFFFFFFFFFFFFFFFFFFFFFFFFFF AND MUL OR SWAP1 SSTORE POP PUSH1 0x20 DUP3 ADD MLOAD DUP2 PUSH1 0x1 ADD SSTORE SWAP1 POP POP PUSH2 0xB67 PUSH2 0xB99 JUMP JUMPDEST PUSH32 0x836BF56A9E2BD785315AC92D9F5209B1247F4E0184C58F743355E01D47E51C3B PUSH1 0x40 MLOAD PUSH1 0x40 MLOAD DUP1 SWAP2 SUB SWAP1 LOG1 JUMPDEST JUMPDEST POP POP JUMP JUMPDEST PUSH0 PUSH0 SWAP1 POP JUMPDEST PUSH1 0x2 DUP2 LT ISZERO PUSH2 0xDAA JUMPI PUSH0 PUSH1 0x1 DUP3 PUSH2 0xBB5 SWAP2 SWAP1 PUSH2 0x112B JUMP JUMPDEST SWAP1 POP JUMPDEST PUSH1 0x3 DUP2 LT ISZERO PUSH2 0xD9C JUMPI PUSH1 0x2 DUP2 PUSH1 0x3 DUP2 LT PUSH2 0xBD5 JUMPI PUSH2 0xBD4 PUSH2 0x13B2 JUMP JUMPDEST JUMPDEST PUSH1 0x2 MUL ADD PUSH1 0x1 ADD SLOAD PUSH1 0x2 DUP4 PUSH1 0x3 DUP2 LT PUSH2 0xBF1 JUMPI PUSH2 0xBF0 PUSH2 0x13B2 JUMP JUMPDEST JUMPDEST PUSH1 0x2 MUL ADD PUSH1 0x1 ADD SLOAD LT ISZERO PUSH2 0xD8F JUMPI PUSH0 PUSH1 0x2 DUP4 PUSH1 0x3 DUP2 LT PUSH2 0xC14 JUMPI PUSH2 0xC13 PUSH2 0x13B2 JUMP JUMPDEST JUMPDEST PUSH1 0x2 MUL ADD PUSH1 0x40 MLOAD DUP1 PUSH1 0x40 ADD PUSH1 0x40 MSTORE SWAP1 DUP2 PUSH0 DUP3 ADD PUSH0 SWAP1 SLOAD SWAP1 PUSH2 0x100 EXP SWAP1 DIV PUSH20 0xFFFFFFFFFFFFFFFFFFFFFFFFFFFFFFFFFFFFFFFF AND PUSH20 0xFFFFFFFFFFFFFFFFFFFFFFFFFFFFFFFFFFFFFFFF AND PUSH20 0xFFFFFFFFFFFFFFFFFFFFFFFFFFFFFFFFFFFFFFFF AND DUP2 MSTORE PUSH1 0x20 ADD PUSH1 0x1 DUP3 ADD SLOAD DUP2 MSTORE POP POP SWAP1 POP PUSH1 0x2 DUP3 PUSH1 0x3 DUP2 LT PUSH2 0xC97 JUMPI PUSH2 0xC96 PUSH2 0x13B2 JUMP JUMPDEST JUMPDEST PUSH1 0x2 MUL ADD PUSH1 0x2 DUP5 PUSH1 0x3 DUP2 LT PUSH2 0xCAF JUMPI PUSH2 0xCAE PUSH2 0x13B2 JUMP JUMPDEST JUMPDEST PUSH1 0x2 MUL ADD PUSH0 DUP3 ADD PUSH0 SWAP1 SLOAD SWAP1 PUSH2 0x100 EXP SWAP1 DIV PUSH20 0xFFFFFFFFFFFFFFFFFFFFFFFFFFFFFFFFFFFFFFFF AND DUP2 PUSH0 ADD PUSH0 PUSH2 0x100 EXP DUP2 SLOAD DUP2 PUSH20 0xFFFFFFFFFFFFFFFFFFFFFFFFFFFFFFFFFFFFFFFF MUL NOT AND SWAP1 DUP4 PUSH20 0xFFFFFFFFFFFFFFFFFFFFFFFFFFFFFFFFFFFFFFFF AND MUL OR SWAP1 SSTORE POP PUSH1 0x1 DUP3 ADD SLOAD DUP2 PUSH1 0x1 ADD SSTORE SWAP1 POP POP DUP1 PUSH1 0x2 DUP4 PUSH1 0x3 DUP2 LT PUSH2 0xD38 JUMPI PUSH2 0xD37 PUSH2 0x13B2 JUMP JUMPDEST JUMPDEST PUSH1 0x2 MUL ADD PUSH0 DUP3 ADD MLOAD DUP2 PUSH0 ADD PUSH0 PUSH2 0x100 EXP DUP2 SLOAD DUP2 PUSH20 0xFFFFFFFFFFFFFFFFFFFFFFFFFFFFFFFFFFFFFFFF MUL NOT AND SWAP1 DUP4 PUSH20 0xFFFFFFFFFFFFFFFFFFFFFFFFFFFFFFFFFFFFFFFF AND MUL OR SWAP1 SSTORE POP PUSH1 0x20 DUP3 ADD MLOAD DUP2 PUSH1 0x1 ADD SSTORE SWAP1 POP POP POP JUMPDEST DUP1 DUP1 PUSH1 0x1 ADD SWAP2 POP POP PUSH2 0xBB8 JUMP JUMPDEST POP DUP1 DUP1 PUSH1 0x1 ADD SWAP2 POP POP PUSH2 0xB9E JUMP JUMPDEST POP JUMP JUMPDEST PUSH1 0x40 MLOAD DUP1 PUSH1 0x60 ADD PUSH1 0x40 MSTORE DUP1 PUSH1 0x3 SWAP1 JUMPDEST PUSH2 0xDC4 PUSH2 0xDDA JUMP JUMPDEST DUP2 MSTORE PUSH1 0x20 ADD SWAP1 PUSH1 0x1 SWAP1 SUB SWAP1 DUP2 PUSH2 0xDBC JUMPI SWAP1 POP POP SWAP1 JUMP JUMPDEST PUSH1 0x40 MLOAD DUP1 PUSH1 0x40 ADD PUSH1 0x40 MSTORE DUP1 PUSH0 PUSH20 0xFFFFFFFFFFFFFFFFFFFFFFFFFFFFFFFFFFFFFFFF AND DUP2 MSTORE PUSH1 0x20 ADD PUSH0 DUP2 MSTORE POP SWAP1 JUMP JUMPDEST PUSH0 PUSH0 REVERT JUMPDEST PUSH0 PUSH20 0xFFFFFFFFFFFFFFFFFFFFFFFFFFFFFFFFFFFFFFFF DUP3 AND SWAP1 POP SWAP2 SWAP1 POP JUMP JUMPDEST PUSH0 PUSH2 0xE35 DUP3 PUSH2 0xE0C JUMP JUMPDEST SWAP1 POP SWAP2 SWAP1 POP JUMP JUMPDEST PUSH2 0xE45 DUP2 PUSH2 0xE2B JUMP JUMPDEST DUP2 EQ PUSH2 0xE4F JUMPI PUSH0 PUSH0 REVERT JUMPDEST POP JUMP JUMPDEST PUSH0 DUP2 CALLDATALOAD SWAP1 POP PUSH2 0xE60 DUP2 PUSH2 0xE3C JUMP JUMPDEST SWAP3 SWAP2 POP POP JUMP JUMPDEST PUSH0 PUSH1 0x20 DUP3 DUP5 SUB SLT ISZERO PUSH2 0xE7B JUMPI PUSH2 0xE7A PUSH2 0xE08 JUMP JUMPDEST JUMPDEST PUSH0 PUSH2 0xE88 DUP5 DUP3 DUP6 ADD PUSH2 0xE52 JUMP JUMPDEST SWAP2 POP POP SWAP3 SWAP2 POP POP JUMP JUMPDEST PUSH0 DUP2 SWAP1 POP SWAP2 SWAP1 POP JUMP JUMPDEST PUSH2 0xEA3 DUP2 PUSH2 0xE91 JUMP JUMPDEST DUP3 MSTORE POP POP JUMP JUMPDEST PUSH0 PUSH1 0x20 DUP3 ADD SWAP1 POP PUSH2 0xEBC PUSH0 DUP4 ADD DUP5 PUSH2 0xE9A JUMP JUMPDEST SWAP3 SWAP2 POP POP JUMP JUMPDEST PUSH2 0xECB DUP2 PUSH2 0xE91 JUMP JUMPDEST DUP2 EQ PUSH2 0xED5 JUMPI PUSH0 PUSH0 REVERT JUMPDEST POP JUMP JUMPDEST PUSH0 DUP2 CALLDATALOAD SWAP1 POP PUSH2 0xEE6 DUP2 PUSH2 0xEC2 JUMP JUMPDEST SWAP3 SWAP2 POP POP JUMP JUMPDEST PUSH0 PUSH1 0x20 DUP3 DUP5 SUB SLT ISZERO PUSH2 0xF01 JUMPI PUSH2 0xF00 PUSH2 0xE08 JUMP JUMPDEST JUMPDEST PUSH0 PUSH2 0xF0E DUP5 DUP3 DUP6 ADD PUSH2 0xED8 JUMP JUMPDEST SWAP2 POP POP SWAP3 SWAP2 POP POP JUMP JUMPDEST PUSH2 0xF20 DUP2 PUSH2 0xE2B JUMP JUMPDEST DUP3 MSTORE POP POP JUMP JUMPDEST PUSH0 PUSH1 0x40 DUP3 ADD SWAP1 POP PUSH2 0xF39 PUSH0 DUP4 ADD DUP6 PUSH2 0xF17 JUMP JUMPDEST PUSH2 0xF46 PUSH1 0x20 DUP4 ADD DUP5 PUSH2 0xE9A JUMP JUMPDEST SWAP4 SWAP3 POP POP POP JUMP JUMPDEST PUSH0 PUSH1 0x3 SWAP1 POP SWAP2 SWAP1 POP JUMP JUMPDEST PUSH0 DUP2 SWAP1 POP SWAP3 SWAP2 POP POP JUMP JUMPDEST PUSH0 DUP2 SWAP1 POP SWAP2 SWAP1 POP JUMP JUMPDEST PUSH2 0xF73 DUP2 PUSH2 0xE2B JUMP JUMPDEST DUP3 MSTORE POP POP JUMP JUMPDEST PUSH2 0xF82 DUP2 PUSH2 0xE91 JUMP JUMPDEST DUP3 MSTORE POP POP JUMP JUMPDEST PUSH1 0x40 DUP3 ADD PUSH0 DUP3 ADD MLOAD PUSH2 0xF9C PUSH0 DUP6 ADD DUP3 PUSH2 0xF6A JUMP JUMPDEST POP PUSH1 0x20 DUP3 ADD MLOAD PUSH2 0xFAF PUSH1 0x20 DUP6 ADD DUP3 PUSH2 0xF79 JUMP JUMPDEST POP POP POP POP JUMP JUMPDEST PUSH0 PUSH2 0xFC0 DUP4 DUP4 PUSH2 0xF88 JUMP JUMPDEST PUSH1 0x40 DUP4 ADD SWAP1 POP SWAP3 SWAP2 POP POP JUMP JUMPDEST PUSH0 PUSH1 0x20 DUP3 ADD SWAP1 POP SWAP2 SWAP1 POP JUMP JUMPDEST PUSH2 0xFE1 DUP2 PUSH2 0xF4D JUMP JUMPDEST PUSH2 0xFEB DUP2 DUP5 PUSH2 0xF57 JUMP JUMPDEST SWAP3 POP PUSH2 0xFF6 DUP3 PUSH2 0xF61 JUMP JUMPDEST DUP1 PUSH0 JUMPDEST DUP4 DUP2 LT ISZERO PUSH2 0x1026 JUMPI DUP2 MLOAD PUSH2 0x100D DUP8 DUP3 PUSH2 0xFB5 JUMP JUMPDEST SWAP7 POP PUSH2 0x1018 DUP4 PUSH2 0xFCC JUMP JUMPDEST SWAP3 POP POP PUSH1 0x1 DUP2 ADD SWAP1 POP PUSH2 0xFF9 JUMP JUMPDEST POP POP POP POP POP POP JUMP JUMPDEST PUSH0 PUSH1 0xC0 DUP3 ADD SWAP1 POP PUSH2 0x1041 PUSH0 DUP4 ADD DUP5 PUSH2 0xFD8 JUMP JUMPDEST SWAP3 SWAP2 POP POP JUMP JUMPDEST PUSH0 PUSH1 0x20 DUP3 ADD SWAP1 POP PUSH2 0x105A PUSH0 DUP4 ADD DUP5 PUSH2 0xF17 JUMP JUMPDEST SWAP3 SWAP2 POP POP JUMP JUMPDEST PUSH0 DUP3 DUP3 MSTORE PUSH1 0x20 DUP3 ADD SWAP1 POP SWAP3 SWAP2 POP POP JUMP JUMPDEST PUSH32 0x4465706F73697420616D6F756E74206D75737420626520677265617465722074 PUSH0 DUP3 ADD MSTORE PUSH32 0x68616E2030000000000000000000000000000000000000000000000000000000 PUSH1 0x20 DUP3 ADD MSTORE POP JUMP JUMPDEST PUSH0 PUSH2 0x10CA PUSH1 0x25 DUP4 PUSH2 0x1060 JUMP JUMPDEST SWAP2 POP PUSH2 0x10D5 DUP3 PUSH2 0x1070 JUMP JUMPDEST PUSH1 0x40 DUP3 ADD SWAP1 POP SWAP2 SWAP1 POP JUMP JUMPDEST PUSH0 PUSH1 0x20 DUP3 ADD SWAP1 POP DUP2 DUP2 SUB PUSH0 DUP4 ADD MSTORE PUSH2 0x10F7 DUP2 PUSH2 0x10BE JUMP JUMPDEST SWAP1 POP SWAP2 SWAP1 POP JUMP JUMPDEST PUSH32 0x4E487B7100000000000000000000000000000000000000000000000000000000 PUSH0 MSTORE PUSH1 0x11 PUSH1 0x4 MSTORE PUSH1 0x24 PUSH0 REVERT JUMPDEST PUSH0 PUSH2 0x1135 DUP3 PUSH2 0xE91 JUMP JUMPDEST SWAP2 POP PUSH2 0x1140 DUP4 PUSH2 0xE91 JUMP JUMPDEST SWAP3 POP DUP3 DUP3 ADD SWAP1 POP DUP1 DUP3 GT ISZERO PUSH2 0x1158 JUMPI PUSH2 0x1157 PUSH2 0x10FE JUMP JUMPDEST JUMPDEST SWAP3 SWAP2 POP POP JUMP JUMPDEST PUSH32 0x4F6E6C792061646D696E2063616E2063616C6C20746869732066756E6374696F PUSH0 DUP3 ADD MSTORE PUSH32 0x6E00000000000000000000000000000000000000000000000000000000000000 PUSH1 0x20 DUP3 ADD MSTORE POP JUMP JUMPDEST PUSH0 PUSH2 0x11B8 PUSH1 0x21 DUP4 PUSH2 0x1060 JUMP JUMPDEST SWAP2 POP PUSH2 0x11C3 DUP3 PUSH2 0x115E JUMP JUMPDEST PUSH1 0x40 DUP3 ADD SWAP1 POP SWAP2 SWAP1 POP JUMP JUMPDEST PUSH0 PUSH1 0x20 DUP3 ADD SWAP1 POP DUP2 DUP2 SUB PUSH0 DUP4 ADD MSTORE PUSH2 0x11E5 DUP2 PUSH2 0x11AC JUMP JUMPDEST SWAP1 POP SWAP2 SWAP1 POP JUMP JUMPDEST PUSH32 0x576974686472617720616D6F756E74206D757374206265206772656174657220 PUSH0 DUP3 ADD MSTORE PUSH32 0x7468616E20300000000000000000000000000000000000000000000000000000 PUSH1 0x20 DUP3 ADD MSTORE POP JUMP JUMPDEST PUSH0 PUSH2 0x1246 PUSH1 0x26 DUP4 PUSH2 0x1060 JUMP JUMPDEST SWAP2 POP PUSH2 0x1251 DUP3 PUSH2 0x11EC JUMP JUMPDEST PUSH1 0x40 DUP3 ADD SWAP1 POP SWAP2 SWAP1 POP JUMP JUMPDEST PUSH0 PUSH1 0x20 DUP3 ADD SWAP1 POP DUP2 DUP2 SUB PUSH0 DUP4 ADD MSTORE PUSH2 0x1273 DUP2 PUSH2 0x123A JUMP JUMPDEST SWAP1 POP SWAP2 SWAP1 POP JUMP JUMPDEST PUSH32 0x496E73756666696369656E7420636F6E74726163742062616C616E6365000000 PUSH0 DUP3 ADD MSTORE POP JUMP JUMPDEST PUSH0 PUSH2 0x12AE PUSH1 0x1D DUP4 PUSH2 0x1060 JUMP JUMPDEST SWAP2 POP PUSH2 0x12B9 DUP3 PUSH2 0x127A JUMP JUMPDEST PUSH1 0x20 DUP3 ADD SWAP1 POP SWAP2 SWAP1 POP JUMP JUMPDEST PUSH0 PUSH1 0x20 DUP3 ADD SWAP1 POP DUP2 DUP2 SUB PUSH0 DUP4 ADD MSTORE PUSH2 0x12DB DUP2 PUSH2 0x12A2 JUMP JUMPDEST SWAP1 POP SWAP2 SWAP1 POP JUMP JUMPDEST PUSH32 0x4E6F2066756E647320746F207769746864726177000000000000000000000000 PUSH0 DUP3 ADD MSTORE POP JUMP JUMPDEST PUSH0 PUSH2 0x1316 PUSH1 0x14 DUP4 PUSH2 0x1060 JUMP JUMPDEST SWAP2 POP PUSH2 0x1321 DUP3 PUSH2 0x12E2 JUMP JUMPDEST PUSH1 0x20 DUP3 ADD SWAP1 POP SWAP2 SWAP1 POP JUMP JUMPDEST PUSH0 PUSH1 0x20 DUP3 ADD SWAP1 POP DUP2 DUP2 SUB PUSH0 DUP4 ADD MSTORE PUSH2 0x1343 DUP2 PUSH2 0x130A JUMP JUMPDEST SWAP1 POP SWAP2 SWAP1 POP JUMP JUMPDEST PUSH32 0x4E65772061646D696E2063616E6E6F74206265207A65726F2061646472657373 PUSH0 DUP3 ADD MSTORE POP JUMP JUMPDEST PUSH0 PUSH2 0x137E PUSH1 0x20 DUP4 PUSH2 0x1060 JUMP JUMPDEST SWAP2 POP PUSH2 0x1389 DUP3 PUSH2 0x134A JUMP JUMPDEST PUSH1 0x20 DUP3 ADD SWAP1 POP SWAP2 SWAP1 POP JUMP JUMPDEST PUSH0 PUSH1 0x20 DUP3 ADD SWAP1 POP DUP2 DUP2 SUB PUSH0 DUP4 ADD MSTORE PUSH2 0x13AB DUP2 PUSH2 0x1372 JUMP JUMPDEST SWAP1 POP SWAP2 SWAP1 POP JUMP JUMPDEST PUSH32 0x4E487B7100000000000000000000000000000000000000000000000000000000 PUSH0 MSTORE PUSH1 0x32 PUSH1 0x4 MSTORE PUSH1 0x24 PUSH0 REVERT INVALID LOG2 PUSH5 0x6970667358 0x22 SLT KECCAK256 ADDMOD STATICCALL 0xB5 0xC2 XOR 0xB5 0xD9 SLT SWAP3 DUP2 0x2C 0xBE COINBASE MCOPY DUP16 SWAP14 0xCC PUSH24 0x2DF42546C2F0A5FA92902BE8505064736F6C634300081E00 CALLER "
				},
				"gasEstimates": {
					"creation": {
						"codeDepositCost": "1028200",
						"executionCost": "25329",
						"totalCost": "1053529"
					},
					"external": {
						"": "infinite",
						"admin()": "2573",
						"balances(address)": "2803",
						"changeAdmin(address)": "26938",
						"deposit()": "infinite",
						"getBalance(address)": "2917",
						"getContractBalance()": "401",
						"getTopDepositors()": "infinite",
						"topDepositors(uint256)": "infinite",
						"withdraw(uint256)": "infinite",
						"withdrawAll()": "infinite"
					},
					"internal": {
						"sortTopDepositors()": "infinite",
						"updateTopDepositors(address,uint256)": "infinite"
					}
				},
				"methodIdentifiers": {
					"admin()": "f851a440",
					"balances(address)": "27e235e3",
					"changeAdmin(address)": "8f283970",
					"deposit()": "d0e30db0",
					"getBalance(address)": "f8b2cb4f",
					"getContractBalance()": "6f9fb98a",
					"getTopDepositors()": "81454f71",
					"topDepositors(uint256)": "30861078",
					"withdraw(uint256)": "2e1a7d4d",
					"withdrawAll()": "853828b6"
				}
			},
			"storageLayout": {
				"storage": [
					{
						"astId": 3,
						"contract": "模块二：Solidity 语言特性/实战 1/code/Bank.sol:Bank",
						"label": "admin",
						"offset": 0,
						"slot": "0",
						"type": "t_address"
					},
					{
						"astId": 7,
						"contract": "模块二：Solidity 语言特性/实战 1/code/Bank.sol:Bank",
						"label": "balances",
						"offset": 0,
						"slot": "1",
						"type": "t_mapping(t_address,t_uint256)"
					},
					{
						"astId": 17,
						"contract": "模块二：Solidity 语言特性/实战 1/code/Bank.sol:Bank",
						"label": "topDepositors",
						"offset": 0,
						"slot": "2",
						"type": "t_array(t_struct(TopDepositor)12_storage)3_storage"
					}
				],
				"types": {
					"t_address": {
						"encoding": "inplace",
						"label": "address",
						"numberOfBytes": "20"
					},
					"t_array(t_struct(TopDepositor)12_storage)3_storage": {
						"base": "t_struct(TopDepositor)12_storage",
						"encoding": "inplace",
						"label": "struct Bank.TopDepositor[3]",
						"numberOfBytes": "192"
					},
					"t_mapping(t_address,t_uint256)": {
						"encoding": "mapping",
						"key": "t_address",
						"label": "mapping(address => uint256)",
						"numberOfBytes": "32",
						"value": "t_uint256"
					},
					"t_struct(TopDepositor)12_storage": {
						"encoding": "inplace",
						"label": "struct Bank.TopDepositor",
						"members": [
							{
								"astId": 9,
								"contract": "模块二：Solidity 语言特性/实战 1/code/Bank.sol:Bank",
								"label": "depositor",
								"offset": 0,
								"slot": "0",
								"type": "t_address"
							},
							{
								"astId": 11,
								"contract": "模块二：Solidity 语言特性/实战 1/code/Bank.sol:Bank",
								"label": "amount",
								"offset": 0,
								"slot": "1",
								"type": "t_uint256"
							}
						],
						"numberOfBytes": "64"
					},
					"t_uint256": {
						"encoding": "inplace",
						"label": "uint256",
						"numberOfBytes": "32"
					}
				}
			},
			"userdoc": {
				"kind": "user",
				"methods": {},
				"version": 1
			}
		}
	}
}